{
  "_format": "hh-sol-artifact-1",
  "contractName": "SmartCampusFinance",
  "sourceName": "contracts/SmartCampusFinance.sol",
  "abi": [
    {
      "inputs": [
        {
          "internalType": "address",
          "name": "initialOwner",
          "type": "address"
        }
      ],
      "stateMutability": "nonpayable",
      "type": "constructor"
    },
    {
      "inputs": [
        {
          "internalType": "address",
          "name": "owner",
          "type": "address"
        }
      ],
      "name": "OwnableInvalidOwner",
      "type": "error"
    },
    {
      "inputs": [
        {
          "internalType": "address",
          "name": "account",
          "type": "address"
        }
      ],
      "name": "OwnableUnauthorizedAccount",
      "type": "error"
    },
    {
      "anonymous": false,
      "inputs": [
        {
          "indexed": true,
          "internalType": "string",
          "name": "studentEnrollment",
          "type": "string"
        },
        {
          "indexed": false,
          "internalType": "string",
          "name": "feeType",
          "type": "string"
        },
        {
          "indexed": false,
          "internalType": "uint256",
          "name": "amount",
          "type": "uint256"
        },
        {
          "indexed": false,
          "internalType": "string",
          "name": "transactionId",
          "type": "string"
        }
      ],
      "name": "FeePaymentRecorded",
      "type": "event"
    },
    {
      "anonymous": false,
      "inputs": [
        {
          "indexed": true,
          "internalType": "address",
          "name": "previousOwner",
          "type": "address"
        },
        {
          "indexed": true,
          "internalType": "address",
          "name": "newOwner",
          "type": "address"
        }
      ],
      "name": "OwnershipTransferred",
      "type": "event"
    },
    {
      "anonymous": false,
      "inputs": [
        {
          "indexed": true,
          "internalType": "string",
          "name": "employeeId",
          "type": "string"
        },
        {
          "indexed": false,
          "internalType": "string",
          "name": "monthYear",
          "type": "string"
        },
        {
          "indexed": false,
          "internalType": "uint256",
          "name": "amount",
          "type": "uint256"
        }
      ],
      "name": "PayrollDisbursed",
      "type": "event"
    },
    {
      "inputs": [
        {
          "internalType": "string",
          "name": "",
          "type": "string"
        },
        {
          "internalType": "uint256",
          "name": "",
          "type": "uint256"
        }
      ],
      "name": "feeHistory",
      "outputs": [
        {
          "internalType": "string",
          "name": "studentEnrollment",
          "type": "string"
        },
        {
          "internalType": "string",
          "name": "feeType",
          "type": "string"
        },
        {
          "internalType": "uint256",
          "name": "amount",
          "type": "uint256"
        },
        {
          "internalType": "string",
          "name": "transactionId",
          "type": "string"
        },
        {
          "internalType": "uint256",
          "name": "timestamp",
          "type": "uint256"
        }
      ],
      "stateMutability": "view",
      "type": "function"
    },
    {
      "inputs": [
        {
          "internalType": "string",
          "name": "_studentEnrollment",
          "type": "string"
        }
      ],
      "name": "getFeeHistoryCount",
      "outputs": [
        {
          "internalType": "uint256",
          "name": "",
          "type": "uint256"
        }
      ],
      "stateMutability": "view",
      "type": "function"
    },
    {
      "inputs": [
        {
          "internalType": "string",
          "name": "_studentEnrollment",
          "type": "string"
        },
        {
          "internalType": "uint256",
          "name": "_index",
          "type": "uint256"
        }
      ],
      "name": "getFeeReceipt",
      "outputs": [
        {
          "internalType": "string",
          "name": "",
          "type": "string"
        },
        {
          "internalType": "uint256",
          "name": "",
          "type": "uint256"
        },
        {
          "internalType": "string",
          "name": "",
          "type": "string"
        },
        {
          "internalType": "uint256",
          "name": "",
          "type": "uint256"
        }
      ],
      "stateMutability": "view",
      "type": "function"
    },
    {
      "inputs": [],
      "name": "owner",
      "outputs": [
        {
          "internalType": "address",
          "name": "",
          "type": "address"
        }
      ],
      "stateMutability": "view",
      "type": "function"
    },
    {
      "inputs": [
        {
          "internalType": "string",
          "name": "",
          "type": "string"
        },
        {
          "internalType": "string",
          "name": "",
          "type": "string"
        }
      ],
      "name": "payrollHistory",
      "outputs": [
        {
          "internalType": "string",
          "name": "employeeId",
          "type": "string"
        },
        {
          "internalType": "string",
          "name": "monthYear",
          "type": "string"
        },
        {
          "internalType": "uint256",
          "name": "amount",
          "type": "uint256"
        },
        {
          "internalType": "string",
          "name": "status",
          "type": "string"
        },
        {
          "internalType": "uint256",
          "name": "timestamp",
          "type": "uint256"
        }
      ],
      "stateMutability": "view",
      "type": "function"
    },
    {
      "inputs": [
        {
          "internalType": "string",
          "name": "_studentEnrollment",
          "type": "string"
        },
        {
          "internalType": "string",
          "name": "_feeType",
          "type": "string"
        },
        {
          "internalType": "uint256",
          "name": "_amount",
          "type": "uint256"
        },
        {
          "internalType": "string",
          "name": "_transactionId",
          "type": "string"
        }
      ],
      "name": "recordFeePayment",
      "outputs": [],
      "stateMutability": "nonpayable",
      "type": "function"
    },
    {
      "inputs": [
        {
          "internalType": "string",
          "name": "_employeeId",
          "type": "string"
        },
        {
          "internalType": "string",
          "name": "_monthYear",
          "type": "string"
        },
        {
          "internalType": "uint256",
          "name": "_amount",
          "type": "uint256"
        }
      ],
      "name": "recordPayroll",
      "outputs": [],
      "stateMutability": "nonpayable",
      "type": "function"
    },
    {
      "inputs": [],
      "name": "renounceOwnership",
      "outputs": [],
      "stateMutability": "nonpayable",
      "type": "function"
    },
    {
      "inputs": [
        {
          "internalType": "address",
          "name": "newOwner",
          "type": "address"
        }
      ],
      "name": "transferOwnership",
      "outputs": [],
      "stateMutability": "nonpayable",
      "type": "function"
    }
  ],
  "bytecode": "0x60806040523480156200001157600080fd5b5060405162001957380380620019578339818101604052810190620000379190620001f4565b80600073ffffffffffffffffffffffffffffffffffffffff168173ffffffffffffffffffffffffffffffffffffffff1603620000ad5760006040517f1e4fbdf7000000000000000000000000000000000000000000000000000000008152600401620000a4919062000237565b60405180910390fd5b620000be81620000c660201b60201c565b505062000254565b60008060009054906101000a900473ffffffffffffffffffffffffffffffffffffffff169050816000806101000a81548173ffffffffffffffffffffffffffffffffffffffff021916908373ffffffffffffffffffffffffffffffffffffffff1602179055508173ffffffffffffffffffffffffffffffffffffffff168173ffffffffffffffffffffffffffffffffffffffff167f8be0079c531659141344cd1fd0a4f28419497f9722a3daafe3b4186f6b6457e060405160405180910390a35050565b600080fd5b600073ffffffffffffffffffffffffffffffffffffffff82169050919050565b6000620001bc826200018f565b9050919050565b620001ce81620001af565b8114620001da57600080fd5b50565b600081519050620001ee81620001c3565b92915050565b6000602082840312156200020d576200020c6200018a565b5b60006200021d84828501620001dd565b91505092915050565b6200023181620001af565b82525050565b60006020820190506200024e600083018462000226565b92915050565b6116f380620002646000396000f3fe608060405234801561001057600080fd5b50600436106100935760003560e01c806397aa0cef1161006657806397aa0cef14610110578063b748b51314610144578063bce7c7e614610177578063e9c5865714610193578063f2fde38b146101c357610093565b8063244a71811461009857806370da6389146100cc578063715018a6146100e85780638da5cb5b146100f2575b600080fd5b6100b260048036038101906100ad9190610e6c565b6101df565b6040516100c3959493929190610f56565b60405180910390f35b6100e660048036038101906100e19190610fbe565b6103e0565b005b6100f0610505565b005b6100fa610519565b60405161010791906110ba565b60405180910390f35b61012a600480360381019061012591906110d5565b610542565b60405161013b959493929190610f56565b60405180910390f35b61015e60048036038101906101599190610e6c565b610749565b60405161016e949392919061114d565b60405180910390f35b610191600480360381019061018c91906111a0565b61098d565b005b6101ad60048036038101906101a8919061122b565b610ad8565b6040516101ba9190611274565b60405180910390f35b6101dd60048036038101906101d891906112bb565b610b03565b005b600182805160208101820180518482526020830160208501208183528095505050505050818154811061021157600080fd5b90600052602060002090600502016000915091505080600001805461023590611317565b80601f016020809104026020016040519081016040528092919081815260200182805461026190611317565b80156102ae5780601f10610283576101008083540402835291602001916102ae565b820191906000526020600020905b81548152906001019060200180831161029157829003601f168201915b5050505050908060010180546102c390611317565b80601f01602080910402602001604051908101604052809291908181526020018280546102ef90611317565b801561033c5780601f106103115761010080835404028352916020019161033c565b820191906000526020600020905b81548152906001019060200180831161031f57829003601f168201915b50505050509080600201549080600301805461035790611317565b80601f016020809104026020016040519081016040528092919081815260200182805461038390611317565b80156103d05780601f106103a5576101008083540402835291602001916103d0565b820191906000526020600020905b8154815290600101906020018083116103b357829003601f168201915b5050505050908060040154905085565b6103e8610b89565b6001846040516103f89190611384565b90815260200160405180910390206040518060a00160405280868152602001858152602001848152602001838152602001428152509080600181540180825580915050600190039060005260206000209060050201600090919091909150600082015181600001908161046b9190611547565b5060208201518160010190816104819190611547565b506040820151816002015560608201518160030190816104a19190611547565b50608082015181600401555050836040516104bc9190611384565b60405180910390207ff7c63db994abad6f427e81da8db58a611745fae7c8a22221c02fa43c0705d9578484846040516104f793929190611619565b60405180910390a250505050565b61050d610b89565b6105176000610c10565b565b60008060009054906101000a900473ffffffffffffffffffffffffffffffffffffffff16905090565b600282805160208101820180518482526020830160208501208183528095505050505050818051602081018201805184825260208301602085012081835280955050505050506000915091505080600001805461059e90611317565b80601f01602080910402602001604051908101604052809291908181526020018280546105ca90611317565b80156106175780601f106105ec57610100808354040283529160200191610617565b820191906000526020600020905b8154815290600101906020018083116105fa57829003601f168201915b50505050509080600101805461062c90611317565b80601f016020809104026020016040519081016040528092919081815260200182805461065890611317565b80156106a55780601f1061067a576101008083540402835291602001916106a5565b820191906000526020600020905b81548152906001019060200180831161068857829003601f168201915b5050505050908060020154908060030180546106c090611317565b80601f01602080910402602001604051908101604052809291908181526020018280546106ec90611317565b80156107395780601f1061070e57610100808354040283529160200191610739565b820191906000526020600020905b81548152906001019060200180831161071c57829003601f168201915b5050505050908060040154905085565b6060600060606000806001876040516107629190611384565b908152602001604051809103902086815481106107825761078161165e565b5b90600052602060002090600502016040518060a00160405290816000820180546107ab90611317565b80601f01602080910402602001604051908101604052809291908181526020018280546107d790611317565b80156108245780601f106107f957610100808354040283529160200191610824565b820191906000526020600020905b81548152906001019060200180831161080757829003601f168201915b5050505050815260200160018201805461083d90611317565b80601f016020809104026020016040519081016040528092919081815260200182805461086990611317565b80156108b65780601f1061088b576101008083540402835291602001916108b6565b820191906000526020600020905b81548152906001019060200180831161089957829003601f168201915b50505050508152602001600282015481526020016003820180546108d990611317565b80601f016020809104026020016040519081016040528092919081815260200182805461090590611317565b80156109525780601f1061092757610100808354040283529160200191610952565b820191906000526020600020905b81548152906001019060200180831161093557829003601f168201915b505050505081526020016004820154815250509050806020015181604001518260600151836080015194509450945094505092959194509250565b610995610b89565b6040518060a001604052808481526020018381526020018281526020016040518060400160405280600981526020017f4449534255525345440000000000000000000000000000000000000000000000815250815260200142815250600284604051610a019190611384565b908152602001604051809103902083604051610a1d9190611384565b90815260200160405180910390206000820151816000019081610a409190611547565b506020820151816001019081610a569190611547565b50604082015181600201556060820151816003019081610a769190611547565b506080820151816004015590505082604051610a929190611384565b60405180910390207fa9f4bd56576a861afc0db4e90be5018453ecdd133a4855397e4e8ed6d473e9da8383604051610acb92919061168d565b60405180910390a2505050565b6000600182604051610aea9190611384565b9081526020016040518091039020805490509050919050565b610b0b610b89565b600073ffffffffffffffffffffffffffffffffffffffff168173ffffffffffffffffffffffffffffffffffffffff1603610b7d5760006040517f1e4fbdf7000000000000000000000000000000000000000000000000000000008152600401610b7491906110ba565b60405180910390fd5b610b8681610c10565b50565b610b91610cd4565b73ffffffffffffffffffffffffffffffffffffffff16610baf610519565b73ffffffffffffffffffffffffffffffffffffffff1614610c0e57610bd2610cd4565b6040517f118cdaa7000000000000000000000000000000000000000000000000000000008152600401610c0591906110ba565b60405180910390fd5b565b60008060009054906101000a900473ffffffffffffffffffffffffffffffffffffffff169050816000806101000a81548173ffffffffffffffffffffffffffffffffffffffff021916908373ffffffffffffffffffffffffffffffffffffffff1602179055508173ffffffffffffffffffffffffffffffffffffffff168173ffffffffffffffffffffffffffffffffffffffff167f8be0079c531659141344cd1fd0a4f28419497f9722a3daafe3b4186f6b6457e060405160405180910390a35050565b600033905090565b6000604051905090565b600080fd5b600080fd5b600080fd5b600080fd5b6000601f19601f8301169050919050565b7f4e487b7100000000000000000000000000000000000000000000000000000000600052604160045260246000fd5b610d4382610cfa565b810181811067ffffffffffffffff82111715610d6257610d61610d0b565b5b80604052505050565b6000610d75610cdc565b9050610d818282610d3a565b919050565b600067ffffffffffffffff821115610da157610da0610d0b565b5b610daa82610cfa565b9050602081019050919050565b82818337600083830152505050565b6000610dd9610dd484610d86565b610d6b565b905082815260208101848484011115610df557610df4610cf5565b5b610e00848285610db7565b509392505050565b600082601f830112610e1d57610e1c610cf0565b5b8135610e2d848260208601610dc6565b91505092915050565b6000819050919050565b610e4981610e36565b8114610e5457600080fd5b50565b600081359050610e6681610e40565b92915050565b60008060408385031215610e8357610e82610ce6565b5b600083013567ffffffffffffffff811115610ea157610ea0610ceb565b5b610ead85828601610e08565b9250506020610ebe85828601610e57565b9150509250929050565b600081519050919050565b600082825260208201905092915050565b60005b83811015610f02578082015181840152602081019050610ee7565b60008484015250505050565b6000610f1982610ec8565b610f238185610ed3565b9350610f33818560208601610ee4565b610f3c81610cfa565b840191505092915050565b610f5081610e36565b82525050565b600060a0820190508181036000830152610f708188610f0e565b90508181036020830152610f848187610f0e565b9050610f936040830186610f47565b8181036060830152610fa58185610f0e565b9050610fb46080830184610f47565b9695505050505050565b60008060008060808587031215610fd857610fd7610ce6565b5b600085013567ffffffffffffffff811115610ff657610ff5610ceb565b5b61100287828801610e08565b945050602085013567ffffffffffffffff81111561102357611022610ceb565b5b61102f87828801610e08565b935050604061104087828801610e57565b925050606085013567ffffffffffffffff81111561106157611060610ceb565b5b61106d87828801610e08565b91505092959194509250565b600073ffffffffffffffffffffffffffffffffffffffff82169050919050565b60006110a482611079565b9050919050565b6110b481611099565b82525050565b60006020820190506110cf60008301846110ab565b92915050565b600080604083850312156110ec576110eb610ce6565b5b600083013567ffffffffffffffff81111561110a57611109610ceb565b5b61111685828601610e08565b925050602083013567ffffffffffffffff81111561113757611136610ceb565b5b61114385828601610e08565b9150509250929050565b600060808201905081810360008301526111678187610f0e565b90506111766020830186610f47565b81810360408301526111888185610f0e565b90506111976060830184610f47565b95945050505050565b6000806000606084860312156111b9576111b8610ce6565b5b600084013567ffffffffffffffff8111156111d7576111d6610ceb565b5b6111e386828701610e08565b935050602084013567ffffffffffffffff81111561120457611203610ceb565b5b61121086828701610e08565b925050604061122186828701610e57565b9150509250925092565b60006020828403121561124157611240610ce6565b5b600082013567ffffffffffffffff81111561125f5761125e610ceb565b5b61126b84828501610e08565b91505092915050565b60006020820190506112896000830184610f47565b92915050565b61129881611099565b81146112a357600080fd5b50565b6000813590506112b58161128f565b92915050565b6000602082840312156112d1576112d0610ce6565b5b60006112df848285016112a6565b91505092915050565b7f4e487b7100000000000000000000000000000000000000000000000000000000600052602260045260246000fd5b6000600282049050600182168061132f57607f821691505b602082108103611342576113416112e8565b5b50919050565b600081905092915050565b600061135e82610ec8565b6113688185611348565b9350611378818560208601610ee4565b80840191505092915050565b60006113908284611353565b915081905092915050565b60008190508160005260206000209050919050565b60006020601f8301049050919050565b600082821b905092915050565b6000600883026113fd7fffffffffffffffffffffffffffffffffffffffffffffffffffffffffffffffff826113c0565b61140786836113c0565b95508019841693508086168417925050509392505050565b6000819050919050565b600061144461143f61143a84610e36565b61141f565b610e36565b9050919050565b6000819050919050565b61145e83611429565b61147261146a8261144b565b8484546113cd565b825550505050565b600090565b61148761147a565b611492818484611455565b505050565b5b818110156114b6576114ab60008261147f565b600181019050611498565b5050565b601f8211156114fb576114cc8161139b565b6114d5846113b0565b810160208510156114e4578190505b6114f86114f0856113b0565b830182611497565b50505b505050565b600082821c905092915050565b600061151e60001984600802611500565b1980831691505092915050565b6000611537838361150d565b9150826002028217905092915050565b61155082610ec8565b67ffffffffffffffff81111561156957611568610d0b565b5b6115738254611317565b61157e8282856114ba565b600060209050601f8311600181146115b1576000841561159f578287015190505b6115a9858261152b565b865550611611565b601f1984166115bf8661139b565b60005b828110156115e7578489015182556001820191506020850194506020810190506115c2565b868310156116045784890151611600601f89168261150d565b8355505b6001600288020188555050505b505050505050565b600060608201905081810360008301526116338186610f0e565b90506116426020830185610f47565b81810360408301526116548184610f0e565b9050949350505050565b7f4e487b7100000000000000000000000000000000000000000000000000000000600052603260045260246000fd5b600060408201905081810360008301526116a78185610f0e565b90506116b66020830184610f47565b939250505056fea264697066735822122020d46c95c99ad6a751c944f64d242d334a060174dda725ac652c4677161dec6064736f6c63430008180033",
  "linkReferences": {},
  "deployedLinkReferences": {}
}