{
  "_format": "hh-sol-artifact-1",
  "contractName": "SmartCampusAcademicPlus",
  "sourceName": "contracts/SmartCampusAcademicPlus.sol",
  "abi": [
    {
      "inputs": [
        {
          "internalType": "address",
          "name": "initialOwner",
          "type": "address"
        }
      ],
      "stateMutability": "nonpayable",
      "type": "constructor"
    },
    {
      "inputs": [
        {
          "internalType": "address",
          "name": "owner",
          "type": "address"
        }
      ],
      "name": "OwnableInvalidOwner",
      "type": "error"
    },
    {
      "inputs": [
        {
          "internalType": "address",
          "name": "account",
          "type": "address"
        }
      ],
      "name": "OwnableUnauthorizedAccount",
      "type": "error"
    },
    {
      "anonymous": false,
      "inputs": [
        {
          "indexed": true,
          "internalType": "string",
          "name": "examId",
          "type": "string"
        },
        {
          "indexed": false,
          "internalType": "uint256",
          "name": "releaseTime",
          "type": "uint256"
        }
      ],
      "name": "ExamPaperRegistered",
      "type": "event"
    },
    {
      "anonymous": false,
      "inputs": [
        {
          "indexed": true,
          "internalType": "address",
          "name": "previousOwner",
          "type": "address"
        },
        {
          "indexed": true,
          "internalType": "address",
          "name": "newOwner",
          "type": "address"
        }
      ],
      "name": "OwnershipTransferred",
      "type": "event"
    },
    {
      "anonymous": false,
      "inputs": [
        {
          "indexed": true,
          "internalType": "string",
          "name": "scholarshipId",
          "type": "string"
        },
        {
          "indexed": false,
          "internalType": "uint256",
          "name": "totalFund",
          "type": "uint256"
        }
      ],
      "name": "ScholarshipCreated",
      "type": "event"
    },
    {
      "anonymous": false,
      "inputs": [
        {
          "indexed": true,
          "internalType": "string",
          "name": "scholarshipId",
          "type": "string"
        },
        {
          "indexed": true,
          "internalType": "address",
          "name": "student",
          "type": "address"
        },
        {
          "indexed": false,
          "internalType": "uint256",
          "name": "amount",
          "type": "uint256"
        }
      ],
      "name": "ScholarshipDistributed",
      "type": "event"
    },
    {
      "inputs": [
        {
          "internalType": "string",
          "name": "scholarshipId",
          "type": "string"
        },
        {
          "internalType": "uint256",
          "name": "amountPerStudent",
          "type": "uint256"
        }
      ],
      "name": "createScholarship",
      "outputs": [],
      "stateMutability": "payable",
      "type": "function"
    },
    {
      "inputs": [
        {
          "internalType": "string",
          "name": "scholarshipId",
          "type": "string"
        },
        {
          "internalType": "address",
          "name": "student",
          "type": "address"
        }
      ],
      "name": "distributeScholarship",
      "outputs": [],
      "stateMutability": "nonpayable",
      "type": "function"
    },
    {
      "inputs": [
        {
          "internalType": "string",
          "name": "",
          "type": "string"
        }
      ],
      "name": "examPapers",
      "outputs": [
        {
          "internalType": "string",
          "name": "examId",
          "type": "string"
        },
        {
          "internalType": "string",
          "name": "paperHash",
          "type": "string"
        },
        {
          "internalType": "uint256",
          "name": "releaseTime",
          "type": "uint256"
        },
        {
          "internalType": "bool",
          "name": "exists",
          "type": "bool"
        }
      ],
      "stateMutability": "view",
      "type": "function"
    },
    {
      "inputs": [
        {
          "internalType": "string",
          "name": "examId",
          "type": "string"
        }
      ],
      "name": "getExamPaper",
      "outputs": [
        {
          "internalType": "string",
          "name": "",
          "type": "string"
        }
      ],
      "stateMutability": "view",
      "type": "function"
    },
    {
      "inputs": [],
      "name": "owner",
      "outputs": [
        {
          "internalType": "address",
          "name": "",
          "type": "address"
        }
      ],
      "stateMutability": "view",
      "type": "function"
    },
    {
      "inputs": [
        {
          "internalType": "string",
          "name": "examId",
          "type": "string"
        },
        {
          "internalType": "string",
          "name": "paperHash",
          "type": "string"
        },
        {
          "internalType": "uint256",
          "name": "releaseTime",
          "type": "uint256"
        }
      ],
      "name": "registerExamPaper",
      "outputs": [],
      "stateMutability": "nonpayable",
      "type": "function"
    },
    {
      "inputs": [],
      "name": "renounceOwnership",
      "outputs": [],
      "stateMutability": "nonpayable",
      "type": "function"
    },
    {
      "inputs": [
        {
          "internalType": "address",
          "name": "",
          "type": "address"
        },
        {
          "internalType": "string",
          "name": "",
          "type": "string"
        }
      ],
      "name": "scholarshipReceived",
      "outputs": [
        {
          "internalType": "bool",
          "name": "",
          "type": "bool"
        }
      ],
      "stateMutability": "view",
      "type": "function"
    },
    {
      "inputs": [
        {
          "internalType": "string",
          "name": "",
          "type": "string"
        }
      ],
      "name": "scholarships",
      "outputs": [
        {
          "internalType": "string",
          "name": "scholarshipId",
          "type": "string"
        },
        {
          "internalType": "uint256",
          "name": "totalFund",
          "type": "uint256"
        },
        {
          "internalType": "uint256",
          "name": "amountPerStudent",
          "type": "uint256"
        },
        {
          "internalType": "bool",
          "name": "isActive",
          "type": "bool"
        }
      ],
      "stateMutability": "view",
      "type": "function"
    },
    {
      "inputs": [
        {
          "internalType": "address",
          "name": "newOwner",
          "type": "address"
        }
      ],
      "name": "transferOwnership",
      "outputs": [],
      "stateMutability": "nonpayable",
      "type": "function"
    }
  ],
  "bytecode": "0x60806040523480156200001157600080fd5b5060405162001e9638038062001e968339818101604052810190620000379190620001f4565b80600073ffffffffffffffffffffffffffffffffffffffff168173ffffffffffffffffffffffffffffffffffffffff1603620000ad5760006040517f1e4fbdf7000000000000000000000000000000000000000000000000000000008152600401620000a4919062000237565b60405180910390fd5b620000be81620000c660201b60201c565b505062000254565b60008060009054906101000a900473ffffffffffffffffffffffffffffffffffffffff169050816000806101000a81548173ffffffffffffffffffffffffffffffffffffffff021916908373ffffffffffffffffffffffffffffffffffffffff1602179055508173ffffffffffffffffffffffffffffffffffffffff168173ffffffffffffffffffffffffffffffffffffffff167f8be0079c531659141344cd1fd0a4f28419497f9722a3daafe3b4186f6b6457e060405160405180910390a35050565b600080fd5b600073ffffffffffffffffffffffffffffffffffffffff82169050919050565b6000620001bc826200018f565b9050919050565b620001ce81620001af565b8114620001da57600080fd5b50565b600081519050620001ee81620001c3565b92915050565b6000602082840312156200020d576200020c6200018a565b5b60006200021d84828501620001dd565b91505092915050565b6200023181620001af565b82525050565b60006020820190506200024e600083018462000226565b92915050565b611c3280620002646000396000f3fe6080604052600436106100915760003560e01c80637acdaf65116100595780637acdaf651461017c5780638da5cb5b146101985780639d2d7cce146101c3578063a23b137a14610200578063f2fde38b1461024057610091565b8063260ccdc414610096578063268f5b77146100d357806345d922c814610113578063614a09e41461013c578063715018a614610165575b600080fd5b3480156100a257600080fd5b506100bd60048036038101906100b89190610f6b565b610269565b6040516100ca9190611048565b60405180910390f35b3480156100df57600080fd5b506100fa60048036038101906100f5919061119a565b61047c565b60405161010a9493929190611217565b60405180910390f35b34801561011f57600080fd5b5061013a6004803603810190610135919061128f565b610557565b005b34801561014857600080fd5b50610163600480360381019061015e9190611382565b6106da565b005b34801561017157600080fd5b5061017a610a03565b005b610196600480360381019061019191906113e2565b610a17565b005b3480156101a457600080fd5b506101ad610b48565b6040516101ba9190611451565b60405180910390f35b3480156101cf57600080fd5b506101ea60048036038101906101e5919061146c565b610b71565b6040516101f791906114c8565b60405180910390f35b34801561020c57600080fd5b506102276004803603810190610222919061119a565b610bb6565b60405161023794939291906114e3565b60405180910390f35b34801561024c57600080fd5b5061026760048036038101906102629190611536565b610d19565b005b606060006001848460405161027f929190611593565b90815260200160405180910390206040518060800160405290816000820180546102a8906115db565b80601f01602080910402602001604051908101604052809291908181526020018280546102d4906115db565b80156103215780601f106102f657610100808354040283529160200191610321565b820191906000526020600020905b81548152906001019060200180831161030457829003601f168201915b5050505050815260200160018201805461033a906115db565b80601f0160208091040260200160405190810160405280929190818152602001828054610366906115db565b80156103b35780601f10610388576101008083540402835291602001916103b3565b820191906000526020600020905b81548152906001019060200180831161039657829003601f168201915b50505050508152602001600282015481526020016003820160009054906101000a900460ff16151515158152505090508060600151610427576040517f08c379a000000000000000000000000000000000000000000000000000000000815260040161041e90611658565b60405180910390fd5b806040015142101561046e576040517f08c379a0000000000000000000000000000000000000000000000000000000008152600401610465906116c4565b60405180910390fd5b806020015191505092915050565b6002818051602081018201805184825260208301602085012081835280955050505050506000915090508060000180546104b5906115db565b80601f01602080910402602001604051908101604052809291908181526020018280546104e1906115db565b801561052e5780601f106105035761010080835404028352916020019161052e565b820191906000526020600020905b81548152906001019060200180831161051157829003601f168201915b5050505050908060010154908060020154908060030160009054906101000a900460ff16905084565b61055f610d9f565b604051806080016040528086868080601f016020809104026020016040519081016040528093929190818152602001838380828437600081840152601f19601f82011690508083019250505050505050815260200184848080601f016020809104026020016040519081016040528093929190818152602001838380828437600081840152601f19601f820116905080830192505050505050508152602001828152602001600115158152506001868660405161061d929190611593565b908152602001604051809103902060008201518160000190816106409190611890565b5060208201518160010190816106569190611890565b506040820151816002015560608201518160030160006101000a81548160ff0219169083151502179055509050508484604051610694929190611593565b60405180910390207f83f6ab7cf4306a27db2e9062f6499b2ec2426885855e41a7c68ac1ffdd3f8890826040516106cb9190611962565b60405180910390a25050505050565b6106e2610d9f565b6000600284846040516106f6929190611593565b908152602001604051809103902090508060030160009054906101000a900460ff16610757576040517f08c379a000000000000000000000000000000000000000000000000000000000815260040161074e906119c9565b60405180910390fd5b8060020154816001015410156107a2576040517f08c379a000000000000000000000000000000000000000000000000000000000815260040161079990611a5b565b60405180910390fd5b600360008373ffffffffffffffffffffffffffffffffffffffff1673ffffffffffffffffffffffffffffffffffffffff16815260200190815260200160002084846040516107f1929190611593565b908152602001604051809103902060009054906101000a900460ff161561084d576040517f08c379a000000000000000000000000000000000000000000000000000000000815260040161084490611ac7565b60405180910390fd5b80600201548160010160008282546108659190611b16565b925050819055506001600360008473ffffffffffffffffffffffffffffffffffffffff1673ffffffffffffffffffffffffffffffffffffffff16815260200190815260200160002085856040516108bd929190611593565b908152602001604051809103902060006101000a81548160ff02191690831515021790555060008273ffffffffffffffffffffffffffffffffffffffff16826002015460405161090c90611b7b565b60006040518083038185875af1925050503d8060008114610949576040519150601f19603f3d011682016040523d82523d6000602084013e61094e565b606091505b5050905080610992576040517f08c379a000000000000000000000000000000000000000000000000000000000815260040161098990611bdc565b60405180910390fd5b8273ffffffffffffffffffffffffffffffffffffffff1685856040516109b9929190611593565b60405180910390207f7450206346c99cf61e0015ab4db26583fd358ea41dd651d0cbeb59ccfeeb858c84600201546040516109f49190611962565b60405180910390a35050505050565b610a0b610d9f565b610a156000610e26565b565b610a1f610d9f565b604051806080016040528084848080601f016020809104026020016040519081016040528093929190818152602001838380828437600081840152601f19601f8201169050808301925050505050505081526020013481526020018281526020016001151581525060028484604051610a99929190611593565b90815260200160405180910390206000820151816000019081610abc9190611890565b50602082015181600101556040820151816002015560608201518160030160006101000a81548160ff0219169083151502179055509050508282604051610b04929190611593565b60405180910390207fcc1fdc5be1e2c9c4cc1652069d7f1cafe7cdea5f2fe37d6cdd2a577bdaecb92f34604051610b3b9190611962565b60405180910390a2505050565b60008060009054906101000a900473ffffffffffffffffffffffffffffffffffffffff16905090565b6003602052816000526040600020818051602081018201805184825260208301602085012081835280955050505050506000915091509054906101000a900460ff1681565b600181805160208101820180518482526020830160208501208183528095505050505050600091509050806000018054610bef906115db565b80601f0160208091040260200160405190810160405280929190818152602001828054610c1b906115db565b8015610c685780601f10610c3d57610100808354040283529160200191610c68565b820191906000526020600020905b815481529060010190602001808311610c4b57829003601f168201915b505050505090806001018054610c7d906115db565b80601f0160208091040260200160405190810160405280929190818152602001828054610ca9906115db565b8015610cf65780601f10610ccb57610100808354040283529160200191610cf6565b820191906000526020600020905b815481529060010190602001808311610cd957829003601f168201915b5050505050908060020154908060030160009054906101000a900460ff16905084565b610d21610d9f565b600073ffffffffffffffffffffffffffffffffffffffff168173ffffffffffffffffffffffffffffffffffffffff1603610d935760006040517f1e4fbdf7000000000000000000000000000000000000000000000000000000008152600401610d8a9190611451565b60405180910390fd5b610d9c81610e26565b50565b610da7610eea565b73ffffffffffffffffffffffffffffffffffffffff16610dc5610b48565b73ffffffffffffffffffffffffffffffffffffffff1614610e2457610de8610eea565b6040517f118cdaa7000000000000000000000000000000000000000000000000000000008152600401610e1b9190611451565b60405180910390fd5b565b60008060009054906101000a900473ffffffffffffffffffffffffffffffffffffffff169050816000806101000a81548173ffffffffffffffffffffffffffffffffffffffff021916908373ffffffffffffffffffffffffffffffffffffffff1602179055508173ffffffffffffffffffffffffffffffffffffffff168173ffffffffffffffffffffffffffffffffffffffff167f8be0079c531659141344cd1fd0a4f28419497f9722a3daafe3b4186f6b6457e060405160405180910390a35050565b600033905090565b6000604051905090565b600080fd5b600080fd5b600080fd5b600080fd5b600080fd5b60008083601f840112610f2b57610f2a610f06565b5b8235905067ffffffffffffffff811115610f4857610f47610f0b565b5b602083019150836001820283011115610f6457610f63610f10565b5b9250929050565b60008060208385031215610f8257610f81610efc565b5b600083013567ffffffffffffffff811115610fa057610f9f610f01565b5b610fac85828601610f15565b92509250509250929050565b600081519050919050565b600082825260208201905092915050565b60005b83811015610ff2578082015181840152602081019050610fd7565b60008484015250505050565b6000601f19601f8301169050919050565b600061101a82610fb8565b6110248185610fc3565b9350611034818560208601610fd4565b61103d81610ffe565b840191505092915050565b60006020820190508181036000830152611062818461100f565b905092915050565b600080fd5b7f4e487b7100000000000000000000000000000000000000000000000000000000600052604160045260246000fd5b6110a782610ffe565b810181811067ffffffffffffffff821117156110c6576110c561106f565b5b80604052505050565b60006110d9610ef2565b90506110e5828261109e565b919050565b600067ffffffffffffffff8211156111055761110461106f565b5b61110e82610ffe565b9050602081019050919050565b82818337600083830152505050565b600061113d611138846110ea565b6110cf565b9050828152602081018484840111156111595761115861106a565b5b61116484828561111b565b509392505050565b600082601f83011261118157611180610f06565b5b813561119184826020860161112a565b91505092915050565b6000602082840312156111b0576111af610efc565b5b600082013567ffffffffffffffff8111156111ce576111cd610f01565b5b6111da8482850161116c565b91505092915050565b6000819050919050565b6111f6816111e3565b82525050565b60008115159050919050565b611211816111fc565b82525050565b60006080820190508181036000830152611231818761100f565b905061124060208301866111ed565b61124d60408301856111ed565b61125a6060830184611208565b95945050505050565b61126c816111e3565b811461127757600080fd5b50565b60008135905061128981611263565b92915050565b6000806000806000606086880312156112ab576112aa610efc565b5b600086013567ffffffffffffffff8111156112c9576112c8610f01565b5b6112d588828901610f15565b9550955050602086013567ffffffffffffffff8111156112f8576112f7610f01565b5b61130488828901610f15565b935093505060406113178882890161127a565b9150509295509295909350565b600073ffffffffffffffffffffffffffffffffffffffff82169050919050565b600061134f82611324565b9050919050565b61135f81611344565b811461136a57600080fd5b50565b60008135905061137c81611356565b92915050565b60008060006040848603121561139b5761139a610efc565b5b600084013567ffffffffffffffff8111156113b9576113b8610f01565b5b6113c586828701610f15565b935093505060206113d88682870161136d565b9150509250925092565b6000806000604084860312156113fb576113fa610efc565b5b600084013567ffffffffffffffff81111561141957611418610f01565b5b61142586828701610f15565b935093505060206114388682870161127a565b9150509250925092565b61144b81611344565b82525050565b60006020820190506114666000830184611442565b92915050565b6000806040838503121561148357611482610efc565b5b60006114918582860161136d565b925050602083013567ffffffffffffffff8111156114b2576114b1610f01565b5b6114be8582860161116c565b9150509250929050565b60006020820190506114dd6000830184611208565b92915050565b600060808201905081810360008301526114fd818761100f565b90508181036020830152611511818661100f565b905061152060408301856111ed565b61152d6060830184611208565b95945050505050565b60006020828403121561154c5761154b610efc565b5b600061155a8482850161136d565b91505092915050565b600081905092915050565b600061157a8385611563565b935061158783858461111b565b82840190509392505050565b60006115a082848661156e565b91508190509392505050565b7f4e487b7100000000000000000000000000000000000000000000000000000000600052602260045260246000fd5b600060028204905060018216806115f357607f821691505b602082108103611606576116056115ac565b5b50919050565b7f4578616d20646f6573206e6f7420657869737400000000000000000000000000600082015250565b6000611642601383610fc3565b915061164d8261160c565b602082019050919050565b6000602082019050818103600083015261167181611635565b9050919050565b7f5061706572206e6f74207965742072656c656173656400000000000000000000600082015250565b60006116ae601683610fc3565b91506116b982611678565b602082019050919050565b600060208201905081810360008301526116dd816116a1565b9050919050565b60008190508160005260206000209050919050565b60006020601f8301049050919050565b600082821b905092915050565b6000600883026117467fffffffffffffffffffffffffffffffffffffffffffffffffffffffffffffffff82611709565b6117508683611709565b95508019841693508086168417925050509392505050565b6000819050919050565b600061178d611788611783846111e3565b611768565b6111e3565b9050919050565b6000819050919050565b6117a783611772565b6117bb6117b382611794565b848454611716565b825550505050565b600090565b6117d06117c3565b6117db81848461179e565b505050565b5b818110156117ff576117f46000826117c8565b6001810190506117e1565b5050565b601f82111561184457611815816116e4565b61181e846116f9565b8101602085101561182d578190505b611841611839856116f9565b8301826117e0565b50505b505050565b600082821c905092915050565b600061186760001984600802611849565b1980831691505092915050565b60006118808383611856565b9150826002028217905092915050565b61189982610fb8565b67ffffffffffffffff8111156118b2576118b161106f565b5b6118bc82546115db565b6118c7828285611803565b600060209050601f8311600181146118fa57600084156118e8578287015190505b6118f28582611874565b86555061195a565b601f198416611908866116e4565b60005b828110156119305784890151825560018201915060208501945060208101905061190b565b8683101561194d5784890151611949601f891682611856565b8355505b6001600288020188555050505b505050505050565b600060208201905061197760008301846111ed565b92915050565b7f5363686f6c617273686970206e6f742061637469766500000000000000000000600082015250565b60006119b3601683610fc3565b91506119be8261197d565b602082019050919050565b600060208201905081810360008301526119e2816119a6565b9050919050565b7f496e73756666696369656e742066756e647320696e207363686f6c617273686960008201527f7000000000000000000000000000000000000000000000000000000000000000602082015250565b6000611a45602183610fc3565b9150611a50826119e9565b604082019050919050565b60006020820190508181036000830152611a7481611a38565b9050919050565b7f416c726561647920726563656976656400000000000000000000000000000000600082015250565b6000611ab1601083610fc3565b9150611abc82611a7b565b602082019050919050565b60006020820190508181036000830152611ae081611aa4565b9050919050565b7f4e487b7100000000000000000000000000000000000000000000000000000000600052601160045260246000fd5b6000611b21826111e3565b9150611b2c836111e3565b9250828203905081811115611b4457611b43611ae7565b5b92915050565b600081905092915050565b50565b6000611b65600083611b4a565b9150611b7082611b55565b600082019050919050565b6000611b8682611b58565b9150819050919050565b7f446973747269627574696f6e206661696c656400000000000000000000000000600082015250565b6000611bc6601383610fc3565b9150611bd182611b90565b602082019050919050565b60006020820190508181036000830152611bf581611bb9565b905091905056fea26469706673582212207c1b5d7a95b38868080710525016f5a3de7f004a205699323140e10410944a5164736f6c63430008180033",
  "linkReferences": {},
  "deployedLinkReferences": {}
}