{"contracts/SmartCampusEquity.sol":{"SmartCampusEquity":{"abi":[{"inputs":[{"internalType":"address","name":"initialOwner","type":"address"}],"stateMutability":"nonpayable","type":"constructor"},{"inputs":[{"internalType":"address","name":"owner","type":"address"}],"name":"OwnableInvalidOwner","type":"error"},{"inputs":[{"internalType":"address","name":"account","type":"address"}],"name":"OwnableUnauthorizedAccount","type":"error"},{"anonymous":false,"inputs":[{"indexed":true,"internalType":"string","name":"startupId","type":"string"},{"indexed":false,"internalType":"string","name":"milestoneId","type":"string"},{"indexed":false,"internalType":"uint256","name":"amountReleased","type":"uint256"}],"name":"MilestoneAchieved","type":"event"},{"anonymous":false,"inputs":[{"indexed":true,"internalType":"address","name":"previousOwner","type":"address"},{"indexed":true,"internalType":"address","name":"newOwner","type":"address"}],"name":"OwnershipTransferred","type":"event"},{"anonymous":false,"inputs":[{"indexed":true,"internalType":"string","name":"startupId","type":"string"},{"indexed":false,"internalType":"address","name":"founder","type":"address"},{"indexed":false,"internalType":"uint256","name":"totalEquity","type":"uint256"}],"name":"StartupRegistered","type":"event"},{"inputs":[{"internalType":"string","name":"startupId","type":"string"},{"internalType":"uint256","name":"milestoneIndex","type":"uint256"}],"name":"achieveMilestone","outputs":[],"stateMutability":"nonpayable","type":"function"},{"inputs":[{"internalType":"string","name":"startupId","type":"string"},{"internalType":"string","name":"milestoneId","type":"string"},{"internalType":"string","name":"description","type":"string"},{"internalType":"uint256","name":"percentage","type":"uint256"}],"name":"addMilestone","outputs":[],"stateMutability":"nonpayable","type":"function"},{"inputs":[],"name":"owner","outputs":[{"internalType":"address","name":"","type":"address"}],"stateMutability":"view","type":"function"},{"inputs":[{"internalType":"string","name":"startupId","type":"string"},{"internalType":"address","name":"founder","type":"address"}],"name":"registerStartup","outputs":[],"stateMutability":"payable","type":"function"},{"inputs":[],"name":"renounceOwnership","outputs":[],"stateMutability":"nonpayable","type":"function"},{"inputs":[{"internalType":"address","name":"newOwner","type":"address"}],"name":"transferOwnership","outputs":[],"stateMutability":"nonpayable","type":"function"}],"evm":{"bytecode":{"linkReferences":{},"object":"60806040523480156200001157600080fd5b50604051620014fe380380620014fe8339818101604052810190620000379190620001f4565b80600073ffffffffffffffffffffffffffffffffffffffff168173ffffffffffffffffffffffffffffffffffffffff1603620000ad5760006040517f1e4fbdf7000000000000000000000000000000000000000000000000000000008152600401620000a4919062000237565b60405180910390fd5b620000be81620000c660201b60201c565b505062000254565b60008060009054906101000a900473ffffffffffffffffffffffffffffffffffffffff169050816000806101000a81548173ffffffffffffffffffffffffffffffffffffffff021916908373ffffffffffffffffffffffffffffffffffffffff1602179055508173ffffffffffffffffffffffffffffffffffffffff168173ffffffffffffffffffffffffffffffffffffffff167f8be0079c531659141344cd1fd0a4f28419497f9722a3daafe3b4186f6b6457e060405160405180910390a35050565b600080fd5b600073ffffffffffffffffffffffffffffffffffffffff82169050919050565b6000620001bc826200018f565b9050919050565b620001ce81620001af565b8114620001da57600080fd5b50565b600081519050620001ee81620001c3565b92915050565b6000602082840312156200020d576200020c6200018a565b5b60006200021d84828501620001dd565b91505092915050565b6200023181620001af565b82525050565b60006020820190506200024e600083018462000226565b92915050565b61129a80620002646000396000f3fe6080604052600436106100555760003560e01c80635d04acde1461005a578063604a6ba914610083578063715018a61461009f5780638da5cb5b146100b6578063af61ba38146100e1578063f2fde38b1461010a575b600080fd5b34801561006657600080fd5b50610081600480360381019061007c9190610873565b610133565b005b61009d6004803603810190610098919061099a565b6102a1565b005b3480156100ab57600080fd5b506100b4610398565b005b3480156100c257600080fd5b506100cb6103ac565b6040516100d89190610a09565b60405180910390f35b3480156100ed57600080fd5b5061010860048036038101906101039190610a24565b6103d5565b005b34801561011657600080fd5b50610131600480360381019061012c9190610a84565b6105f5565b005b61013b61067b565b60006001888860405161014f929190610af0565b90815260200160405180910390209050604051806080016040528087878080601f016020809104026020016040519081016040528093929190818152602001838380828437600081840152601f19601f82011690508083019250505050505050815260200185858080601f016020809104026020016040519081016040528093929190818152602001838380828437600081840152601f19601f820116905080830192505050505050508152602001838152602001600015158152508160040160008360050154815260200190815260200160002060008201518160000190816102399190610d4f565b50602082015181600101908161024f9190610d4f565b506040820151816002015560608201518160030160006101000a81548160ff02191690831515021790555090505080600501600081548092919061029290610e50565b91905055505050505050505050565b6102a961067b565b6000600184846040516102bd929190610af0565b9081526020016040518091039020905083838260000191826102e0929190610ea3565b50818160010160006101000a81548173ffffffffffffffffffffffffffffffffffffffff021916908373ffffffffffffffffffffffffffffffffffffffff16021790555034816002018190555060008160030181905550600081600501819055508383604051610351929190610af0565b60405180910390207f6ceb91086eb26f61f24bbbec1c2e154227bb2eb6c0be5d686feb65d9a257ac6f833460405161038a929190610f82565b60405180910390a250505050565b6103a061067b565b6103aa6000610702565b565b60008060009054906101000a900473ffffffffffffffffffffffffffffffffffffffff16905090565b6103dd61067b565b6000600184846040516103f1929190610af0565b90815260200160405180910390209050600081600401600084815260200190815260200160002090508060030160009054906101000a900460ff161561046c576040517f08c379a000000000000000000000000000000000000000000000000000000000815260040161046390611008565b60405180910390fd5b60018160030160006101000a81548160ff02191690831515021790555060006064826002015484600201546104a19190611028565b6104ab9190611099565b9050808360030160008282546104c191906110ca565b9250508190555060008360010160009054906101000a900473ffffffffffffffffffffffffffffffffffffffff1673ffffffffffffffffffffffffffffffffffffffff16826040516105129061112f565b60006040518083038185875af1925050503d806000811461054f576040519150601f19603f3d011682016040523d82523d6000602084013e610554565b606091505b5050905080610598576040517f08c379a000000000000000000000000000000000000000000000000000000000815260040161058f90611190565b60405180910390fd5b86866040516105a8929190610af0565b60405180910390207fdf32f6a4dcc746a824bb8e47947c5f37b66bf53336ae1ed83f4f4e852438d99c84600001846040516105e4929190611234565b60405180910390a250505050505050565b6105fd61067b565b600073ffffffffffffffffffffffffffffffffffffffff168173ffffffffffffffffffffffffffffffffffffffff160361066f5760006040517f1e4fbdf70000000000000000000000000000000000000000000000000000000081526004016106669190610a09565b60405180910390fd5b61067881610702565b50565b6106836107c6565b73ffffffffffffffffffffffffffffffffffffffff166106a16103ac565b73ffffffffffffffffffffffffffffffffffffffff1614610700576106c46107c6565b6040517f118cdaa70000000000000000000000000000000000000000000000000000000081526004016106f79190610a09565b60405180910390fd5b565b60008060009054906101000a900473ffffffffffffffffffffffffffffffffffffffff169050816000806101000a81548173ffffffffffffffffffffffffffffffffffffffff021916908373ffffffffffffffffffffffffffffffffffffffff1602179055508173ffffffffffffffffffffffffffffffffffffffff168173ffffffffffffffffffffffffffffffffffffffff167f8be0079c531659141344cd1fd0a4f28419497f9722a3daafe3b4186f6b6457e060405160405180910390a35050565b600033905090565b600080fd5b600080fd5b600080fd5b600080fd5b600080fd5b60008083601f8401126107fd576107fc6107d8565b5b8235905067ffffffffffffffff81111561081a576108196107dd565b5b602083019150836001820283011115610836576108356107e2565b5b9250929050565b6000819050919050565b6108508161083d565b811461085b57600080fd5b50565b60008135905061086d81610847565b92915050565b60008060008060008060006080888a031215610892576108916107ce565b5b600088013567ffffffffffffffff8111156108b0576108af6107d3565b5b6108bc8a828b016107e7565b9750975050602088013567ffffffffffffffff8111156108df576108de6107d3565b5b6108eb8a828b016107e7565b9550955050604088013567ffffffffffffffff81111561090e5761090d6107d3565b5b61091a8a828b016107e7565b9350935050606061092d8a828b0161085e565b91505092959891949750929550565b600073ffffffffffffffffffffffffffffffffffffffff82169050919050565b60006109678261093c565b9050919050565b6109778161095c565b811461098257600080fd5b50565b6000813590506109948161096e565b92915050565b6000806000604084860312156109b3576109b26107ce565b5b600084013567ffffffffffffffff8111156109d1576109d06107d3565b5b6109dd868287016107e7565b935093505060206109f086828701610985565b9150509250925092565b610a038161095c565b82525050565b6000602082019050610a1e60008301846109fa565b92915050565b600080600060408486031215610a3d57610a3c6107ce565b5b600084013567ffffffffffffffff811115610a5b57610a5a6107d3565b5b610a67868287016107e7565b93509350506020610a7a8682870161085e565b9150509250925092565b600060208284031215610a9a57610a996107ce565b5b6000610aa884828501610985565b91505092915050565b600081905092915050565b82818337600083830152505050565b6000610ad78385610ab1565b9350610ae4838584610abc565b82840190509392505050565b6000610afd828486610acb565b91508190509392505050565b600081519050919050565b7f4e487b7100000000000000000000000000000000000000000000000000000000600052604160045260246000fd5b7f4e487b7100000000000000000000000000000000000000000000000000000000600052602260045260246000fd5b60006002820490506001821680610b8a57607f821691505b602082108103610b9d57610b9c610b43565b5b50919050565b60008190508160005260206000209050919050565b60006020601f8301049050919050565b600082821b905092915050565b600060088302610c057fffffffffffffffffffffffffffffffffffffffffffffffffffffffffffffffff82610bc8565b610c0f8683610bc8565b95508019841693508086168417925050509392505050565b6000819050919050565b6000610c4c610c47610c428461083d565b610c27565b61083d565b9050919050565b6000819050919050565b610c6683610c31565b610c7a610c7282610c53565b848454610bd5565b825550505050565b600090565b610c8f610c82565b610c9a818484610c5d565b505050565b5b81811015610cbe57610cb3600082610c87565b600181019050610ca0565b5050565b601f821115610d0357610cd481610ba3565b610cdd84610bb8565b81016020851015610cec578190505b610d00610cf885610bb8565b830182610c9f565b50505b505050565b600082821c905092915050565b6000610d2660001984600802610d08565b1980831691505092915050565b6000610d3f8383610d15565b9150826002028217905092915050565b610d5882610b09565b67ffffffffffffffff811115610d7157610d70610b14565b5b610d7b8254610b72565b610d86828285610cc2565b600060209050601f831160018114610db95760008415610da7578287015190505b610db18582610d33565b865550610e19565b601f198416610dc786610ba3565b60005b82811015610def57848901518255600182019150602085019450602081019050610dca565b86831015610e0c5784890151610e08601f891682610d15565b8355505b6001600288020188555050505b505050505050565b7f4e487b7100000000000000000000000000000000000000000000000000000000600052601160045260246000fd5b6000610e5b8261083d565b91507fffffffffffffffffffffffffffffffffffffffffffffffffffffffffffffffff8203610e8d57610e8c610e21565b5b600182019050919050565b600082905092915050565b610ead8383610e98565b67ffffffffffffffff811115610ec657610ec5610b14565b5b610ed08254610b72565b610edb828285610cc2565b6000601f831160018114610f0a5760008415610ef8578287013590505b610f028582610d33565b865550610f6a565b601f198416610f1886610ba3565b60005b82811015610f4057848901358255600182019150602085019450602081019050610f1b565b86831015610f5d5784890135610f59601f891682610d15565b8355505b6001600288020188555050505b50505050505050565b610f7c8161083d565b82525050565b6000604082019050610f9760008301856109fa565b610fa46020830184610f73565b9392505050565b600082825260208201905092915050565b7f416c726561647920616368696576656400000000000000000000000000000000600082015250565b6000610ff2601083610fab565b9150610ffd82610fbc565b602082019050919050565b6000602082019050818103600083015261102181610fe5565b9050919050565b60006110338261083d565b915061103e8361083d565b925082820261104c8161083d565b9150828204841483151761106357611062610e21565b5b5092915050565b7f4e487b7100000000000000000000000000000000000000000000000000000000600052601260045260246000fd5b60006110a48261083d565b91506110af8361083d565b9250826110bf576110be61106a565b5b828204905092915050565b60006110d58261083d565b91506110e08361083d565b92508282019050808211156110f8576110f7610e21565b5b92915050565b600081905092915050565b50565b60006111196000836110fe565b915061112482611109565b600082019050919050565b600061113a8261110c565b9150819050919050565b7f4571756974792072656c65617365206661696c65640000000000000000000000600082015250565b600061117a601583610fab565b915061118582611144565b602082019050919050565b600060208201905081810360008301526111a98161116d565b9050919050565b600081546111bd81610b72565b6111c78186610fab565b945060018216600081146111e257600181146111f85761122b565b60ff19831686528115156020028601935061122b565b61120185610ba3565b60005b8381101561122357815481890152600182019150602081019050611204565b808801955050505b50505092915050565b6000604082019050818103600083015261124e81856111b0565b905061125d6020830184610f73565b939250505056fea2646970667358221220e5f234d370c97dfcd64a9e11b648df72ae4b4093d5eb047e65ce792d784f3b9964736f6c63430008180033","opcodes":"PUSH1 0x80 PUSH1 0x40 MSTORE CALLVALUE DUP1 ISZERO PUSH3 0x11 JUMPI PUSH1 0x0 DUP1 REVERT JUMPDEST POP PUSH1 0x40 MLOAD PUSH3 0x14FE CODESIZE SUB DUP1 PUSH3 0x14FE DUP4 CODECOPY DUP2 DUP2 ADD PUSH1 0x40 MSTORE DUP2 ADD SWAP1 PUSH3 0x37 SWAP2 SWAP1 PUSH3 0x1F4 JUMP JUMPDEST DUP1 PUSH1 0x0 PUSH20 0xFFFFFFFFFFFFFFFFFFFFFFFFFFFFFFFFFFFFFFFF AND DUP2 PUSH20 0xFFFFFFFFFFFFFFFFFFFFFFFFFFFFFFFFFFFFFFFF AND SUB PUSH3 0xAD JUMPI PUSH1 0x0 PUSH1 0x40 MLOAD PUSH32 0x1E4FBDF700000000000000000000000000000000000000000000000000000000 DUP2 MSTORE PUSH1 0x4 ADD PUSH3 0xA4 SWAP2 SWAP1 PUSH3 0x237 JUMP JUMPDEST PUSH1 0x40 MLOAD DUP1 SWAP2 SUB SWAP1 REVERT JUMPDEST PUSH3 0xBE DUP2 PUSH3 0xC6 PUSH1 0x20 SHL PUSH1 0x20 SHR JUMP JUMPDEST POP POP PUSH3 0x254 JUMP JUMPDEST PUSH1 0x0 DUP1 PUSH1 0x0 SWAP1 SLOAD SWAP1 PUSH2 0x100 EXP SWAP1 DIV PUSH20 0xFFFFFFFFFFFFFFFFFFFFFFFFFFFFFFFFFFFFFFFF AND SWAP1 POP DUP2 PUSH1 0x0 DUP1 PUSH2 0x100 EXP DUP2 SLOAD DUP2 PUSH20 0xFFFFFFFFFFFFFFFFFFFFFFFFFFFFFFFFFFFFFFFF MUL NOT AND SWAP1 DUP4 PUSH20 0xFFFFFFFFFFFFFFFFFFFFFFFFFFFFFFFFFFFFFFFF AND MUL OR SWAP1 SSTORE POP DUP2 PUSH20 0xFFFFFFFFFFFFFFFFFFFFFFFFFFFFFFFFFFFFFFFF AND DUP2 PUSH20 0xFFFFFFFFFFFFFFFFFFFFFFFFFFFFFFFFFFFFFFFF AND PUSH32 0x8BE0079C531659141344CD1FD0A4F28419497F9722A3DAAFE3B4186F6B6457E0 PUSH1 0x40 MLOAD PUSH1 0x40 MLOAD DUP1 SWAP2 SUB SWAP1 LOG3 POP POP JUMP JUMPDEST PUSH1 0x0 DUP1 REVERT JUMPDEST PUSH1 0x0 PUSH20 0xFFFFFFFFFFFFFFFFFFFFFFFFFFFFFFFFFFFFFFFF DUP3 AND SWAP1 POP SWAP2 SWAP1 POP JUMP JUMPDEST PUSH1 0x0 PUSH3 0x1BC DUP3 PUSH3 0x18F JUMP JUMPDEST SWAP1 POP SWAP2 SWAP1 POP JUMP JUMPDEST PUSH3 0x1CE DUP2 PUSH3 0x1AF JUMP JUMPDEST DUP2 EQ PUSH3 0x1DA JUMPI PUSH1 0x0 DUP1 REVERT JUMPDEST POP JUMP JUMPDEST PUSH1 0x0 DUP2 MLOAD SWAP1 POP PUSH3 0x1EE DUP2 PUSH3 0x1C3 JUMP JUMPDEST SWAP3 SWAP2 POP POP JUMP JUMPDEST PUSH1 0x0 PUSH1 0x20 DUP3 DUP5 SUB SLT ISZERO PUSH3 0x20D JUMPI PUSH3 0x20C PUSH3 0x18A JUMP JUMPDEST JUMPDEST PUSH1 0x0 PUSH3 0x21D DUP5 DUP3 DUP6 ADD PUSH3 0x1DD JUMP JUMPDEST SWAP2 POP POP SWAP3 SWAP2 POP POP JUMP JUMPDEST PUSH3 0x231 DUP2 PUSH3 0x1AF JUMP JUMPDEST DUP3 MSTORE POP POP JUMP JUMPDEST PUSH1 0x0 PUSH1 0x20 DUP3 ADD SWAP1 POP PUSH3 0x24E PUSH1 0x0 DUP4 ADD DUP5 PUSH3 0x226 JUMP JUMPDEST SWAP3 SWAP2 POP POP JUMP JUMPDEST PUSH2 0x129A DUP1 PUSH3 0x264 PUSH1 0x0 CODECOPY PUSH1 0x0 RETURN INVALID PUSH1 0x80 PUSH1 0x40 MSTORE PUSH1 0x4 CALLDATASIZE LT PUSH2 0x55 JUMPI PUSH1 0x0 CALLDATALOAD PUSH1 0xE0 SHR DUP1 PUSH4 0x5D04ACDE EQ PUSH2 0x5A JUMPI DUP1 PUSH4 0x604A6BA9 EQ PUSH2 0x83 JUMPI DUP1 PUSH4 0x715018A6 EQ PUSH2 0x9F JUMPI DUP1 PUSH4 0x8DA5CB5B EQ PUSH2 0xB6 JUMPI DUP1 PUSH4 0xAF61BA38 EQ PUSH2 0xE1 JUMPI DUP1 PUSH4 0xF2FDE38B EQ PUSH2 0x10A JUMPI JUMPDEST PUSH1 0x0 DUP1 REVERT JUMPDEST CALLVALUE DUP1 ISZERO PUSH2 0x66 JUMPI PUSH1 0x0 DUP1 REVERT JUMPDEST POP PUSH2 0x81 PUSH1 0x4 DUP1 CALLDATASIZE SUB DUP2 ADD SWAP1 PUSH2 0x7C SWAP2 SWAP1 PUSH2 0x873 JUMP JUMPDEST PUSH2 0x133 JUMP JUMPDEST STOP JUMPDEST PUSH2 0x9D PUSH1 0x4 DUP1 CALLDATASIZE SUB DUP2 ADD SWAP1 PUSH2 0x98 SWAP2 SWAP1 PUSH2 0x99A JUMP JUMPDEST PUSH2 0x2A1 JUMP JUMPDEST STOP JUMPDEST CALLVALUE DUP1 ISZERO PUSH2 0xAB JUMPI PUSH1 0x0 DUP1 REVERT JUMPDEST POP PUSH2 0xB4 PUSH2 0x398 JUMP JUMPDEST STOP JUMPDEST CALLVALUE DUP1 ISZERO PUSH2 0xC2 JUMPI PUSH1 0x0 DUP1 REVERT JUMPDEST POP PUSH2 0xCB PUSH2 0x3AC JUMP JUMPDEST PUSH1 0x40 MLOAD PUSH2 0xD8 SWAP2 SWAP1 PUSH2 0xA09 JUMP JUMPDEST PUSH1 0x40 MLOAD DUP1 SWAP2 SUB SWAP1 RETURN JUMPDEST CALLVALUE DUP1 ISZERO PUSH2 0xED JUMPI PUSH1 0x0 DUP1 REVERT JUMPDEST POP PUSH2 0x108 PUSH1 0x4 DUP1 CALLDATASIZE SUB DUP2 ADD SWAP1 PUSH2 0x103 SWAP2 SWAP1 PUSH2 0xA24 JUMP JUMPDEST PUSH2 0x3D5 JUMP JUMPDEST STOP JUMPDEST CALLVALUE DUP1 ISZERO PUSH2 0x116 JUMPI PUSH1 0x0 DUP1 REVERT JUMPDEST POP PUSH2 0x131 PUSH1 0x4 DUP1 CALLDATASIZE SUB DUP2 ADD SWAP1 PUSH2 0x12C SWAP2 SWAP1 PUSH2 0xA84 JUMP JUMPDEST PUSH2 0x5F5 JUMP JUMPDEST STOP JUMPDEST PUSH2 0x13B PUSH2 0x67B JUMP JUMPDEST PUSH1 0x0 PUSH1 0x1 DUP9 DUP9 PUSH1 0x40 MLOAD PUSH2 0x14F SWAP3 SWAP2 SWAP1 PUSH2 0xAF0 JUMP JUMPDEST SWAP1 DUP2 MSTORE PUSH1 0x20 ADD PUSH1 0x40 MLOAD DUP1 SWAP2 SUB SWAP1 KECCAK256 SWAP1 POP PUSH1 0x40 MLOAD DUP1 PUSH1 0x80 ADD PUSH1 0x40 MSTORE DUP1 DUP8 DUP8 DUP1 DUP1 PUSH1 0x1F ADD PUSH1 0x20 DUP1 SWAP2 DIV MUL PUSH1 0x20 ADD PUSH1 0x40 MLOAD SWAP1 DUP2 ADD PUSH1 0x40 MSTORE DUP1 SWAP4 SWAP3 SWAP2 SWAP1 DUP2 DUP2 MSTORE PUSH1 0x20 ADD DUP4 DUP4 DUP1 DUP3 DUP5 CALLDATACOPY PUSH1 0x0 DUP2 DUP5 ADD MSTORE PUSH1 0x1F NOT PUSH1 0x1F DUP3 ADD AND SWAP1 POP DUP1 DUP4 ADD SWAP3 POP POP POP POP POP POP POP DUP2 MSTORE PUSH1 0x20 ADD DUP6 DUP6 DUP1 DUP1 PUSH1 0x1F ADD PUSH1 0x20 DUP1 SWAP2 DIV MUL PUSH1 0x20 ADD PUSH1 0x40 MLOAD SWAP1 DUP2 ADD PUSH1 0x40 MSTORE DUP1 SWAP4 SWAP3 SWAP2 SWAP1 DUP2 DUP2 MSTORE PUSH1 0x20 ADD DUP4 DUP4 DUP1 DUP3 DUP5 CALLDATACOPY PUSH1 0x0 DUP2 DUP5 ADD MSTORE PUSH1 0x1F NOT PUSH1 0x1F DUP3 ADD AND SWAP1 POP DUP1 DUP4 ADD SWAP3 POP POP POP POP POP POP POP DUP2 MSTORE PUSH1 0x20 ADD DUP4 DUP2 MSTORE PUSH1 0x20 ADD PUSH1 0x0 ISZERO ISZERO DUP2 MSTORE POP DUP2 PUSH1 0x4 ADD PUSH1 0x0 DUP4 PUSH1 0x5 ADD SLOAD DUP2 MSTORE PUSH1 0x20 ADD SWAP1 DUP2 MSTORE PUSH1 0x20 ADD PUSH1 0x0 KECCAK256 PUSH1 0x0 DUP3 ADD MLOAD DUP2 PUSH1 0x0 ADD SWAP1 DUP2 PUSH2 0x239 SWAP2 SWAP1 PUSH2 0xD4F JUMP JUMPDEST POP PUSH1 0x20 DUP3 ADD MLOAD DUP2 PUSH1 0x1 ADD SWAP1 DUP2 PUSH2 0x24F SWAP2 SWAP1 PUSH2 0xD4F JUMP JUMPDEST POP PUSH1 0x40 DUP3 ADD MLOAD DUP2 PUSH1 0x2 ADD SSTORE PUSH1 0x60 DUP3 ADD MLOAD DUP2 PUSH1 0x3 ADD PUSH1 0x0 PUSH2 0x100 EXP DUP2 SLOAD DUP2 PUSH1 0xFF MUL NOT AND SWAP1 DUP4 ISZERO ISZERO MUL OR SWAP1 SSTORE POP SWAP1 POP POP DUP1 PUSH1 0x5 ADD PUSH1 0x0 DUP2 SLOAD DUP1 SWAP3 SWAP2 SWAP1 PUSH2 0x292 SWAP1 PUSH2 0xE50 JUMP JUMPDEST SWAP2 SWAP1 POP SSTORE POP POP POP POP POP POP POP POP POP JUMP JUMPDEST PUSH2 0x2A9 PUSH2 0x67B JUMP JUMPDEST PUSH1 0x0 PUSH1 0x1 DUP5 DUP5 PUSH1 0x40 MLOAD PUSH2 0x2BD SWAP3 SWAP2 SWAP1 PUSH2 0xAF0 JUMP JUMPDEST SWAP1 DUP2 MSTORE PUSH1 0x20 ADD PUSH1 0x40 MLOAD DUP1 SWAP2 SUB SWAP1 KECCAK256 SWAP1 POP DUP4 DUP4 DUP3 PUSH1 0x0 ADD SWAP2 DUP3 PUSH2 0x2E0 SWAP3 SWAP2 SWAP1 PUSH2 0xEA3 JUMP JUMPDEST POP DUP2 DUP2 PUSH1 0x1 ADD PUSH1 0x0 PUSH2 0x100 EXP DUP2 SLOAD DUP2 PUSH20 0xFFFFFFFFFFFFFFFFFFFFFFFFFFFFFFFFFFFFFFFF MUL NOT AND SWAP1 DUP4 PUSH20 0xFFFFFFFFFFFFFFFFFFFFFFFFFFFFFFFFFFFFFFFF AND MUL OR SWAP1 SSTORE POP CALLVALUE DUP2 PUSH1 0x2 ADD DUP2 SWAP1 SSTORE POP PUSH1 0x0 DUP2 PUSH1 0x3 ADD DUP2 SWAP1 SSTORE POP PUSH1 0x0 DUP2 PUSH1 0x5 ADD DUP2 SWAP1 SSTORE POP DUP4 DUP4 PUSH1 0x40 MLOAD PUSH2 0x351 SWAP3 SWAP2 SWAP1 PUSH2 0xAF0 JUMP JUMPDEST PUSH1 0x40 MLOAD DUP1 SWAP2 SUB SWAP1 KECCAK256 PUSH32 0x6CEB91086EB26F61F24BBBEC1C2E154227BB2EB6C0BE5D686FEB65D9A257AC6F DUP4 CALLVALUE PUSH1 0x40 MLOAD PUSH2 0x38A SWAP3 SWAP2 SWAP1 PUSH2 0xF82 JUMP JUMPDEST PUSH1 0x40 MLOAD DUP1 SWAP2 SUB SWAP1 LOG2 POP POP POP POP JUMP JUMPDEST PUSH2 0x3A0 PUSH2 0x67B JUMP JUMPDEST PUSH2 0x3AA PUSH1 0x0 PUSH2 0x702 JUMP JUMPDEST JUMP JUMPDEST PUSH1 0x0 DUP1 PUSH1 0x0 SWAP1 SLOAD SWAP1 PUSH2 0x100 EXP SWAP1 DIV PUSH20 0xFFFFFFFFFFFFFFFFFFFFFFFFFFFFFFFFFFFFFFFF AND SWAP1 POP SWAP1 JUMP JUMPDEST PUSH2 0x3DD PUSH2 0x67B JUMP JUMPDEST PUSH1 0x0 PUSH1 0x1 DUP5 DUP5 PUSH1 0x40 MLOAD PUSH2 0x3F1 SWAP3 SWAP2 SWAP1 PUSH2 0xAF0 JUMP JUMPDEST SWAP1 DUP2 MSTORE PUSH1 0x20 ADD PUSH1 0x40 MLOAD DUP1 SWAP2 SUB SWAP1 KECCAK256 SWAP1 POP PUSH1 0x0 DUP2 PUSH1 0x4 ADD PUSH1 0x0 DUP5 DUP2 MSTORE PUSH1 0x20 ADD SWAP1 DUP2 MSTORE PUSH1 0x20 ADD PUSH1 0x0 KECCAK256 SWAP1 POP DUP1 PUSH1 0x3 ADD PUSH1 0x0 SWAP1 SLOAD SWAP1 PUSH2 0x100 EXP SWAP1 DIV PUSH1 0xFF AND ISZERO PUSH2 0x46C JUMPI PUSH1 0x40 MLOAD PUSH32 0x8C379A000000000000000000000000000000000000000000000000000000000 DUP2 MSTORE PUSH1 0x4 ADD PUSH2 0x463 SWAP1 PUSH2 0x1008 JUMP JUMPDEST PUSH1 0x40 MLOAD DUP1 SWAP2 SUB SWAP1 REVERT JUMPDEST PUSH1 0x1 DUP2 PUSH1 0x3 ADD PUSH1 0x0 PUSH2 0x100 EXP DUP2 SLOAD DUP2 PUSH1 0xFF MUL NOT AND SWAP1 DUP4 ISZERO ISZERO MUL OR SWAP1 SSTORE POP PUSH1 0x0 PUSH1 0x64 DUP3 PUSH1 0x2 ADD SLOAD DUP5 PUSH1 0x2 ADD SLOAD PUSH2 0x4A1 SWAP2 SWAP1 PUSH2 0x1028 JUMP JUMPDEST PUSH2 0x4AB SWAP2 SWAP1 PUSH2 0x1099 JUMP JUMPDEST SWAP1 POP DUP1 DUP4 PUSH1 0x3 ADD PUSH1 0x0 DUP3 DUP3 SLOAD PUSH2 0x4C1 SWAP2 SWAP1 PUSH2 0x10CA JUMP JUMPDEST SWAP3 POP POP DUP2 SWAP1 SSTORE POP PUSH1 0x0 DUP4 PUSH1 0x1 ADD PUSH1 0x0 SWAP1 SLOAD SWAP1 PUSH2 0x100 EXP SWAP1 DIV PUSH20 0xFFFFFFFFFFFFFFFFFFFFFFFFFFFFFFFFFFFFFFFF AND PUSH20 0xFFFFFFFFFFFFFFFFFFFFFFFFFFFFFFFFFFFFFFFF AND DUP3 PUSH1 0x40 MLOAD PUSH2 0x512 SWAP1 PUSH2 0x112F JUMP JUMPDEST PUSH1 0x0 PUSH1 0x40 MLOAD DUP1 DUP4 SUB DUP2 DUP6 DUP8 GAS CALL SWAP3 POP POP POP RETURNDATASIZE DUP1 PUSH1 0x0 DUP2 EQ PUSH2 0x54F JUMPI PUSH1 0x40 MLOAD SWAP2 POP PUSH1 0x1F NOT PUSH1 0x3F RETURNDATASIZE ADD AND DUP3 ADD PUSH1 0x40 MSTORE RETURNDATASIZE DUP3 MSTORE RETURNDATASIZE PUSH1 0x0 PUSH1 0x20 DUP5 ADD RETURNDATACOPY PUSH2 0x554 JUMP JUMPDEST PUSH1 0x60 SWAP2 POP JUMPDEST POP POP SWAP1 POP DUP1 PUSH2 0x598 JUMPI PUSH1 0x40 MLOAD PUSH32 0x8C379A000000000000000000000000000000000000000000000000000000000 DUP2 MSTORE PUSH1 0x4 ADD PUSH2 0x58F SWAP1 PUSH2 0x1190 JUMP JUMPDEST PUSH1 0x40 MLOAD DUP1 SWAP2 SUB SWAP1 REVERT JUMPDEST DUP7 DUP7 PUSH1 0x40 MLOAD PUSH2 0x5A8 SWAP3 SWAP2 SWAP1 PUSH2 0xAF0 JUMP JUMPDEST PUSH1 0x40 MLOAD DUP1 SWAP2 SUB SWAP1 KECCAK256 PUSH32 0xDF32F6A4DCC746A824BB8E47947C5F37B66BF53336AE1ED83F4F4E852438D99C DUP5 PUSH1 0x0 ADD DUP5 PUSH1 0x40 MLOAD PUSH2 0x5E4 SWAP3 SWAP2 SWAP1 PUSH2 0x1234 JUMP JUMPDEST PUSH1 0x40 MLOAD DUP1 SWAP2 SUB SWAP1 LOG2 POP POP POP POP POP POP POP JUMP JUMPDEST PUSH2 0x5FD PUSH2 0x67B JUMP JUMPDEST PUSH1 0x0 PUSH20 0xFFFFFFFFFFFFFFFFFFFFFFFFFFFFFFFFFFFFFFFF AND DUP2 PUSH20 0xFFFFFFFFFFFFFFFFFFFFFFFFFFFFFFFFFFFFFFFF AND SUB PUSH2 0x66F JUMPI PUSH1 0x0 PUSH1 0x40 MLOAD PUSH32 0x1E4FBDF700000000000000000000000000000000000000000000000000000000 DUP2 MSTORE PUSH1 0x4 ADD PUSH2 0x666 SWAP2 SWAP1 PUSH2 0xA09 JUMP JUMPDEST PUSH1 0x40 MLOAD DUP1 SWAP2 SUB SWAP1 REVERT JUMPDEST PUSH2 0x678 DUP2 PUSH2 0x702 JUMP JUMPDEST POP JUMP JUMPDEST PUSH2 0x683 PUSH2 0x7C6 JUMP JUMPDEST PUSH20 0xFFFFFFFFFFFFFFFFFFFFFFFFFFFFFFFFFFFFFFFF AND PUSH2 0x6A1 PUSH2 0x3AC JUMP JUMPDEST PUSH20 0xFFFFFFFFFFFFFFFFFFFFFFFFFFFFFFFFFFFFFFFF AND EQ PUSH2 0x700 JUMPI PUSH2 0x6C4 PUSH2 0x7C6 JUMP JUMPDEST PUSH1 0x40 MLOAD PUSH32 0x118CDAA700000000000000000000000000000000000000000000000000000000 DUP2 MSTORE PUSH1 0x4 ADD PUSH2 0x6F7 SWAP2 SWAP1 PUSH2 0xA09 JUMP JUMPDEST PUSH1 0x40 MLOAD DUP1 SWAP2 SUB SWAP1 REVERT JUMPDEST JUMP JUMPDEST PUSH1 0x0 DUP1 PUSH1 0x0 SWAP1 SLOAD SWAP1 PUSH2 0x100 EXP SWAP1 DIV PUSH20 0xFFFFFFFFFFFFFFFFFFFFFFFFFFFFFFFFFFFFFFFF AND SWAP1 POP DUP2 PUSH1 0x0 DUP1 PUSH2 0x100 EXP DUP2 SLOAD DUP2 PUSH20 0xFFFFFFFFFFFFFFFFFFFFFFFFFFFFFFFFFFFFFFFF MUL NOT AND SWAP1 DUP4 PUSH20 0xFFFFFFFFFFFFFFFFFFFFFFFFFFFFFFFFFFFFFFFF AND MUL OR SWAP1 SSTORE POP DUP2 PUSH20 0xFFFFFFFFFFFFFFFFFFFFFFFFFFFFFFFFFFFFFFFF AND DUP2 PUSH20 0xFFFFFFFFFFFFFFFFFFFFFFFFFFFFFFFFFFFFFFFF AND PUSH32 0x8BE0079C531659141344CD1FD0A4F28419497F9722A3DAAFE3B4186F6B6457E0 PUSH1 0x40 MLOAD PUSH1 0x40 MLOAD DUP1 SWAP2 SUB SWAP1 LOG3 POP POP JUMP JUMPDEST PUSH1 0x0 CALLER SWAP1 POP SWAP1 JUMP JUMPDEST PUSH1 0x0 DUP1 REVERT JUMPDEST PUSH1 0x0 DUP1 REVERT JUMPDEST PUSH1 0x0 DUP1 REVERT JUMPDEST PUSH1 0x0 DUP1 REVERT JUMPDEST PUSH1 0x0 DUP1 REVERT JUMPDEST PUSH1 0x0 DUP1 DUP4 PUSH1 0x1F DUP5 ADD SLT PUSH2 0x7FD JUMPI PUSH2 0x7FC PUSH2 0x7D8 JUMP JUMPDEST JUMPDEST DUP3 CALLDATALOAD SWAP1 POP PUSH8 0xFFFFFFFFFFFFFFFF DUP2 GT ISZERO PUSH2 0x81A JUMPI PUSH2 0x819 PUSH2 0x7DD JUMP JUMPDEST JUMPDEST PUSH1 0x20 DUP4 ADD SWAP2 POP DUP4 PUSH1 0x1 DUP3 MUL DUP4 ADD GT ISZERO PUSH2 0x836 JUMPI PUSH2 0x835 PUSH2 0x7E2 JUMP JUMPDEST JUMPDEST SWAP3 POP SWAP3 SWAP1 POP JUMP JUMPDEST PUSH1 0x0 DUP2 SWAP1 POP SWAP2 SWAP1 POP JUMP JUMPDEST PUSH2 0x850 DUP2 PUSH2 0x83D JUMP JUMPDEST DUP2 EQ PUSH2 0x85B JUMPI PUSH1 0x0 DUP1 REVERT JUMPDEST POP JUMP JUMPDEST PUSH1 0x0 DUP2 CALLDATALOAD SWAP1 POP PUSH2 0x86D DUP2 PUSH2 0x847 JUMP JUMPDEST SWAP3 SWAP2 POP POP JUMP JUMPDEST PUSH1 0x0 DUP1 PUSH1 0x0 DUP1 PUSH1 0x0 DUP1 PUSH1 0x0 PUSH1 0x80 DUP9 DUP11 SUB SLT ISZERO PUSH2 0x892 JUMPI PUSH2 0x891 PUSH2 0x7CE JUMP JUMPDEST JUMPDEST PUSH1 0x0 DUP9 ADD CALLDATALOAD PUSH8 0xFFFFFFFFFFFFFFFF DUP2 GT ISZERO PUSH2 0x8B0 JUMPI PUSH2 0x8AF PUSH2 0x7D3 JUMP JUMPDEST JUMPDEST PUSH2 0x8BC DUP11 DUP3 DUP12 ADD PUSH2 0x7E7 JUMP JUMPDEST SWAP8 POP SWAP8 POP POP PUSH1 0x20 DUP9 ADD CALLDATALOAD PUSH8 0xFFFFFFFFFFFFFFFF DUP2 GT ISZERO PUSH2 0x8DF JUMPI PUSH2 0x8DE PUSH2 0x7D3 JUMP JUMPDEST JUMPDEST PUSH2 0x8EB DUP11 DUP3 DUP12 ADD PUSH2 0x7E7 JUMP JUMPDEST SWAP6 POP SWAP6 POP POP PUSH1 0x40 DUP9 ADD CALLDATALOAD PUSH8 0xFFFFFFFFFFFFFFFF DUP2 GT ISZERO PUSH2 0x90E JUMPI PUSH2 0x90D PUSH2 0x7D3 JUMP JUMPDEST JUMPDEST PUSH2 0x91A DUP11 DUP3 DUP12 ADD PUSH2 0x7E7 JUMP JUMPDEST SWAP4 POP SWAP4 POP POP PUSH1 0x60 PUSH2 0x92D DUP11 DUP3 DUP12 ADD PUSH2 0x85E JUMP JUMPDEST SWAP2 POP POP SWAP3 SWAP6 SWAP9 SWAP2 SWAP5 SWAP8 POP SWAP3 SWAP6 POP JUMP JUMPDEST PUSH1 0x0 PUSH20 0xFFFFFFFFFFFFFFFFFFFFFFFFFFFFFFFFFFFFFFFF DUP3 AND SWAP1 POP SWAP2 SWAP1 POP JUMP JUMPDEST PUSH1 0x0 PUSH2 0x967 DUP3 PUSH2 0x93C JUMP JUMPDEST SWAP1 POP SWAP2 SWAP1 POP JUMP JUMPDEST PUSH2 0x977 DUP2 PUSH2 0x95C JUMP JUMPDEST DUP2 EQ PUSH2 0x982 JUMPI PUSH1 0x0 DUP1 REVERT JUMPDEST POP JUMP JUMPDEST PUSH1 0x0 DUP2 CALLDATALOAD SWAP1 POP PUSH2 0x994 DUP2 PUSH2 0x96E JUMP JUMPDEST SWAP3 SWAP2 POP POP JUMP JUMPDEST PUSH1 0x0 DUP1 PUSH1 0x0 PUSH1 0x40 DUP5 DUP7 SUB SLT ISZERO PUSH2 0x9B3 JUMPI PUSH2 0x9B2 PUSH2 0x7CE JUMP JUMPDEST JUMPDEST PUSH1 0x0 DUP5 ADD CALLDATALOAD PUSH8 0xFFFFFFFFFFFFFFFF DUP2 GT ISZERO PUSH2 0x9D1 JUMPI PUSH2 0x9D0 PUSH2 0x7D3 JUMP JUMPDEST JUMPDEST PUSH2 0x9DD DUP7 DUP3 DUP8 ADD PUSH2 0x7E7 JUMP JUMPDEST SWAP4 POP SWAP4 POP POP PUSH1 0x20 PUSH2 0x9F0 DUP7 DUP3 DUP8 ADD PUSH2 0x985 JUMP JUMPDEST SWAP2 POP POP SWAP3 POP SWAP3 POP SWAP3 JUMP JUMPDEST PUSH2 0xA03 DUP2 PUSH2 0x95C JUMP JUMPDEST DUP3 MSTORE POP POP JUMP JUMPDEST PUSH1 0x0 PUSH1 0x20 DUP3 ADD SWAP1 POP PUSH2 0xA1E PUSH1 0x0 DUP4 ADD DUP5 PUSH2 0x9FA JUMP JUMPDEST SWAP3 SWAP2 POP POP JUMP JUMPDEST PUSH1 0x0 DUP1 PUSH1 0x0 PUSH1 0x40 DUP5 DUP7 SUB SLT ISZERO PUSH2 0xA3D JUMPI PUSH2 0xA3C PUSH2 0x7CE JUMP JUMPDEST JUMPDEST PUSH1 0x0 DUP5 ADD CALLDATALOAD PUSH8 0xFFFFFFFFFFFFFFFF DUP2 GT ISZERO PUSH2 0xA5B JUMPI PUSH2 0xA5A PUSH2 0x7D3 JUMP JUMPDEST JUMPDEST PUSH2 0xA67 DUP7 DUP3 DUP8 ADD PUSH2 0x7E7 JUMP JUMPDEST SWAP4 POP SWAP4 POP POP PUSH1 0x20 PUSH2 0xA7A DUP7 DUP3 DUP8 ADD PUSH2 0x85E JUMP JUMPDEST SWAP2 POP POP SWAP3 POP SWAP3 POP SWAP3 JUMP JUMPDEST PUSH1 0x0 PUSH1 0x20 DUP3 DUP5 SUB SLT ISZERO PUSH2 0xA9A JUMPI PUSH2 0xA99 PUSH2 0x7CE JUMP JUMPDEST JUMPDEST PUSH1 0x0 PUSH2 0xAA8 DUP5 DUP3 DUP6 ADD PUSH2 0x985 JUMP JUMPDEST SWAP2 POP POP SWAP3 SWAP2 POP POP JUMP JUMPDEST PUSH1 0x0 DUP2 SWAP1 POP SWAP3 SWAP2 POP POP JUMP JUMPDEST DUP3 DUP2 DUP4 CALLDATACOPY PUSH1 0x0 DUP4 DUP4 ADD MSTORE POP POP POP JUMP JUMPDEST PUSH1 0x0 PUSH2 0xAD7 DUP4 DUP6 PUSH2 0xAB1 JUMP JUMPDEST SWAP4 POP PUSH2 0xAE4 DUP4 DUP6 DUP5 PUSH2 0xABC JUMP JUMPDEST DUP3 DUP5 ADD SWAP1 POP SWAP4 SWAP3 POP POP POP JUMP JUMPDEST PUSH1 0x0 PUSH2 0xAFD DUP3 DUP5 DUP7 PUSH2 0xACB JUMP JUMPDEST SWAP2 POP DUP2 SWAP1 POP SWAP4 SWAP3 POP POP POP JUMP JUMPDEST PUSH1 0x0 DUP2 MLOAD SWAP1 POP SWAP2 SWAP1 POP JUMP JUMPDEST PUSH32 0x4E487B7100000000000000000000000000000000000000000000000000000000 PUSH1 0x0 MSTORE PUSH1 0x41 PUSH1 0x4 MSTORE PUSH1 0x24 PUSH1 0x0 REVERT JUMPDEST PUSH32 0x4E487B7100000000000000000000000000000000000000000000000000000000 PUSH1 0x0 MSTORE PUSH1 0x22 PUSH1 0x4 MSTORE PUSH1 0x24 PUSH1 0x0 REVERT JUMPDEST PUSH1 0x0 PUSH1 0x2 DUP3 DIV SWAP1 POP PUSH1 0x1 DUP3 AND DUP1 PUSH2 0xB8A JUMPI PUSH1 0x7F DUP3 AND SWAP2 POP JUMPDEST PUSH1 0x20 DUP3 LT DUP2 SUB PUSH2 0xB9D JUMPI PUSH2 0xB9C PUSH2 0xB43 JUMP JUMPDEST JUMPDEST POP SWAP2 SWAP1 POP JUMP JUMPDEST PUSH1 0x0 DUP2 SWAP1 POP DUP2 PUSH1 0x0 MSTORE PUSH1 0x20 PUSH1 0x0 KECCAK256 SWAP1 POP SWAP2 SWAP1 POP JUMP JUMPDEST PUSH1 0x0 PUSH1 0x20 PUSH1 0x1F DUP4 ADD DIV SWAP1 POP SWAP2 SWAP1 POP JUMP JUMPDEST PUSH1 0x0 DUP3 DUP3 SHL SWAP1 POP SWAP3 SWAP2 POP POP JUMP JUMPDEST PUSH1 0x0 PUSH1 0x8 DUP4 MUL PUSH2 0xC05 PUSH32 0xFFFFFFFFFFFFFFFFFFFFFFFFFFFFFFFFFFFFFFFFFFFFFFFFFFFFFFFFFFFFFFFF DUP3 PUSH2 0xBC8 JUMP JUMPDEST PUSH2 0xC0F DUP7 DUP4 PUSH2 0xBC8 JUMP JUMPDEST SWAP6 POP DUP1 NOT DUP5 AND SWAP4 POP DUP1 DUP7 AND DUP5 OR SWAP3 POP POP POP SWAP4 SWAP3 POP POP POP JUMP JUMPDEST PUSH1 0x0 DUP2 SWAP1 POP SWAP2 SWAP1 POP JUMP JUMPDEST PUSH1 0x0 PUSH2 0xC4C PUSH2 0xC47 PUSH2 0xC42 DUP5 PUSH2 0x83D JUMP JUMPDEST PUSH2 0xC27 JUMP JUMPDEST PUSH2 0x83D JUMP JUMPDEST SWAP1 POP SWAP2 SWAP1 POP JUMP JUMPDEST PUSH1 0x0 DUP2 SWAP1 POP SWAP2 SWAP1 POP JUMP JUMPDEST PUSH2 0xC66 DUP4 PUSH2 0xC31 JUMP JUMPDEST PUSH2 0xC7A PUSH2 0xC72 DUP3 PUSH2 0xC53 JUMP JUMPDEST DUP5 DUP5 SLOAD PUSH2 0xBD5 JUMP JUMPDEST DUP3 SSTORE POP POP POP POP JUMP JUMPDEST PUSH1 0x0 SWAP1 JUMP JUMPDEST PUSH2 0xC8F PUSH2 0xC82 JUMP JUMPDEST PUSH2 0xC9A DUP2 DUP5 DUP5 PUSH2 0xC5D JUMP JUMPDEST POP POP POP JUMP JUMPDEST JUMPDEST DUP2 DUP2 LT ISZERO PUSH2 0xCBE JUMPI PUSH2 0xCB3 PUSH1 0x0 DUP3 PUSH2 0xC87 JUMP JUMPDEST PUSH1 0x1 DUP2 ADD SWAP1 POP PUSH2 0xCA0 JUMP JUMPDEST POP POP JUMP JUMPDEST PUSH1 0x1F DUP3 GT ISZERO PUSH2 0xD03 JUMPI PUSH2 0xCD4 DUP2 PUSH2 0xBA3 JUMP JUMPDEST PUSH2 0xCDD DUP5 PUSH2 0xBB8 JUMP JUMPDEST DUP2 ADD PUSH1 0x20 DUP6 LT ISZERO PUSH2 0xCEC JUMPI DUP2 SWAP1 POP JUMPDEST PUSH2 0xD00 PUSH2 0xCF8 DUP6 PUSH2 0xBB8 JUMP JUMPDEST DUP4 ADD DUP3 PUSH2 0xC9F JUMP JUMPDEST POP POP JUMPDEST POP POP POP JUMP JUMPDEST PUSH1 0x0 DUP3 DUP3 SHR SWAP1 POP SWAP3 SWAP2 POP POP JUMP JUMPDEST PUSH1 0x0 PUSH2 0xD26 PUSH1 0x0 NOT DUP5 PUSH1 0x8 MUL PUSH2 0xD08 JUMP JUMPDEST NOT DUP1 DUP4 AND SWAP2 POP POP SWAP3 SWAP2 POP POP JUMP JUMPDEST PUSH1 0x0 PUSH2 0xD3F DUP4 DUP4 PUSH2 0xD15 JUMP JUMPDEST SWAP2 POP DUP3 PUSH1 0x2 MUL DUP3 OR SWAP1 POP SWAP3 SWAP2 POP POP JUMP JUMPDEST PUSH2 0xD58 DUP3 PUSH2 0xB09 JUMP JUMPDEST PUSH8 0xFFFFFFFFFFFFFFFF DUP2 GT ISZERO PUSH2 0xD71 JUMPI PUSH2 0xD70 PUSH2 0xB14 JUMP JUMPDEST JUMPDEST PUSH2 0xD7B DUP3 SLOAD PUSH2 0xB72 JUMP JUMPDEST PUSH2 0xD86 DUP3 DUP3 DUP6 PUSH2 0xCC2 JUMP JUMPDEST PUSH1 0x0 PUSH1 0x20 SWAP1 POP PUSH1 0x1F DUP4 GT PUSH1 0x1 DUP2 EQ PUSH2 0xDB9 JUMPI PUSH1 0x0 DUP5 ISZERO PUSH2 0xDA7 JUMPI DUP3 DUP8 ADD MLOAD SWAP1 POP JUMPDEST PUSH2 0xDB1 DUP6 DUP3 PUSH2 0xD33 JUMP JUMPDEST DUP7 SSTORE POP PUSH2 0xE19 JUMP JUMPDEST PUSH1 0x1F NOT DUP5 AND PUSH2 0xDC7 DUP7 PUSH2 0xBA3 JUMP JUMPDEST PUSH1 0x0 JUMPDEST DUP3 DUP2 LT ISZERO PUSH2 0xDEF JUMPI DUP5 DUP10 ADD MLOAD DUP3 SSTORE PUSH1 0x1 DUP3 ADD SWAP2 POP PUSH1 0x20 DUP6 ADD SWAP5 POP PUSH1 0x20 DUP2 ADD SWAP1 POP PUSH2 0xDCA JUMP JUMPDEST DUP7 DUP4 LT ISZERO PUSH2 0xE0C JUMPI DUP5 DUP10 ADD MLOAD PUSH2 0xE08 PUSH1 0x1F DUP10 AND DUP3 PUSH2 0xD15 JUMP JUMPDEST DUP4 SSTORE POP JUMPDEST PUSH1 0x1 PUSH1 0x2 DUP9 MUL ADD DUP9 SSTORE POP POP POP JUMPDEST POP POP POP POP POP POP JUMP JUMPDEST PUSH32 0x4E487B7100000000000000000000000000000000000000000000000000000000 PUSH1 0x0 MSTORE PUSH1 0x11 PUSH1 0x4 MSTORE PUSH1 0x24 PUSH1 0x0 REVERT JUMPDEST PUSH1 0x0 PUSH2 0xE5B DUP3 PUSH2 0x83D JUMP JUMPDEST SWAP2 POP PUSH32 0xFFFFFFFFFFFFFFFFFFFFFFFFFFFFFFFFFFFFFFFFFFFFFFFFFFFFFFFFFFFFFFFF DUP3 SUB PUSH2 0xE8D JUMPI PUSH2 0xE8C PUSH2 0xE21 JUMP JUMPDEST JUMPDEST PUSH1 0x1 DUP3 ADD SWAP1 POP SWAP2 SWAP1 POP JUMP JUMPDEST PUSH1 0x0 DUP3 SWAP1 POP SWAP3 SWAP2 POP POP JUMP JUMPDEST PUSH2 0xEAD DUP4 DUP4 PUSH2 0xE98 JUMP JUMPDEST PUSH8 0xFFFFFFFFFFFFFFFF DUP2 GT ISZERO PUSH2 0xEC6 JUMPI PUSH2 0xEC5 PUSH2 0xB14 JUMP JUMPDEST JUMPDEST PUSH2 0xED0 DUP3 SLOAD PUSH2 0xB72 JUMP JUMPDEST PUSH2 0xEDB DUP3 DUP3 DUP6 PUSH2 0xCC2 JUMP JUMPDEST PUSH1 0x0 PUSH1 0x1F DUP4 GT PUSH1 0x1 DUP2 EQ PUSH2 0xF0A JUMPI PUSH1 0x0 DUP5 ISZERO PUSH2 0xEF8 JUMPI DUP3 DUP8 ADD CALLDATALOAD SWAP1 POP JUMPDEST PUSH2 0xF02 DUP6 DUP3 PUSH2 0xD33 JUMP JUMPDEST DUP7 SSTORE POP PUSH2 0xF6A JUMP JUMPDEST PUSH1 0x1F NOT DUP5 AND PUSH2 0xF18 DUP7 PUSH2 0xBA3 JUMP JUMPDEST PUSH1 0x0 JUMPDEST DUP3 DUP2 LT ISZERO PUSH2 0xF40 JUMPI DUP5 DUP10 ADD CALLDATALOAD DUP3 SSTORE PUSH1 0x1 DUP3 ADD SWAP2 POP PUSH1 0x20 DUP6 ADD SWAP5 POP PUSH1 0x20 DUP2 ADD SWAP1 POP PUSH2 0xF1B JUMP JUMPDEST DUP7 DUP4 LT ISZERO PUSH2 0xF5D JUMPI DUP5 DUP10 ADD CALLDATALOAD PUSH2 0xF59 PUSH1 0x1F DUP10 AND DUP3 PUSH2 0xD15 JUMP JUMPDEST DUP4 SSTORE POP JUMPDEST PUSH1 0x1 PUSH1 0x2 DUP9 MUL ADD DUP9 SSTORE POP POP POP JUMPDEST POP POP POP POP POP POP POP JUMP JUMPDEST PUSH2 0xF7C DUP2 PUSH2 0x83D JUMP JUMPDEST DUP3 MSTORE POP POP JUMP JUMPDEST PUSH1 0x0 PUSH1 0x40 DUP3 ADD SWAP1 POP PUSH2 0xF97 PUSH1 0x0 DUP4 ADD DUP6 PUSH2 0x9FA JUMP JUMPDEST PUSH2 0xFA4 PUSH1 0x20 DUP4 ADD DUP5 PUSH2 0xF73 JUMP JUMPDEST SWAP4 SWAP3 POP POP POP JUMP JUMPDEST PUSH1 0x0 DUP3 DUP3 MSTORE PUSH1 0x20 DUP3 ADD SWAP1 POP SWAP3 SWAP2 POP POP JUMP JUMPDEST PUSH32 0x416C726561647920616368696576656400000000000000000000000000000000 PUSH1 0x0 DUP3 ADD MSTORE POP JUMP JUMPDEST PUSH1 0x0 PUSH2 0xFF2 PUSH1 0x10 DUP4 PUSH2 0xFAB JUMP JUMPDEST SWAP2 POP PUSH2 0xFFD DUP3 PUSH2 0xFBC JUMP JUMPDEST PUSH1 0x20 DUP3 ADD SWAP1 POP SWAP2 SWAP1 POP JUMP JUMPDEST PUSH1 0x0 PUSH1 0x20 DUP3 ADD SWAP1 POP DUP2 DUP2 SUB PUSH1 0x0 DUP4 ADD MSTORE PUSH2 0x1021 DUP2 PUSH2 0xFE5 JUMP JUMPDEST SWAP1 POP SWAP2 SWAP1 POP JUMP JUMPDEST PUSH1 0x0 PUSH2 0x1033 DUP3 PUSH2 0x83D JUMP JUMPDEST SWAP2 POP PUSH2 0x103E DUP4 PUSH2 0x83D JUMP JUMPDEST SWAP3 POP DUP3 DUP3 MUL PUSH2 0x104C DUP2 PUSH2 0x83D JUMP JUMPDEST SWAP2 POP DUP3 DUP3 DIV DUP5 EQ DUP4 ISZERO OR PUSH2 0x1063 JUMPI PUSH2 0x1062 PUSH2 0xE21 JUMP JUMPDEST JUMPDEST POP SWAP3 SWAP2 POP POP JUMP JUMPDEST PUSH32 0x4E487B7100000000000000000000000000000000000000000000000000000000 PUSH1 0x0 MSTORE PUSH1 0x12 PUSH1 0x4 MSTORE PUSH1 0x24 PUSH1 0x0 REVERT JUMPDEST PUSH1 0x0 PUSH2 0x10A4 DUP3 PUSH2 0x83D JUMP JUMPDEST SWAP2 POP PUSH2 0x10AF DUP4 PUSH2 0x83D JUMP JUMPDEST SWAP3 POP DUP3 PUSH2 0x10BF JUMPI PUSH2 0x10BE PUSH2 0x106A JUMP JUMPDEST JUMPDEST DUP3 DUP3 DIV SWAP1 POP SWAP3 SWAP2 POP POP JUMP JUMPDEST PUSH1 0x0 PUSH2 0x10D5 DUP3 PUSH2 0x83D JUMP JUMPDEST SWAP2 POP PUSH2 0x10E0 DUP4 PUSH2 0x83D JUMP JUMPDEST SWAP3 POP DUP3 DUP3 ADD SWAP1 POP DUP1 DUP3 GT ISZERO PUSH2 0x10F8 JUMPI PUSH2 0x10F7 PUSH2 0xE21 JUMP JUMPDEST JUMPDEST SWAP3 SWAP2 POP POP JUMP JUMPDEST PUSH1 0x0 DUP2 SWAP1 POP SWAP3 SWAP2 POP POP JUMP JUMPDEST POP JUMP JUMPDEST PUSH1 0x0 PUSH2 0x1119 PUSH1 0x0 DUP4 PUSH2 0x10FE JUMP JUMPDEST SWAP2 POP PUSH2 0x1124 DUP3 PUSH2 0x1109 JUMP JUMPDEST PUSH1 0x0 DUP3 ADD SWAP1 POP SWAP2 SWAP1 POP JUMP JUMPDEST PUSH1 0x0 PUSH2 0x113A DUP3 PUSH2 0x110C JUMP JUMPDEST SWAP2 POP DUP2 SWAP1 POP SWAP2 SWAP1 POP JUMP JUMPDEST PUSH32 0x4571756974792072656C65617365206661696C65640000000000000000000000 PUSH1 0x0 DUP3 ADD MSTORE POP JUMP JUMPDEST PUSH1 0x0 PUSH2 0x117A PUSH1 0x15 DUP4 PUSH2 0xFAB JUMP JUMPDEST SWAP2 POP PUSH2 0x1185 DUP3 PUSH2 0x1144 JUMP JUMPDEST PUSH1 0x20 DUP3 ADD SWAP1 POP SWAP2 SWAP1 POP JUMP JUMPDEST PUSH1 0x0 PUSH1 0x20 DUP3 ADD SWAP1 POP DUP2 DUP2 SUB PUSH1 0x0 DUP4 ADD MSTORE PUSH2 0x11A9 DUP2 PUSH2 0x116D JUMP JUMPDEST SWAP1 POP SWAP2 SWAP1 POP JUMP JUMPDEST PUSH1 0x0 DUP2 SLOAD PUSH2 0x11BD DUP2 PUSH2 0xB72 JUMP JUMPDEST PUSH2 0x11C7 DUP2 DUP7 PUSH2 0xFAB JUMP JUMPDEST SWAP5 POP PUSH1 0x1 DUP3 AND PUSH1 0x0 DUP2 EQ PUSH2 0x11E2 JUMPI PUSH1 0x1 DUP2 EQ PUSH2 0x11F8 JUMPI PUSH2 0x122B JUMP JUMPDEST PUSH1 0xFF NOT DUP4 AND DUP7 MSTORE DUP2 ISZERO ISZERO PUSH1 0x20 MUL DUP7 ADD SWAP4 POP PUSH2 0x122B JUMP JUMPDEST PUSH2 0x1201 DUP6 PUSH2 0xBA3 JUMP JUMPDEST PUSH1 0x0 JUMPDEST DUP4 DUP2 LT ISZERO PUSH2 0x1223 JUMPI DUP2 SLOAD DUP2 DUP10 ADD MSTORE PUSH1 0x1 DUP3 ADD SWAP2 POP PUSH1 0x20 DUP2 ADD SWAP1 POP PUSH2 0x1204 JUMP JUMPDEST DUP1 DUP9 ADD SWAP6 POP POP POP JUMPDEST POP POP POP SWAP3 SWAP2 POP POP JUMP JUMPDEST PUSH1 0x0 PUSH1 0x40 DUP3 ADD SWAP1 POP DUP2 DUP2 SUB PUSH1 0x0 DUP4 ADD MSTORE PUSH2 0x124E DUP2 DUP6 PUSH2 0x11B0 JUMP JUMPDEST SWAP1 POP PUSH2 0x125D PUSH1 0x20 DUP4 ADD DUP5 PUSH2 0xF73 JUMP JUMPDEST SWAP4 SWAP3 POP POP POP JUMP INVALID LOG2 PUSH5 0x6970667358 0x22 SLT KECCAK256 0xE5 CALLCODE CALLVALUE 0xD3 PUSH17 0xC97DFCD64A9E11B648DF72AE4B4093D5EB DIV PUSH31 0x65CE792D784F3B9964736F6C63430008180033000000000000000000000000 "},"methodIdentifiers":{"achieveMilestone(string,uint256)":"af61ba38","addMilestone(string,string,string,uint256)":"5d04acde","owner()":"8da5cb5b","registerStartup(string,address)":"604a6ba9","renounceOwnership()":"715018a6","transferOwnership(address)":"f2fde38b"}}}}}