{"contracts/SmartCampusLibrary.sol":{"SmartCampusLibrary":{"abi":[{"inputs":[{"internalType":"address","name":"initialOwner","type":"address"}],"stateMutability":"nonpayable","type":"constructor"},{"inputs":[{"internalType":"address","name":"owner","type":"address"}],"name":"OwnableInvalidOwner","type":"error"},{"inputs":[{"internalType":"address","name":"account","type":"address"}],"name":"OwnableUnauthorizedAccount","type":"error"},{"anonymous":false,"inputs":[{"indexed":true,"internalType":"string","name":"loanId","type":"string"},{"indexed":false,"internalType":"string","name":"isbn","type":"string"},{"indexed":false,"internalType":"string","name":"enrollmentNo","type":"string"}],"name":"BookIssued","type":"event"},{"anonymous":false,"inputs":[{"indexed":true,"internalType":"string","name":"loanId","type":"string"},{"indexed":false,"internalType":"uint256","name":"fineAmount","type":"uint256"},{"indexed":false,"internalType":"uint256","name":"timestamp","type":"uint256"}],"name":"BookReturned","type":"event"},{"anonymous":false,"inputs":[{"indexed":true,"internalType":"address","name":"previousOwner","type":"address"},{"indexed":true,"internalType":"address","name":"newOwner","type":"address"}],"name":"OwnershipTransferred","type":"event"},{"inputs":[{"internalType":"string","name":"","type":"string"}],"name":"loans","outputs":[{"internalType":"string","name":"loanId","type":"string"},{"internalType":"string","name":"isbn","type":"string"},{"internalType":"string","name":"enrollmentNo","type":"string"},{"internalType":"uint256","name":"issuedAt","type":"uint256"},{"internalType":"uint256","name":"returnedAt","type":"uint256"},{"internalType":"uint256","name":"fineAmount","type":"uint256"},{"internalType":"bool","name":"isReturned","type":"bool"}],"stateMutability":"view","type":"function"},{"inputs":[],"name":"owner","outputs":[{"internalType":"address","name":"","type":"address"}],"stateMutability":"view","type":"function"},{"inputs":[{"internalType":"string","name":"loanId","type":"string"},{"internalType":"string","name":"isbn","type":"string"},{"internalType":"string","name":"enrollmentNo","type":"string"}],"name":"recordLoan","outputs":[],"stateMutability":"nonpayable","type":"function"},{"inputs":[{"internalType":"string","name":"loanId","type":"string"},{"internalType":"uint256","name":"fineAmount","type":"uint256"}],"name":"recordReturn","outputs":[],"stateMutability":"nonpayable","type":"function"},{"inputs":[],"name":"renounceOwnership","outputs":[],"stateMutability":"nonpayable","type":"function"},{"inputs":[{"internalType":"address","name":"newOwner","type":"address"}],"name":"transferOwnership","outputs":[],"stateMutability":"nonpayable","type":"function"}],"evm":{"bytecode":{"linkReferences":{},"object":"60806040523480156200001157600080fd5b50604051620015ec380380620015ec8339818101604052810190620000379190620001f4565b80600073ffffffffffffffffffffffffffffffffffffffff168173ffffffffffffffffffffffffffffffffffffffff1603620000ad5760006040517f1e4fbdf7000000000000000000000000000000000000000000000000000000008152600401620000a4919062000237565b60405180910390fd5b620000be81620000c660201b60201c565b505062000254565b60008060009054906101000a900473ffffffffffffffffffffffffffffffffffffffff169050816000806101000a81548173ffffffffffffffffffffffffffffffffffffffff021916908373ffffffffffffffffffffffffffffffffffffffff1602179055508173ffffffffffffffffffffffffffffffffffffffff168173ffffffffffffffffffffffffffffffffffffffff167f8be0079c531659141344cd1fd0a4f28419497f9722a3daafe3b4186f6b6457e060405160405180910390a35050565b600080fd5b600073ffffffffffffffffffffffffffffffffffffffff82169050919050565b6000620001bc826200018f565b9050919050565b620001ce81620001af565b8114620001da57600080fd5b50565b600081519050620001ee81620001c3565b92915050565b6000602082840312156200020d576200020c6200018a565b5b60006200021d84828501620001dd565b91505092915050565b6200023181620001af565b82525050565b60006020820190506200024e600083018462000226565b92915050565b61138880620002646000396000f3fe608060405234801561001057600080fd5b50600436106100625760003560e01c8063369af92b14610067578063715018a6146100835780638da5cb5b1461008d578063c6141f63146100ab578063f22904d7146100e1578063f2fde38b146100fd575b600080fd5b610081600480360381019061007c91906109a0565b610119565b005b61008b61038b565b005b61009561039f565b6040516100a29190610a95565b60405180910390f35b6100c560048036038101906100c09190610bf1565b6103c8565b6040516100d89796959493929190610ced565b60405180910390f35b6100fb60048036038101906100f69190610d9d565b6105c5565b005b61011760048036038101906101129190610e29565b61074e565b005b6101216107d4565b600060018787604051610135929190610e86565b90815260200160405180910390206003015414610187576040517f08c379a000000000000000000000000000000000000000000000000000000000815260040161017e90610eeb565b60405180910390fd5b6040518060e0016040528087878080601f016020809104026020016040519081016040528093929190818152602001838380828437600081840152601f19601f82011690508083019250505050505050815260200185858080601f016020809104026020016040519081016040528093929190818152602001838380828437600081840152601f19601f82011690508083019250505050505050815260200183838080601f016020809104026020016040519081016040528093929190818152602001838380828437600081840152601f19601f8201169050808301925050505050505081526020014281526020016000815260200160008152602001600015158152506001878760405161029d929190610e86565b908152602001604051809103902060008201518160000190816102c09190611117565b5060208201518160010190816102d69190611117565b5060408201518160020190816102ec9190611117565b50606082015181600301556080820151816004015560a0820151816005015560c08201518160060160006101000a81548160ff021916908315150217905550905050858560405161033e929190610e86565b60405180910390207fb18a6f904e2588efb38338c92ca230220b274616f2e3f3ebe7c32b98409ce69b8585858560405161037b9493929190611216565b60405180910390a2505050505050565b6103936107d4565b61039d600061085b565b565b60008060009054906101000a900473ffffffffffffffffffffffffffffffffffffffff16905090565b60018180516020810182018051848252602083016020850120818352809550505050505060009150905080600001805461040190610f3a565b80601f016020809104026020016040519081016040528092919081815260200182805461042d90610f3a565b801561047a5780601f1061044f5761010080835404028352916020019161047a565b820191906000526020600020905b81548152906001019060200180831161045d57829003601f168201915b50505050509080600101805461048f90610f3a565b80601f01602080910402602001604051908101604052809291908181526020018280546104bb90610f3a565b80156105085780601f106104dd57610100808354040283529160200191610508565b820191906000526020600020905b8154815290600101906020018083116104eb57829003601f168201915b50505050509080600201805461051d90610f3a565b80601f016020809104026020016040519081016040528092919081815260200182805461054990610f3a565b80156105965780601f1061056b57610100808354040283529160200191610596565b820191906000526020600020905b81548152906001019060200180831161057957829003601f168201915b5050505050908060030154908060040154908060050154908060060160009054906101000a900460ff16905087565b6105cd6107d4565b6000600184846040516105e1929190610e86565b90815260200160405180910390206003015411610633576040517f08c379a000000000000000000000000000000000000000000000000000000000815260040161062a9061129d565b60405180910390fd5b60018383604051610645929190610e86565b908152602001604051809103902060060160009054906101000a900460ff16156106a4576040517f08c379a000000000000000000000000000000000000000000000000000000000815260040161069b90611309565b60405180910390fd5b6000600184846040516106b8929190610e86565b9081526020016040518091039020905042816004018190555081816005018190555060018160060160006101000a81548160ff0219169083151502179055508383604051610707929190610e86565b60405180910390207fd0dc696965d395963f3afcbb13455b9f466667fd6c2dacc2f13d4d8cb8c2ab448342604051610740929190611329565b60405180910390a250505050565b6107566107d4565b600073ffffffffffffffffffffffffffffffffffffffff168173ffffffffffffffffffffffffffffffffffffffff16036107c85760006040517f1e4fbdf70000000000000000000000000000000000000000000000000000000081526004016107bf9190610a95565b60405180910390fd5b6107d18161085b565b50565b6107dc61091f565b73ffffffffffffffffffffffffffffffffffffffff166107fa61039f565b73ffffffffffffffffffffffffffffffffffffffff16146108595761081d61091f565b6040517f118cdaa70000000000000000000000000000000000000000000000000000000081526004016108509190610a95565b60405180910390fd5b565b60008060009054906101000a900473ffffffffffffffffffffffffffffffffffffffff169050816000806101000a81548173ffffffffffffffffffffffffffffffffffffffff021916908373ffffffffffffffffffffffffffffffffffffffff1602179055508173ffffffffffffffffffffffffffffffffffffffff168173ffffffffffffffffffffffffffffffffffffffff167f8be0079c531659141344cd1fd0a4f28419497f9722a3daafe3b4186f6b6457e060405160405180910390a35050565b600033905090565b6000604051905090565b600080fd5b600080fd5b600080fd5b600080fd5b600080fd5b60008083601f8401126109605761095f61093b565b5b8235905067ffffffffffffffff81111561097d5761097c610940565b5b60208301915083600182028301111561099957610998610945565b5b9250929050565b600080600080600080606087890312156109bd576109bc610931565b5b600087013567ffffffffffffffff8111156109db576109da610936565b5b6109e789828a0161094a565b9650965050602087013567ffffffffffffffff811115610a0a57610a09610936565b5b610a1689828a0161094a565b9450945050604087013567ffffffffffffffff811115610a3957610a38610936565b5b610a4589828a0161094a565b92509250509295509295509295565b600073ffffffffffffffffffffffffffffffffffffffff82169050919050565b6000610a7f82610a54565b9050919050565b610a8f81610a74565b82525050565b6000602082019050610aaa6000830184610a86565b92915050565b600080fd5b6000601f19601f8301169050919050565b7f4e487b7100000000000000000000000000000000000000000000000000000000600052604160045260246000fd5b610afe82610ab5565b810181811067ffffffffffffffff82111715610b1d57610b1c610ac6565b5b80604052505050565b6000610b30610927565b9050610b3c8282610af5565b919050565b600067ffffffffffffffff821115610b5c57610b5b610ac6565b5b610b6582610ab5565b9050602081019050919050565b82818337600083830152505050565b6000610b94610b8f84610b41565b610b26565b905082815260208101848484011115610bb057610baf610ab0565b5b610bbb848285610b72565b509392505050565b600082601f830112610bd857610bd761093b565b5b8135610be8848260208601610b81565b91505092915050565b600060208284031215610c0757610c06610931565b5b600082013567ffffffffffffffff811115610c2557610c24610936565b5b610c3184828501610bc3565b91505092915050565b600081519050919050565b600082825260208201905092915050565b60005b83811015610c74578082015181840152602081019050610c59565b60008484015250505050565b6000610c8b82610c3a565b610c958185610c45565b9350610ca5818560208601610c56565b610cae81610ab5565b840191505092915050565b6000819050919050565b610ccc81610cb9565b82525050565b60008115159050919050565b610ce781610cd2565b82525050565b600060e0820190508181036000830152610d07818a610c80565b90508181036020830152610d1b8189610c80565b90508181036040830152610d2f8188610c80565b9050610d3e6060830187610cc3565b610d4b6080830186610cc3565b610d5860a0830185610cc3565b610d6560c0830184610cde565b98975050505050505050565b610d7a81610cb9565b8114610d8557600080fd5b50565b600081359050610d9781610d71565b92915050565b600080600060408486031215610db657610db5610931565b5b600084013567ffffffffffffffff811115610dd457610dd3610936565b5b610de08682870161094a565b93509350506020610df386828701610d88565b9150509250925092565b610e0681610a74565b8114610e1157600080fd5b50565b600081359050610e2381610dfd565b92915050565b600060208284031215610e3f57610e3e610931565b5b6000610e4d84828501610e14565b91505092915050565b600081905092915050565b6000610e6d8385610e56565b9350610e7a838584610b72565b82840190509392505050565b6000610e93828486610e61565b91508190509392505050565b7f4c6f616e20616c72656164792065786973747300000000000000000000000000600082015250565b6000610ed5601383610c45565b9150610ee082610e9f565b602082019050919050565b60006020820190508181036000830152610f0481610ec8565b9050919050565b7f4e487b7100000000000000000000000000000000000000000000000000000000600052602260045260246000fd5b60006002820490506001821680610f5257607f821691505b602082108103610f6557610f64610f0b565b5b50919050565b60008190508160005260206000209050919050565b60006020601f8301049050919050565b600082821b905092915050565b600060088302610fcd7fffffffffffffffffffffffffffffffffffffffffffffffffffffffffffffffff82610f90565b610fd78683610f90565b95508019841693508086168417925050509392505050565b6000819050919050565b600061101461100f61100a84610cb9565b610fef565b610cb9565b9050919050565b6000819050919050565b61102e83610ff9565b61104261103a8261101b565b848454610f9d565b825550505050565b600090565b61105761104a565b611062818484611025565b505050565b5b818110156110865761107b60008261104f565b600181019050611068565b5050565b601f8211156110cb5761109c81610f6b565b6110a584610f80565b810160208510156110b4578190505b6110c86110c085610f80565b830182611067565b50505b505050565b600082821c905092915050565b60006110ee600019846008026110d0565b1980831691505092915050565b600061110783836110dd565b9150826002028217905092915050565b61112082610c3a565b67ffffffffffffffff81111561113957611138610ac6565b5b6111438254610f3a565b61114e82828561108a565b600060209050601f831160018114611181576000841561116f578287015190505b61117985826110fb565b8655506111e1565b601f19841661118f86610f6b565b60005b828110156111b757848901518255600182019150602085019450602081019050611192565b868310156111d457848901516111d0601f8916826110dd565b8355505b6001600288020188555050505b505050505050565b60006111f58385610c45565b9350611202838584610b72565b61120b83610ab5565b840190509392505050565b600060408201905081810360008301526112318186886111e9565b905081810360208301526112468184866111e9565b905095945050505050565b7f4c6f616e20646f6573206e6f7420657869737400000000000000000000000000600082015250565b6000611287601383610c45565b915061129282611251565b602082019050919050565b600060208201905081810360008301526112b68161127a565b9050919050565b7f426f6f6b20616c72656164792072657475726e65640000000000000000000000600082015250565b60006112f3601583610c45565b91506112fe826112bd565b602082019050919050565b60006020820190508181036000830152611322816112e6565b9050919050565b600060408201905061133e6000830185610cc3565b61134b6020830184610cc3565b939250505056fea2646970667358221220adba6d23207d54218a8f50b3c7106f5a0ad669a2d12682948f7248ebd53562ff64736f6c63430008180033","opcodes":"PUSH1 0x80 PUSH1 0x40 MSTORE CALLVALUE DUP1 ISZERO PUSH3 0x11 JUMPI PUSH1 0x0 DUP1 REVERT JUMPDEST POP PUSH1 0x40 MLOAD PUSH3 0x15EC CODESIZE SUB DUP1 PUSH3 0x15EC DUP4 CODECOPY DUP2 DUP2 ADD PUSH1 0x40 MSTORE DUP2 ADD SWAP1 PUSH3 0x37 SWAP2 SWAP1 PUSH3 0x1F4 JUMP JUMPDEST DUP1 PUSH1 0x0 PUSH20 0xFFFFFFFFFFFFFFFFFFFFFFFFFFFFFFFFFFFFFFFF AND DUP2 PUSH20 0xFFFFFFFFFFFFFFFFFFFFFFFFFFFFFFFFFFFFFFFF AND SUB PUSH3 0xAD JUMPI PUSH1 0x0 PUSH1 0x40 MLOAD PUSH32 0x1E4FBDF700000000000000000000000000000000000000000000000000000000 DUP2 MSTORE PUSH1 0x4 ADD PUSH3 0xA4 SWAP2 SWAP1 PUSH3 0x237 JUMP JUMPDEST PUSH1 0x40 MLOAD DUP1 SWAP2 SUB SWAP1 REVERT JUMPDEST PUSH3 0xBE DUP2 PUSH3 0xC6 PUSH1 0x20 SHL PUSH1 0x20 SHR JUMP JUMPDEST POP POP PUSH3 0x254 JUMP JUMPDEST PUSH1 0x0 DUP1 PUSH1 0x0 SWAP1 SLOAD SWAP1 PUSH2 0x100 EXP SWAP1 DIV PUSH20 0xFFFFFFFFFFFFFFFFFFFFFFFFFFFFFFFFFFFFFFFF AND SWAP1 POP DUP2 PUSH1 0x0 DUP1 PUSH2 0x100 EXP DUP2 SLOAD DUP2 PUSH20 0xFFFFFFFFFFFFFFFFFFFFFFFFFFFFFFFFFFFFFFFF MUL NOT AND SWAP1 DUP4 PUSH20 0xFFFFFFFFFFFFFFFFFFFFFFFFFFFFFFFFFFFFFFFF AND MUL OR SWAP1 SSTORE POP DUP2 PUSH20 0xFFFFFFFFFFFFFFFFFFFFFFFFFFFFFFFFFFFFFFFF AND DUP2 PUSH20 0xFFFFFFFFFFFFFFFFFFFFFFFFFFFFFFFFFFFFFFFF AND PUSH32 0x8BE0079C531659141344CD1FD0A4F28419497F9722A3DAAFE3B4186F6B6457E0 PUSH1 0x40 MLOAD PUSH1 0x40 MLOAD DUP1 SWAP2 SUB SWAP1 LOG3 POP POP JUMP JUMPDEST PUSH1 0x0 DUP1 REVERT JUMPDEST PUSH1 0x0 PUSH20 0xFFFFFFFFFFFFFFFFFFFFFFFFFFFFFFFFFFFFFFFF DUP3 AND SWAP1 POP SWAP2 SWAP1 POP JUMP JUMPDEST PUSH1 0x0 PUSH3 0x1BC DUP3 PUSH3 0x18F JUMP JUMPDEST SWAP1 POP SWAP2 SWAP1 POP JUMP JUMPDEST PUSH3 0x1CE DUP2 PUSH3 0x1AF JUMP JUMPDEST DUP2 EQ PUSH3 0x1DA JUMPI PUSH1 0x0 DUP1 REVERT JUMPDEST POP JUMP JUMPDEST PUSH1 0x0 DUP2 MLOAD SWAP1 POP PUSH3 0x1EE DUP2 PUSH3 0x1C3 JUMP JUMPDEST SWAP3 SWAP2 POP POP JUMP JUMPDEST PUSH1 0x0 PUSH1 0x20 DUP3 DUP5 SUB SLT ISZERO PUSH3 0x20D JUMPI PUSH3 0x20C PUSH3 0x18A JUMP JUMPDEST JUMPDEST PUSH1 0x0 PUSH3 0x21D DUP5 DUP3 DUP6 ADD PUSH3 0x1DD JUMP JUMPDEST SWAP2 POP POP SWAP3 SWAP2 POP POP JUMP JUMPDEST PUSH3 0x231 DUP2 PUSH3 0x1AF JUMP JUMPDEST DUP3 MSTORE POP POP JUMP JUMPDEST PUSH1 0x0 PUSH1 0x20 DUP3 ADD SWAP1 POP PUSH3 0x24E PUSH1 0x0 DUP4 ADD DUP5 PUSH3 0x226 JUMP JUMPDEST SWAP3 SWAP2 POP POP JUMP JUMPDEST PUSH2 0x1388 DUP1 PUSH3 0x264 PUSH1 0x0 CODECOPY PUSH1 0x0 RETURN INVALID PUSH1 0x80 PUSH1 0x40 MSTORE CALLVALUE DUP1 ISZERO PUSH2 0x10 JUMPI PUSH1 0x0 DUP1 REVERT JUMPDEST POP PUSH1 0x4 CALLDATASIZE LT PUSH2 0x62 JUMPI PUSH1 0x0 CALLDATALOAD PUSH1 0xE0 SHR DUP1 PUSH4 0x369AF92B EQ PUSH2 0x67 JUMPI DUP1 PUSH4 0x715018A6 EQ PUSH2 0x83 JUMPI DUP1 PUSH4 0x8DA5CB5B EQ PUSH2 0x8D JUMPI DUP1 PUSH4 0xC6141F63 EQ PUSH2 0xAB JUMPI DUP1 PUSH4 0xF22904D7 EQ PUSH2 0xE1 JUMPI DUP1 PUSH4 0xF2FDE38B EQ PUSH2 0xFD JUMPI JUMPDEST PUSH1 0x0 DUP1 REVERT JUMPDEST PUSH2 0x81 PUSH1 0x4 DUP1 CALLDATASIZE SUB DUP2 ADD SWAP1 PUSH2 0x7C SWAP2 SWAP1 PUSH2 0x9A0 JUMP JUMPDEST PUSH2 0x119 JUMP JUMPDEST STOP JUMPDEST PUSH2 0x8B PUSH2 0x38B JUMP JUMPDEST STOP JUMPDEST PUSH2 0x95 PUSH2 0x39F JUMP JUMPDEST PUSH1 0x40 MLOAD PUSH2 0xA2 SWAP2 SWAP1 PUSH2 0xA95 JUMP JUMPDEST PUSH1 0x40 MLOAD DUP1 SWAP2 SUB SWAP1 RETURN JUMPDEST PUSH2 0xC5 PUSH1 0x4 DUP1 CALLDATASIZE SUB DUP2 ADD SWAP1 PUSH2 0xC0 SWAP2 SWAP1 PUSH2 0xBF1 JUMP JUMPDEST PUSH2 0x3C8 JUMP JUMPDEST PUSH1 0x40 MLOAD PUSH2 0xD8 SWAP8 SWAP7 SWAP6 SWAP5 SWAP4 SWAP3 SWAP2 SWAP1 PUSH2 0xCED JUMP JUMPDEST PUSH1 0x40 MLOAD DUP1 SWAP2 SUB SWAP1 RETURN JUMPDEST PUSH2 0xFB PUSH1 0x4 DUP1 CALLDATASIZE SUB DUP2 ADD SWAP1 PUSH2 0xF6 SWAP2 SWAP1 PUSH2 0xD9D JUMP JUMPDEST PUSH2 0x5C5 JUMP JUMPDEST STOP JUMPDEST PUSH2 0x117 PUSH1 0x4 DUP1 CALLDATASIZE SUB DUP2 ADD SWAP1 PUSH2 0x112 SWAP2 SWAP1 PUSH2 0xE29 JUMP JUMPDEST PUSH2 0x74E JUMP JUMPDEST STOP JUMPDEST PUSH2 0x121 PUSH2 0x7D4 JUMP JUMPDEST PUSH1 0x0 PUSH1 0x1 DUP8 DUP8 PUSH1 0x40 MLOAD PUSH2 0x135 SWAP3 SWAP2 SWAP1 PUSH2 0xE86 JUMP JUMPDEST SWAP1 DUP2 MSTORE PUSH1 0x20 ADD PUSH1 0x40 MLOAD DUP1 SWAP2 SUB SWAP1 KECCAK256 PUSH1 0x3 ADD SLOAD EQ PUSH2 0x187 JUMPI PUSH1 0x40 MLOAD PUSH32 0x8C379A000000000000000000000000000000000000000000000000000000000 DUP2 MSTORE PUSH1 0x4 ADD PUSH2 0x17E SWAP1 PUSH2 0xEEB JUMP JUMPDEST PUSH1 0x40 MLOAD DUP1 SWAP2 SUB SWAP1 REVERT JUMPDEST PUSH1 0x40 MLOAD DUP1 PUSH1 0xE0 ADD PUSH1 0x40 MSTORE DUP1 DUP8 DUP8 DUP1 DUP1 PUSH1 0x1F ADD PUSH1 0x20 DUP1 SWAP2 DIV MUL PUSH1 0x20 ADD PUSH1 0x40 MLOAD SWAP1 DUP2 ADD PUSH1 0x40 MSTORE DUP1 SWAP4 SWAP3 SWAP2 SWAP1 DUP2 DUP2 MSTORE PUSH1 0x20 ADD DUP4 DUP4 DUP1 DUP3 DUP5 CALLDATACOPY PUSH1 0x0 DUP2 DUP5 ADD MSTORE PUSH1 0x1F NOT PUSH1 0x1F DUP3 ADD AND SWAP1 POP DUP1 DUP4 ADD SWAP3 POP POP POP POP POP POP POP DUP2 MSTORE PUSH1 0x20 ADD DUP6 DUP6 DUP1 DUP1 PUSH1 0x1F ADD PUSH1 0x20 DUP1 SWAP2 DIV MUL PUSH1 0x20 ADD PUSH1 0x40 MLOAD SWAP1 DUP2 ADD PUSH1 0x40 MSTORE DUP1 SWAP4 SWAP3 SWAP2 SWAP1 DUP2 DUP2 MSTORE PUSH1 0x20 ADD DUP4 DUP4 DUP1 DUP3 DUP5 CALLDATACOPY PUSH1 0x0 DUP2 DUP5 ADD MSTORE PUSH1 0x1F NOT PUSH1 0x1F DUP3 ADD AND SWAP1 POP DUP1 DUP4 ADD SWAP3 POP POP POP POP POP POP POP DUP2 MSTORE PUSH1 0x20 ADD DUP4 DUP4 DUP1 DUP1 PUSH1 0x1F ADD PUSH1 0x20 DUP1 SWAP2 DIV MUL PUSH1 0x20 ADD PUSH1 0x40 MLOAD SWAP1 DUP2 ADD PUSH1 0x40 MSTORE DUP1 SWAP4 SWAP3 SWAP2 SWAP1 DUP2 DUP2 MSTORE PUSH1 0x20 ADD DUP4 DUP4 DUP1 DUP3 DUP5 CALLDATACOPY PUSH1 0x0 DUP2 DUP5 ADD MSTORE PUSH1 0x1F NOT PUSH1 0x1F DUP3 ADD AND SWAP1 POP DUP1 DUP4 ADD SWAP3 POP POP POP POP POP POP POP DUP2 MSTORE PUSH1 0x20 ADD TIMESTAMP DUP2 MSTORE PUSH1 0x20 ADD PUSH1 0x0 DUP2 MSTORE PUSH1 0x20 ADD PUSH1 0x0 DUP2 MSTORE PUSH1 0x20 ADD PUSH1 0x0 ISZERO ISZERO DUP2 MSTORE POP PUSH1 0x1 DUP8 DUP8 PUSH1 0x40 MLOAD PUSH2 0x29D SWAP3 SWAP2 SWAP1 PUSH2 0xE86 JUMP JUMPDEST SWAP1 DUP2 MSTORE PUSH1 0x20 ADD PUSH1 0x40 MLOAD DUP1 SWAP2 SUB SWAP1 KECCAK256 PUSH1 0x0 DUP3 ADD MLOAD DUP2 PUSH1 0x0 ADD SWAP1 DUP2 PUSH2 0x2C0 SWAP2 SWAP1 PUSH2 0x1117 JUMP JUMPDEST POP PUSH1 0x20 DUP3 ADD MLOAD DUP2 PUSH1 0x1 ADD SWAP1 DUP2 PUSH2 0x2D6 SWAP2 SWAP1 PUSH2 0x1117 JUMP JUMPDEST POP PUSH1 0x40 DUP3 ADD MLOAD DUP2 PUSH1 0x2 ADD SWAP1 DUP2 PUSH2 0x2EC SWAP2 SWAP1 PUSH2 0x1117 JUMP JUMPDEST POP PUSH1 0x60 DUP3 ADD MLOAD DUP2 PUSH1 0x3 ADD SSTORE PUSH1 0x80 DUP3 ADD MLOAD DUP2 PUSH1 0x4 ADD SSTORE PUSH1 0xA0 DUP3 ADD MLOAD DUP2 PUSH1 0x5 ADD SSTORE PUSH1 0xC0 DUP3 ADD MLOAD DUP2 PUSH1 0x6 ADD PUSH1 0x0 PUSH2 0x100 EXP DUP2 SLOAD DUP2 PUSH1 0xFF MUL NOT AND SWAP1 DUP4 ISZERO ISZERO MUL OR SWAP1 SSTORE POP SWAP1 POP POP DUP6 DUP6 PUSH1 0x40 MLOAD PUSH2 0x33E SWAP3 SWAP2 SWAP1 PUSH2 0xE86 JUMP JUMPDEST PUSH1 0x40 MLOAD DUP1 SWAP2 SUB SWAP1 KECCAK256 PUSH32 0xB18A6F904E2588EFB38338C92CA230220B274616F2E3F3EBE7C32B98409CE69B DUP6 DUP6 DUP6 DUP6 PUSH1 0x40 MLOAD PUSH2 0x37B SWAP5 SWAP4 SWAP3 SWAP2 SWAP1 PUSH2 0x1216 JUMP JUMPDEST PUSH1 0x40 MLOAD DUP1 SWAP2 SUB SWAP1 LOG2 POP POP POP POP POP POP JUMP JUMPDEST PUSH2 0x393 PUSH2 0x7D4 JUMP JUMPDEST PUSH2 0x39D PUSH1 0x0 PUSH2 0x85B JUMP JUMPDEST JUMP JUMPDEST PUSH1 0x0 DUP1 PUSH1 0x0 SWAP1 SLOAD SWAP1 PUSH2 0x100 EXP SWAP1 DIV PUSH20 0xFFFFFFFFFFFFFFFFFFFFFFFFFFFFFFFFFFFFFFFF AND SWAP1 POP SWAP1 JUMP JUMPDEST PUSH1 0x1 DUP2 DUP1 MLOAD PUSH1 0x20 DUP2 ADD DUP3 ADD DUP1 MLOAD DUP5 DUP3 MSTORE PUSH1 0x20 DUP4 ADD PUSH1 0x20 DUP6 ADD KECCAK256 DUP2 DUP4 MSTORE DUP1 SWAP6 POP POP POP POP POP POP PUSH1 0x0 SWAP2 POP SWAP1 POP DUP1 PUSH1 0x0 ADD DUP1 SLOAD PUSH2 0x401 SWAP1 PUSH2 0xF3A JUMP JUMPDEST DUP1 PUSH1 0x1F ADD PUSH1 0x20 DUP1 SWAP2 DIV MUL PUSH1 0x20 ADD PUSH1 0x40 MLOAD SWAP1 DUP2 ADD PUSH1 0x40 MSTORE DUP1 SWAP3 SWAP2 SWAP1 DUP2 DUP2 MSTORE PUSH1 0x20 ADD DUP3 DUP1 SLOAD PUSH2 0x42D SWAP1 PUSH2 0xF3A JUMP JUMPDEST DUP1 ISZERO PUSH2 0x47A JUMPI DUP1 PUSH1 0x1F LT PUSH2 0x44F JUMPI PUSH2 0x100 DUP1 DUP4 SLOAD DIV MUL DUP4 MSTORE SWAP2 PUSH1 0x20 ADD SWAP2 PUSH2 0x47A JUMP JUMPDEST DUP3 ADD SWAP2 SWAP1 PUSH1 0x0 MSTORE PUSH1 0x20 PUSH1 0x0 KECCAK256 SWAP1 JUMPDEST DUP2 SLOAD DUP2 MSTORE SWAP1 PUSH1 0x1 ADD SWAP1 PUSH1 0x20 ADD DUP1 DUP4 GT PUSH2 0x45D JUMPI DUP3 SWAP1 SUB PUSH1 0x1F AND DUP3 ADD SWAP2 JUMPDEST POP POP POP POP POP SWAP1 DUP1 PUSH1 0x1 ADD DUP1 SLOAD PUSH2 0x48F SWAP1 PUSH2 0xF3A JUMP JUMPDEST DUP1 PUSH1 0x1F ADD PUSH1 0x20 DUP1 SWAP2 DIV MUL PUSH1 0x20 ADD PUSH1 0x40 MLOAD SWAP1 DUP2 ADD PUSH1 0x40 MSTORE DUP1 SWAP3 SWAP2 SWAP1 DUP2 DUP2 MSTORE PUSH1 0x20 ADD DUP3 DUP1 SLOAD PUSH2 0x4BB SWAP1 PUSH2 0xF3A JUMP JUMPDEST DUP1 ISZERO PUSH2 0x508 JUMPI DUP1 PUSH1 0x1F LT PUSH2 0x4DD JUMPI PUSH2 0x100 DUP1 DUP4 SLOAD DIV MUL DUP4 MSTORE SWAP2 PUSH1 0x20 ADD SWAP2 PUSH2 0x508 JUMP JUMPDEST DUP3 ADD SWAP2 SWAP1 PUSH1 0x0 MSTORE PUSH1 0x20 PUSH1 0x0 KECCAK256 SWAP1 JUMPDEST DUP2 SLOAD DUP2 MSTORE SWAP1 PUSH1 0x1 ADD SWAP1 PUSH1 0x20 ADD DUP1 DUP4 GT PUSH2 0x4EB JUMPI DUP3 SWAP1 SUB PUSH1 0x1F AND DUP3 ADD SWAP2 JUMPDEST POP POP POP POP POP SWAP1 DUP1 PUSH1 0x2 ADD DUP1 SLOAD PUSH2 0x51D SWAP1 PUSH2 0xF3A JUMP JUMPDEST DUP1 PUSH1 0x1F ADD PUSH1 0x20 DUP1 SWAP2 DIV MUL PUSH1 0x20 ADD PUSH1 0x40 MLOAD SWAP1 DUP2 ADD PUSH1 0x40 MSTORE DUP1 SWAP3 SWAP2 SWAP1 DUP2 DUP2 MSTORE PUSH1 0x20 ADD DUP3 DUP1 SLOAD PUSH2 0x549 SWAP1 PUSH2 0xF3A JUMP JUMPDEST DUP1 ISZERO PUSH2 0x596 JUMPI DUP1 PUSH1 0x1F LT PUSH2 0x56B JUMPI PUSH2 0x100 DUP1 DUP4 SLOAD DIV MUL DUP4 MSTORE SWAP2 PUSH1 0x20 ADD SWAP2 PUSH2 0x596 JUMP JUMPDEST DUP3 ADD SWAP2 SWAP1 PUSH1 0x0 MSTORE PUSH1 0x20 PUSH1 0x0 KECCAK256 SWAP1 JUMPDEST DUP2 SLOAD DUP2 MSTORE SWAP1 PUSH1 0x1 ADD SWAP1 PUSH1 0x20 ADD DUP1 DUP4 GT PUSH2 0x579 JUMPI DUP3 SWAP1 SUB PUSH1 0x1F AND DUP3 ADD SWAP2 JUMPDEST POP POP POP POP POP SWAP1 DUP1 PUSH1 0x3 ADD SLOAD SWAP1 DUP1 PUSH1 0x4 ADD SLOAD SWAP1 DUP1 PUSH1 0x5 ADD SLOAD SWAP1 DUP1 PUSH1 0x6 ADD PUSH1 0x0 SWAP1 SLOAD SWAP1 PUSH2 0x100 EXP SWAP1 DIV PUSH1 0xFF AND SWAP1 POP DUP8 JUMP JUMPDEST PUSH2 0x5CD PUSH2 0x7D4 JUMP JUMPDEST PUSH1 0x0 PUSH1 0x1 DUP5 DUP5 PUSH1 0x40 MLOAD PUSH2 0x5E1 SWAP3 SWAP2 SWAP1 PUSH2 0xE86 JUMP JUMPDEST SWAP1 DUP2 MSTORE PUSH1 0x20 ADD PUSH1 0x40 MLOAD DUP1 SWAP2 SUB SWAP1 KECCAK256 PUSH1 0x3 ADD SLOAD GT PUSH2 0x633 JUMPI PUSH1 0x40 MLOAD PUSH32 0x8C379A000000000000000000000000000000000000000000000000000000000 DUP2 MSTORE PUSH1 0x4 ADD PUSH2 0x62A SWAP1 PUSH2 0x129D JUMP JUMPDEST PUSH1 0x40 MLOAD DUP1 SWAP2 SUB SWAP1 REVERT JUMPDEST PUSH1 0x1 DUP4 DUP4 PUSH1 0x40 MLOAD PUSH2 0x645 SWAP3 SWAP2 SWAP1 PUSH2 0xE86 JUMP JUMPDEST SWAP1 DUP2 MSTORE PUSH1 0x20 ADD PUSH1 0x40 MLOAD DUP1 SWAP2 SUB SWAP1 KECCAK256 PUSH1 0x6 ADD PUSH1 0x0 SWAP1 SLOAD SWAP1 PUSH2 0x100 EXP SWAP1 DIV PUSH1 0xFF AND ISZERO PUSH2 0x6A4 JUMPI PUSH1 0x40 MLOAD PUSH32 0x8C379A000000000000000000000000000000000000000000000000000000000 DUP2 MSTORE PUSH1 0x4 ADD PUSH2 0x69B SWAP1 PUSH2 0x1309 JUMP JUMPDEST PUSH1 0x40 MLOAD DUP1 SWAP2 SUB SWAP1 REVERT JUMPDEST PUSH1 0x0 PUSH1 0x1 DUP5 DUP5 PUSH1 0x40 MLOAD PUSH2 0x6B8 SWAP3 SWAP2 SWAP1 PUSH2 0xE86 JUMP JUMPDEST SWAP1 DUP2 MSTORE PUSH1 0x20 ADD PUSH1 0x40 MLOAD DUP1 SWAP2 SUB SWAP1 KECCAK256 SWAP1 POP TIMESTAMP DUP2 PUSH1 0x4 ADD DUP2 SWAP1 SSTORE POP DUP2 DUP2 PUSH1 0x5 ADD DUP2 SWAP1 SSTORE POP PUSH1 0x1 DUP2 PUSH1 0x6 ADD PUSH1 0x0 PUSH2 0x100 EXP DUP2 SLOAD DUP2 PUSH1 0xFF MUL NOT AND SWAP1 DUP4 ISZERO ISZERO MUL OR SWAP1 SSTORE POP DUP4 DUP4 PUSH1 0x40 MLOAD PUSH2 0x707 SWAP3 SWAP2 SWAP1 PUSH2 0xE86 JUMP JUMPDEST PUSH1 0x40 MLOAD DUP1 SWAP2 SUB SWAP1 KECCAK256 PUSH32 0xD0DC696965D395963F3AFCBB13455B9F466667FD6C2DACC2F13D4D8CB8C2AB44 DUP4 TIMESTAMP PUSH1 0x40 MLOAD PUSH2 0x740 SWAP3 SWAP2 SWAP1 PUSH2 0x1329 JUMP JUMPDEST PUSH1 0x40 MLOAD DUP1 SWAP2 SUB SWAP1 LOG2 POP POP POP POP JUMP JUMPDEST PUSH2 0x756 PUSH2 0x7D4 JUMP JUMPDEST PUSH1 0x0 PUSH20 0xFFFFFFFFFFFFFFFFFFFFFFFFFFFFFFFFFFFFFFFF AND DUP2 PUSH20 0xFFFFFFFFFFFFFFFFFFFFFFFFFFFFFFFFFFFFFFFF AND SUB PUSH2 0x7C8 JUMPI PUSH1 0x0 PUSH1 0x40 MLOAD PUSH32 0x1E4FBDF700000000000000000000000000000000000000000000000000000000 DUP2 MSTORE PUSH1 0x4 ADD PUSH2 0x7BF SWAP2 SWAP1 PUSH2 0xA95 JUMP JUMPDEST PUSH1 0x40 MLOAD DUP1 SWAP2 SUB SWAP1 REVERT JUMPDEST PUSH2 0x7D1 DUP2 PUSH2 0x85B JUMP JUMPDEST POP JUMP JUMPDEST PUSH2 0x7DC PUSH2 0x91F JUMP JUMPDEST PUSH20 0xFFFFFFFFFFFFFFFFFFFFFFFFFFFFFFFFFFFFFFFF AND PUSH2 0x7FA PUSH2 0x39F JUMP JUMPDEST PUSH20 0xFFFFFFFFFFFFFFFFFFFFFFFFFFFFFFFFFFFFFFFF AND EQ PUSH2 0x859 JUMPI PUSH2 0x81D PUSH2 0x91F JUMP JUMPDEST PUSH1 0x40 MLOAD PUSH32 0x118CDAA700000000000000000000000000000000000000000000000000000000 DUP2 MSTORE PUSH1 0x4 ADD PUSH2 0x850 SWAP2 SWAP1 PUSH2 0xA95 JUMP JUMPDEST PUSH1 0x40 MLOAD DUP1 SWAP2 SUB SWAP1 REVERT JUMPDEST JUMP JUMPDEST PUSH1 0x0 DUP1 PUSH1 0x0 SWAP1 SLOAD SWAP1 PUSH2 0x100 EXP SWAP1 DIV PUSH20 0xFFFFFFFFFFFFFFFFFFFFFFFFFFFFFFFFFFFFFFFF AND SWAP1 POP DUP2 PUSH1 0x0 DUP1 PUSH2 0x100 EXP DUP2 SLOAD DUP2 PUSH20 0xFFFFFFFFFFFFFFFFFFFFFFFFFFFFFFFFFFFFFFFF MUL NOT AND SWAP1 DUP4 PUSH20 0xFFFFFFFFFFFFFFFFFFFFFFFFFFFFFFFFFFFFFFFF AND MUL OR SWAP1 SSTORE POP DUP2 PUSH20 0xFFFFFFFFFFFFFFFFFFFFFFFFFFFFFFFFFFFFFFFF AND DUP2 PUSH20 0xFFFFFFFFFFFFFFFFFFFFFFFFFFFFFFFFFFFFFFFF AND PUSH32 0x8BE0079C531659141344CD1FD0A4F28419497F9722A3DAAFE3B4186F6B6457E0 PUSH1 0x40 MLOAD PUSH1 0x40 MLOAD DUP1 SWAP2 SUB SWAP1 LOG3 POP POP JUMP JUMPDEST PUSH1 0x0 CALLER SWAP1 POP SWAP1 JUMP JUMPDEST PUSH1 0x0 PUSH1 0x40 MLOAD SWAP1 POP SWAP1 JUMP JUMPDEST PUSH1 0x0 DUP1 REVERT JUMPDEST PUSH1 0x0 DUP1 REVERT JUMPDEST PUSH1 0x0 DUP1 REVERT JUMPDEST PUSH1 0x0 DUP1 REVERT JUMPDEST PUSH1 0x0 DUP1 REVERT JUMPDEST PUSH1 0x0 DUP1 DUP4 PUSH1 0x1F DUP5 ADD SLT PUSH2 0x960 JUMPI PUSH2 0x95F PUSH2 0x93B JUMP JUMPDEST JUMPDEST DUP3 CALLDATALOAD SWAP1 POP PUSH8 0xFFFFFFFFFFFFFFFF DUP2 GT ISZERO PUSH2 0x97D JUMPI PUSH2 0x97C PUSH2 0x940 JUMP JUMPDEST JUMPDEST PUSH1 0x20 DUP4 ADD SWAP2 POP DUP4 PUSH1 0x1 DUP3 MUL DUP4 ADD GT ISZERO PUSH2 0x999 JUMPI PUSH2 0x998 PUSH2 0x945 JUMP JUMPDEST JUMPDEST SWAP3 POP SWAP3 SWAP1 POP JUMP JUMPDEST PUSH1 0x0 DUP1 PUSH1 0x0 DUP1 PUSH1 0x0 DUP1 PUSH1 0x60 DUP8 DUP10 SUB SLT ISZERO PUSH2 0x9BD JUMPI PUSH2 0x9BC PUSH2 0x931 JUMP JUMPDEST JUMPDEST PUSH1 0x0 DUP8 ADD CALLDATALOAD PUSH8 0xFFFFFFFFFFFFFFFF DUP2 GT ISZERO PUSH2 0x9DB JUMPI PUSH2 0x9DA PUSH2 0x936 JUMP JUMPDEST JUMPDEST PUSH2 0x9E7 DUP10 DUP3 DUP11 ADD PUSH2 0x94A JUMP JUMPDEST SWAP7 POP SWAP7 POP POP PUSH1 0x20 DUP8 ADD CALLDATALOAD PUSH8 0xFFFFFFFFFFFFFFFF DUP2 GT ISZERO PUSH2 0xA0A JUMPI PUSH2 0xA09 PUSH2 0x936 JUMP JUMPDEST JUMPDEST PUSH2 0xA16 DUP10 DUP3 DUP11 ADD PUSH2 0x94A JUMP JUMPDEST SWAP5 POP SWAP5 POP POP PUSH1 0x40 DUP8 ADD CALLDATALOAD PUSH8 0xFFFFFFFFFFFFFFFF DUP2 GT ISZERO PUSH2 0xA39 JUMPI PUSH2 0xA38 PUSH2 0x936 JUMP JUMPDEST JUMPDEST PUSH2 0xA45 DUP10 DUP3 DUP11 ADD PUSH2 0x94A JUMP JUMPDEST SWAP3 POP SWAP3 POP POP SWAP3 SWAP6 POP SWAP3 SWAP6 POP SWAP3 SWAP6 JUMP JUMPDEST PUSH1 0x0 PUSH20 0xFFFFFFFFFFFFFFFFFFFFFFFFFFFFFFFFFFFFFFFF DUP3 AND SWAP1 POP SWAP2 SWAP1 POP JUMP JUMPDEST PUSH1 0x0 PUSH2 0xA7F DUP3 PUSH2 0xA54 JUMP JUMPDEST SWAP1 POP SWAP2 SWAP1 POP JUMP JUMPDEST PUSH2 0xA8F DUP2 PUSH2 0xA74 JUMP JUMPDEST DUP3 MSTORE POP POP JUMP JUMPDEST PUSH1 0x0 PUSH1 0x20 DUP3 ADD SWAP1 POP PUSH2 0xAAA PUSH1 0x0 DUP4 ADD DUP5 PUSH2 0xA86 JUMP JUMPDEST SWAP3 SWAP2 POP POP JUMP JUMPDEST PUSH1 0x0 DUP1 REVERT JUMPDEST PUSH1 0x0 PUSH1 0x1F NOT PUSH1 0x1F DUP4 ADD AND SWAP1 POP SWAP2 SWAP1 POP JUMP JUMPDEST PUSH32 0x4E487B7100000000000000000000000000000000000000000000000000000000 PUSH1 0x0 MSTORE PUSH1 0x41 PUSH1 0x4 MSTORE PUSH1 0x24 PUSH1 0x0 REVERT JUMPDEST PUSH2 0xAFE DUP3 PUSH2 0xAB5 JUMP JUMPDEST DUP2 ADD DUP2 DUP2 LT PUSH8 0xFFFFFFFFFFFFFFFF DUP3 GT OR ISZERO PUSH2 0xB1D JUMPI PUSH2 0xB1C PUSH2 0xAC6 JUMP JUMPDEST JUMPDEST DUP1 PUSH1 0x40 MSTORE POP POP POP JUMP JUMPDEST PUSH1 0x0 PUSH2 0xB30 PUSH2 0x927 JUMP JUMPDEST SWAP1 POP PUSH2 0xB3C DUP3 DUP3 PUSH2 0xAF5 JUMP JUMPDEST SWAP2 SWAP1 POP JUMP JUMPDEST PUSH1 0x0 PUSH8 0xFFFFFFFFFFFFFFFF DUP3 GT ISZERO PUSH2 0xB5C JUMPI PUSH2 0xB5B PUSH2 0xAC6 JUMP JUMPDEST JUMPDEST PUSH2 0xB65 DUP3 PUSH2 0xAB5 JUMP JUMPDEST SWAP1 POP PUSH1 0x20 DUP2 ADD SWAP1 POP SWAP2 SWAP1 POP JUMP JUMPDEST DUP3 DUP2 DUP4 CALLDATACOPY PUSH1 0x0 DUP4 DUP4 ADD MSTORE POP POP POP JUMP JUMPDEST PUSH1 0x0 PUSH2 0xB94 PUSH2 0xB8F DUP5 PUSH2 0xB41 JUMP JUMPDEST PUSH2 0xB26 JUMP JUMPDEST SWAP1 POP DUP3 DUP2 MSTORE PUSH1 0x20 DUP2 ADD DUP5 DUP5 DUP5 ADD GT ISZERO PUSH2 0xBB0 JUMPI PUSH2 0xBAF PUSH2 0xAB0 JUMP JUMPDEST JUMPDEST PUSH2 0xBBB DUP5 DUP3 DUP6 PUSH2 0xB72 JUMP JUMPDEST POP SWAP4 SWAP3 POP POP POP JUMP JUMPDEST PUSH1 0x0 DUP3 PUSH1 0x1F DUP4 ADD SLT PUSH2 0xBD8 JUMPI PUSH2 0xBD7 PUSH2 0x93B JUMP JUMPDEST JUMPDEST DUP2 CALLDATALOAD PUSH2 0xBE8 DUP5 DUP3 PUSH1 0x20 DUP7 ADD PUSH2 0xB81 JUMP JUMPDEST SWAP2 POP POP SWAP3 SWAP2 POP POP JUMP JUMPDEST PUSH1 0x0 PUSH1 0x20 DUP3 DUP5 SUB SLT ISZERO PUSH2 0xC07 JUMPI PUSH2 0xC06 PUSH2 0x931 JUMP JUMPDEST JUMPDEST PUSH1 0x0 DUP3 ADD CALLDATALOAD PUSH8 0xFFFFFFFFFFFFFFFF DUP2 GT ISZERO PUSH2 0xC25 JUMPI PUSH2 0xC24 PUSH2 0x936 JUMP JUMPDEST JUMPDEST PUSH2 0xC31 DUP5 DUP3 DUP6 ADD PUSH2 0xBC3 JUMP JUMPDEST SWAP2 POP POP SWAP3 SWAP2 POP POP JUMP JUMPDEST PUSH1 0x0 DUP2 MLOAD SWAP1 POP SWAP2 SWAP1 POP JUMP JUMPDEST PUSH1 0x0 DUP3 DUP3 MSTORE PUSH1 0x20 DUP3 ADD SWAP1 POP SWAP3 SWAP2 POP POP JUMP JUMPDEST PUSH1 0x0 JUMPDEST DUP4 DUP2 LT ISZERO PUSH2 0xC74 JUMPI DUP1 DUP3 ADD MLOAD DUP2 DUP5 ADD MSTORE PUSH1 0x20 DUP2 ADD SWAP1 POP PUSH2 0xC59 JUMP JUMPDEST PUSH1 0x0 DUP5 DUP5 ADD MSTORE POP POP POP POP JUMP JUMPDEST PUSH1 0x0 PUSH2 0xC8B DUP3 PUSH2 0xC3A JUMP JUMPDEST PUSH2 0xC95 DUP2 DUP6 PUSH2 0xC45 JUMP JUMPDEST SWAP4 POP PUSH2 0xCA5 DUP2 DUP6 PUSH1 0x20 DUP7 ADD PUSH2 0xC56 JUMP JUMPDEST PUSH2 0xCAE DUP2 PUSH2 0xAB5 JUMP JUMPDEST DUP5 ADD SWAP2 POP POP SWAP3 SWAP2 POP POP JUMP JUMPDEST PUSH1 0x0 DUP2 SWAP1 POP SWAP2 SWAP1 POP JUMP JUMPDEST PUSH2 0xCCC DUP2 PUSH2 0xCB9 JUMP JUMPDEST DUP3 MSTORE POP POP JUMP JUMPDEST PUSH1 0x0 DUP2 ISZERO ISZERO SWAP1 POP SWAP2 SWAP1 POP JUMP JUMPDEST PUSH2 0xCE7 DUP2 PUSH2 0xCD2 JUMP JUMPDEST DUP3 MSTORE POP POP JUMP JUMPDEST PUSH1 0x0 PUSH1 0xE0 DUP3 ADD SWAP1 POP DUP2 DUP2 SUB PUSH1 0x0 DUP4 ADD MSTORE PUSH2 0xD07 DUP2 DUP11 PUSH2 0xC80 JUMP JUMPDEST SWAP1 POP DUP2 DUP2 SUB PUSH1 0x20 DUP4 ADD MSTORE PUSH2 0xD1B DUP2 DUP10 PUSH2 0xC80 JUMP JUMPDEST SWAP1 POP DUP2 DUP2 SUB PUSH1 0x40 DUP4 ADD MSTORE PUSH2 0xD2F DUP2 DUP9 PUSH2 0xC80 JUMP JUMPDEST SWAP1 POP PUSH2 0xD3E PUSH1 0x60 DUP4 ADD DUP8 PUSH2 0xCC3 JUMP JUMPDEST PUSH2 0xD4B PUSH1 0x80 DUP4 ADD DUP7 PUSH2 0xCC3 JUMP JUMPDEST PUSH2 0xD58 PUSH1 0xA0 DUP4 ADD DUP6 PUSH2 0xCC3 JUMP JUMPDEST PUSH2 0xD65 PUSH1 0xC0 DUP4 ADD DUP5 PUSH2 0xCDE JUMP JUMPDEST SWAP9 SWAP8 POP POP POP POP POP POP POP POP JUMP JUMPDEST PUSH2 0xD7A DUP2 PUSH2 0xCB9 JUMP JUMPDEST DUP2 EQ PUSH2 0xD85 JUMPI PUSH1 0x0 DUP1 REVERT JUMPDEST POP JUMP JUMPDEST PUSH1 0x0 DUP2 CALLDATALOAD SWAP1 POP PUSH2 0xD97 DUP2 PUSH2 0xD71 JUMP JUMPDEST SWAP3 SWAP2 POP POP JUMP JUMPDEST PUSH1 0x0 DUP1 PUSH1 0x0 PUSH1 0x40 DUP5 DUP7 SUB SLT ISZERO PUSH2 0xDB6 JUMPI PUSH2 0xDB5 PUSH2 0x931 JUMP JUMPDEST JUMPDEST PUSH1 0x0 DUP5 ADD CALLDATALOAD PUSH8 0xFFFFFFFFFFFFFFFF DUP2 GT ISZERO PUSH2 0xDD4 JUMPI PUSH2 0xDD3 PUSH2 0x936 JUMP JUMPDEST JUMPDEST PUSH2 0xDE0 DUP7 DUP3 DUP8 ADD PUSH2 0x94A JUMP JUMPDEST SWAP4 POP SWAP4 POP POP PUSH1 0x20 PUSH2 0xDF3 DUP7 DUP3 DUP8 ADD PUSH2 0xD88 JUMP JUMPDEST SWAP2 POP POP SWAP3 POP SWAP3 POP SWAP3 JUMP JUMPDEST PUSH2 0xE06 DUP2 PUSH2 0xA74 JUMP JUMPDEST DUP2 EQ PUSH2 0xE11 JUMPI PUSH1 0x0 DUP1 REVERT JUMPDEST POP JUMP JUMPDEST PUSH1 0x0 DUP2 CALLDATALOAD SWAP1 POP PUSH2 0xE23 DUP2 PUSH2 0xDFD JUMP JUMPDEST SWAP3 SWAP2 POP POP JUMP JUMPDEST PUSH1 0x0 PUSH1 0x20 DUP3 DUP5 SUB SLT ISZERO PUSH2 0xE3F JUMPI PUSH2 0xE3E PUSH2 0x931 JUMP JUMPDEST JUMPDEST PUSH1 0x0 PUSH2 0xE4D DUP5 DUP3 DUP6 ADD PUSH2 0xE14 JUMP JUMPDEST SWAP2 POP POP SWAP3 SWAP2 POP POP JUMP JUMPDEST PUSH1 0x0 DUP2 SWAP1 POP SWAP3 SWAP2 POP POP JUMP JUMPDEST PUSH1 0x0 PUSH2 0xE6D DUP4 DUP6 PUSH2 0xE56 JUMP JUMPDEST SWAP4 POP PUSH2 0xE7A DUP4 DUP6 DUP5 PUSH2 0xB72 JUMP JUMPDEST DUP3 DUP5 ADD SWAP1 POP SWAP4 SWAP3 POP POP POP JUMP JUMPDEST PUSH1 0x0 PUSH2 0xE93 DUP3 DUP5 DUP7 PUSH2 0xE61 JUMP JUMPDEST SWAP2 POP DUP2 SWAP1 POP SWAP4 SWAP3 POP POP POP JUMP JUMPDEST PUSH32 0x4C6F616E20616C72656164792065786973747300000000000000000000000000 PUSH1 0x0 DUP3 ADD MSTORE POP JUMP JUMPDEST PUSH1 0x0 PUSH2 0xED5 PUSH1 0x13 DUP4 PUSH2 0xC45 JUMP JUMPDEST SWAP2 POP PUSH2 0xEE0 DUP3 PUSH2 0xE9F JUMP JUMPDEST PUSH1 0x20 DUP3 ADD SWAP1 POP SWAP2 SWAP1 POP JUMP JUMPDEST PUSH1 0x0 PUSH1 0x20 DUP3 ADD SWAP1 POP DUP2 DUP2 SUB PUSH1 0x0 DUP4 ADD MSTORE PUSH2 0xF04 DUP2 PUSH2 0xEC8 JUMP JUMPDEST SWAP1 POP SWAP2 SWAP1 POP JUMP JUMPDEST PUSH32 0x4E487B7100000000000000000000000000000000000000000000000000000000 PUSH1 0x0 MSTORE PUSH1 0x22 PUSH1 0x4 MSTORE PUSH1 0x24 PUSH1 0x0 REVERT JUMPDEST PUSH1 0x0 PUSH1 0x2 DUP3 DIV SWAP1 POP PUSH1 0x1 DUP3 AND DUP1 PUSH2 0xF52 JUMPI PUSH1 0x7F DUP3 AND SWAP2 POP JUMPDEST PUSH1 0x20 DUP3 LT DUP2 SUB PUSH2 0xF65 JUMPI PUSH2 0xF64 PUSH2 0xF0B JUMP JUMPDEST JUMPDEST POP SWAP2 SWAP1 POP JUMP JUMPDEST PUSH1 0x0 DUP2 SWAP1 POP DUP2 PUSH1 0x0 MSTORE PUSH1 0x20 PUSH1 0x0 KECCAK256 SWAP1 POP SWAP2 SWAP1 POP JUMP JUMPDEST PUSH1 0x0 PUSH1 0x20 PUSH1 0x1F DUP4 ADD DIV SWAP1 POP SWAP2 SWAP1 POP JUMP JUMPDEST PUSH1 0x0 DUP3 DUP3 SHL SWAP1 POP SWAP3 SWAP2 POP POP JUMP JUMPDEST PUSH1 0x0 PUSH1 0x8 DUP4 MUL PUSH2 0xFCD PUSH32 0xFFFFFFFFFFFFFFFFFFFFFFFFFFFFFFFFFFFFFFFFFFFFFFFFFFFFFFFFFFFFFFFF DUP3 PUSH2 0xF90 JUMP JUMPDEST PUSH2 0xFD7 DUP7 DUP4 PUSH2 0xF90 JUMP JUMPDEST SWAP6 POP DUP1 NOT DUP5 AND SWAP4 POP DUP1 DUP7 AND DUP5 OR SWAP3 POP POP POP SWAP4 SWAP3 POP POP POP JUMP JUMPDEST PUSH1 0x0 DUP2 SWAP1 POP SWAP2 SWAP1 POP JUMP JUMPDEST PUSH1 0x0 PUSH2 0x1014 PUSH2 0x100F PUSH2 0x100A DUP5 PUSH2 0xCB9 JUMP JUMPDEST PUSH2 0xFEF JUMP JUMPDEST PUSH2 0xCB9 JUMP JUMPDEST SWAP1 POP SWAP2 SWAP1 POP JUMP JUMPDEST PUSH1 0x0 DUP2 SWAP1 POP SWAP2 SWAP1 POP JUMP JUMPDEST PUSH2 0x102E DUP4 PUSH2 0xFF9 JUMP JUMPDEST PUSH2 0x1042 PUSH2 0x103A DUP3 PUSH2 0x101B JUMP JUMPDEST DUP5 DUP5 SLOAD PUSH2 0xF9D JUMP JUMPDEST DUP3 SSTORE POP POP POP POP JUMP JUMPDEST PUSH1 0x0 SWAP1 JUMP JUMPDEST PUSH2 0x1057 PUSH2 0x104A JUMP JUMPDEST PUSH2 0x1062 DUP2 DUP5 DUP5 PUSH2 0x1025 JUMP JUMPDEST POP POP POP JUMP JUMPDEST JUMPDEST DUP2 DUP2 LT ISZERO PUSH2 0x1086 JUMPI PUSH2 0x107B PUSH1 0x0 DUP3 PUSH2 0x104F JUMP JUMPDEST PUSH1 0x1 DUP2 ADD SWAP1 POP PUSH2 0x1068 JUMP JUMPDEST POP POP JUMP JUMPDEST PUSH1 0x1F DUP3 GT ISZERO PUSH2 0x10CB JUMPI PUSH2 0x109C DUP2 PUSH2 0xF6B JUMP JUMPDEST PUSH2 0x10A5 DUP5 PUSH2 0xF80 JUMP JUMPDEST DUP2 ADD PUSH1 0x20 DUP6 LT ISZERO PUSH2 0x10B4 JUMPI DUP2 SWAP1 POP JUMPDEST PUSH2 0x10C8 PUSH2 0x10C0 DUP6 PUSH2 0xF80 JUMP JUMPDEST DUP4 ADD DUP3 PUSH2 0x1067 JUMP JUMPDEST POP POP JUMPDEST POP POP POP JUMP JUMPDEST PUSH1 0x0 DUP3 DUP3 SHR SWAP1 POP SWAP3 SWAP2 POP POP JUMP JUMPDEST PUSH1 0x0 PUSH2 0x10EE PUSH1 0x0 NOT DUP5 PUSH1 0x8 MUL PUSH2 0x10D0 JUMP JUMPDEST NOT DUP1 DUP4 AND SWAP2 POP POP SWAP3 SWAP2 POP POP JUMP JUMPDEST PUSH1 0x0 PUSH2 0x1107 DUP4 DUP4 PUSH2 0x10DD JUMP JUMPDEST SWAP2 POP DUP3 PUSH1 0x2 MUL DUP3 OR SWAP1 POP SWAP3 SWAP2 POP POP JUMP JUMPDEST PUSH2 0x1120 DUP3 PUSH2 0xC3A JUMP JUMPDEST PUSH8 0xFFFFFFFFFFFFFFFF DUP2 GT ISZERO PUSH2 0x1139 JUMPI PUSH2 0x1138 PUSH2 0xAC6 JUMP JUMPDEST JUMPDEST PUSH2 0x1143 DUP3 SLOAD PUSH2 0xF3A JUMP JUMPDEST PUSH2 0x114E DUP3 DUP3 DUP6 PUSH2 0x108A JUMP JUMPDEST PUSH1 0x0 PUSH1 0x20 SWAP1 POP PUSH1 0x1F DUP4 GT PUSH1 0x1 DUP2 EQ PUSH2 0x1181 JUMPI PUSH1 0x0 DUP5 ISZERO PUSH2 0x116F JUMPI DUP3 DUP8 ADD MLOAD SWAP1 POP JUMPDEST PUSH2 0x1179 DUP6 DUP3 PUSH2 0x10FB JUMP JUMPDEST DUP7 SSTORE POP PUSH2 0x11E1 JUMP JUMPDEST PUSH1 0x1F NOT DUP5 AND PUSH2 0x118F DUP7 PUSH2 0xF6B JUMP JUMPDEST PUSH1 0x0 JUMPDEST DUP3 DUP2 LT ISZERO PUSH2 0x11B7 JUMPI DUP5 DUP10 ADD MLOAD DUP3 SSTORE PUSH1 0x1 DUP3 ADD SWAP2 POP PUSH1 0x20 DUP6 ADD SWAP5 POP PUSH1 0x20 DUP2 ADD SWAP1 POP PUSH2 0x1192 JUMP JUMPDEST DUP7 DUP4 LT ISZERO PUSH2 0x11D4 JUMPI DUP5 DUP10 ADD MLOAD PUSH2 0x11D0 PUSH1 0x1F DUP10 AND DUP3 PUSH2 0x10DD JUMP JUMPDEST DUP4 SSTORE POP JUMPDEST PUSH1 0x1 PUSH1 0x2 DUP9 MUL ADD DUP9 SSTORE POP POP POP JUMPDEST POP POP POP POP POP POP JUMP JUMPDEST PUSH1 0x0 PUSH2 0x11F5 DUP4 DUP6 PUSH2 0xC45 JUMP JUMPDEST SWAP4 POP PUSH2 0x1202 DUP4 DUP6 DUP5 PUSH2 0xB72 JUMP JUMPDEST PUSH2 0x120B DUP4 PUSH2 0xAB5 JUMP JUMPDEST DUP5 ADD SWAP1 POP SWAP4 SWAP3 POP POP POP JUMP JUMPDEST PUSH1 0x0 PUSH1 0x40 DUP3 ADD SWAP1 POP DUP2 DUP2 SUB PUSH1 0x0 DUP4 ADD MSTORE PUSH2 0x1231 DUP2 DUP7 DUP9 PUSH2 0x11E9 JUMP JUMPDEST SWAP1 POP DUP2 DUP2 SUB PUSH1 0x20 DUP4 ADD MSTORE PUSH2 0x1246 DUP2 DUP5 DUP7 PUSH2 0x11E9 JUMP JUMPDEST SWAP1 POP SWAP6 SWAP5 POP POP POP POP POP JUMP JUMPDEST PUSH32 0x4C6F616E20646F6573206E6F7420657869737400000000000000000000000000 PUSH1 0x0 DUP3 ADD MSTORE POP JUMP JUMPDEST PUSH1 0x0 PUSH2 0x1287 PUSH1 0x13 DUP4 PUSH2 0xC45 JUMP JUMPDEST SWAP2 POP PUSH2 0x1292 DUP3 PUSH2 0x1251 JUMP JUMPDEST PUSH1 0x20 DUP3 ADD SWAP1 POP SWAP2 SWAP1 POP JUMP JUMPDEST PUSH1 0x0 PUSH1 0x20 DUP3 ADD SWAP1 POP DUP2 DUP2 SUB PUSH1 0x0 DUP4 ADD MSTORE PUSH2 0x12B6 DUP2 PUSH2 0x127A JUMP JUMPDEST SWAP1 POP SWAP2 SWAP1 POP JUMP JUMPDEST PUSH32 0x426F6F6B20616C72656164792072657475726E65640000000000000000000000 PUSH1 0x0 DUP3 ADD MSTORE POP JUMP JUMPDEST PUSH1 0x0 PUSH2 0x12F3 PUSH1 0x15 DUP4 PUSH2 0xC45 JUMP JUMPDEST SWAP2 POP PUSH2 0x12FE DUP3 PUSH2 0x12BD JUMP JUMPDEST PUSH1 0x20 DUP3 ADD SWAP1 POP SWAP2 SWAP1 POP JUMP JUMPDEST PUSH1 0x0 PUSH1 0x20 DUP3 ADD SWAP1 POP DUP2 DUP2 SUB PUSH1 0x0 DUP4 ADD MSTORE PUSH2 0x1322 DUP2 PUSH2 0x12E6 JUMP JUMPDEST SWAP1 POP SWAP2 SWAP1 POP JUMP JUMPDEST PUSH1 0x0 PUSH1 0x40 DUP3 ADD SWAP1 POP PUSH2 0x133E PUSH1 0x0 DUP4 ADD DUP6 PUSH2 0xCC3 JUMP JUMPDEST PUSH2 0x134B PUSH1 0x20 DUP4 ADD DUP5 PUSH2 0xCC3 JUMP JUMPDEST SWAP4 SWAP3 POP POP POP JUMP INVALID LOG2 PUSH5 0x6970667358 0x22 SLT KECCAK256 0xAD 0xBA PUSH14 0x23207D54218A8F50B3C7106F5A0A 0xD6 PUSH10 0xA2D12682948F7248EBD5 CALLDATALOAD PUSH3 0xFF6473 PUSH16 0x6C634300081800330000000000000000 "},"methodIdentifiers":{"loans(string)":"c6141f63","owner()":"8da5cb5b","recordLoan(string,string,string)":"369af92b","recordReturn(string,uint256)":"f22904d7","renounceOwnership()":"715018a6","transferOwnership(address)":"f2fde38b"}}}}}