{
  "_format": "hh-sol-artifact-1",
  "contractName": "SmartCampusIdentity",
  "sourceName": "contracts/SmartCampusIdentity.sol",
  "abi": [
    {
      "inputs": [
        {
          "internalType": "address",
          "name": "initialOwner",
          "type": "address"
        }
      ],
      "stateMutability": "nonpayable",
      "type": "constructor"
    },
    {
      "inputs": [
        {
          "internalType": "address",
          "name": "owner",
          "type": "address"
        }
      ],
      "name": "OwnableInvalidOwner",
      "type": "error"
    },
    {
      "inputs": [
        {
          "internalType": "address",
          "name": "account",
          "type": "address"
        }
      ],
      "name": "OwnableUnauthorizedAccount",
      "type": "error"
    },
    {
      "anonymous": false,
      "inputs": [
        {
          "indexed": true,
          "internalType": "address",
          "name": "user",
          "type": "address"
        },
        {
          "indexed": false,
          "internalType": "string",
          "name": "resourceId",
          "type": "string"
        },
        {
          "indexed": false,
          "internalType": "uint256",
          "name": "expiry",
          "type": "uint256"
        }
      ],
      "name": "AccessGranted",
      "type": "event"
    },
    {
      "anonymous": false,
      "inputs": [
        {
          "indexed": true,
          "internalType": "address",
          "name": "user",
          "type": "address"
        },
        {
          "indexed": false,
          "internalType": "string",
          "name": "kycHash",
          "type": "string"
        }
      ],
      "name": "KYCVerified",
      "type": "event"
    },
    {
      "anonymous": false,
      "inputs": [
        {
          "indexed": true,
          "internalType": "address",
          "name": "previousOwner",
          "type": "address"
        },
        {
          "indexed": true,
          "internalType": "address",
          "name": "newOwner",
          "type": "address"
        }
      ],
      "name": "OwnershipTransferred",
      "type": "event"
    },
    {
      "anonymous": false,
      "inputs": [
        {
          "indexed": true,
          "internalType": "string",
          "name": "tournamentId",
          "type": "string"
        },
        {
          "indexed": false,
          "internalType": "uint256",
          "name": "amount",
          "type": "uint256"
        }
      ],
      "name": "TournamentFunded",
      "type": "event"
    },
    {
      "anonymous": false,
      "inputs": [
        {
          "indexed": true,
          "internalType": "string",
          "name": "tournamentId",
          "type": "string"
        },
        {
          "indexed": true,
          "internalType": "address",
          "name": "winner",
          "type": "address"
        },
        {
          "indexed": false,
          "internalType": "uint256",
          "name": "amount",
          "type": "uint256"
        }
      ],
      "name": "TournamentPrizeDistributed",
      "type": "event"
    },
    {
      "inputs": [
        {
          "internalType": "string",
          "name": "tournamentId",
          "type": "string"
        },
        {
          "internalType": "address",
          "name": "winner",
          "type": "address"
        }
      ],
      "name": "distributeTournamentPrize",
      "outputs": [],
      "stateMutability": "nonpayable",
      "type": "function"
    },
    {
      "inputs": [
        {
          "internalType": "string",
          "name": "tournamentId",
          "type": "string"
        }
      ],
      "name": "fundTournament",
      "outputs": [],
      "stateMutability": "payable",
      "type": "function"
    },
    {
      "inputs": [
        {
          "internalType": "address",
          "name": "user",
          "type": "address"
        },
        {
          "internalType": "string",
          "name": "resourceId",
          "type": "string"
        },
        {
          "internalType": "uint256",
          "name": "duration",
          "type": "uint256"
        }
      ],
      "name": "grantAccess",
      "outputs": [],
      "stateMutability": "nonpayable",
      "type": "function"
    },
    {
      "inputs": [
        {
          "internalType": "address",
          "name": "user",
          "type": "address"
        },
        {
          "internalType": "string",
          "name": "resourceId",
          "type": "string"
        }
      ],
      "name": "hasAccess",
      "outputs": [
        {
          "internalType": "bool",
          "name": "",
          "type": "bool"
        }
      ],
      "stateMutability": "view",
      "type": "function"
    },
    {
      "inputs": [
        {
          "internalType": "address",
          "name": "",
          "type": "address"
        }
      ],
      "name": "identities",
      "outputs": [
        {
          "internalType": "string",
          "name": "userId",
          "type": "string"
        },
        {
          "internalType": "string",
          "name": "kycHash",
          "type": "string"
        },
        {
          "internalType": "uint256",
          "name": "verifiedAt",
          "type": "uint256"
        }
      ],
      "stateMutability": "view",
      "type": "function"
    },
    {
      "inputs": [],
      "name": "owner",
      "outputs": [
        {
          "internalType": "address",
          "name": "",
          "type": "address"
        }
      ],
      "stateMutability": "view",
      "type": "function"
    },
    {
      "inputs": [
        {
          "internalType": "bytes32",
          "name": "",
          "type": "bytes32"
        }
      ],
      "name": "permissions",
      "outputs": [
        {
          "internalType": "address",
          "name": "user",
          "type": "address"
        },
        {
          "internalType": "string",
          "name": "resourceId",
          "type": "string"
        },
        {
          "internalType": "uint256",
          "name": "expiry",
          "type": "uint256"
        }
      ],
      "stateMutability": "view",
      "type": "function"
    },
    {
      "inputs": [],
      "name": "renounceOwnership",
      "outputs": [],
      "stateMutability": "nonpayable",
      "type": "function"
    },
    {
      "inputs": [
        {
          "internalType": "string",
          "name": "",
          "type": "string"
        }
      ],
      "name": "tournamentPrizes",
      "outputs": [
        {
          "internalType": "uint256",
          "name": "",
          "type": "uint256"
        }
      ],
      "stateMutability": "view",
      "type": "function"
    },
    {
      "inputs": [
        {
          "internalType": "address",
          "name": "newOwner",
          "type": "address"
        }
      ],
      "name": "transferOwnership",
      "outputs": [],
      "stateMutability": "nonpayable",
      "type": "function"
    },
    {
      "inputs": [
        {
          "internalType": "address",
          "name": "user",
          "type": "address"
        },
        {
          "internalType": "string",
          "name": "userId",
          "type": "string"
        },
        {
          "internalType": "string",
          "name": "kycHash",
          "type": "string"
        }
      ],
      "name": "verifyKYC",
      "outputs": [],
      "stateMutability": "nonpayable",
      "type": "function"
    }
  ],
  "bytecode": "0x60806040523480156200001157600080fd5b5060405162001b8438038062001b848339818101604052810190620000379190620001f4565b80600073ffffffffffffffffffffffffffffffffffffffff168173ffffffffffffffffffffffffffffffffffffffff1603620000ad5760006040517f1e4fbdf7000000000000000000000000000000000000000000000000000000008152600401620000a4919062000237565b60405180910390fd5b620000be81620000c660201b60201c565b505062000254565b60008060009054906101000a900473ffffffffffffffffffffffffffffffffffffffff169050816000806101000a81548173ffffffffffffffffffffffffffffffffffffffff021916908373ffffffffffffffffffffffffffffffffffffffff1602179055508173ffffffffffffffffffffffffffffffffffffffff168173ffffffffffffffffffffffffffffffffffffffff167f8be0079c531659141344cd1fd0a4f28419497f9722a3daafe3b4186f6b6457e060405160405180910390a35050565b600080fd5b600073ffffffffffffffffffffffffffffffffffffffff82169050919050565b6000620001bc826200018f565b9050919050565b620001ce81620001af565b8114620001da57600080fd5b50565b600081519050620001ee81620001c3565b92915050565b6000602082840312156200020d576200020c6200018a565b5b60006200021d84828501620001dd565b91505092915050565b6200023181620001af565b82525050565b60006020820190506200024e600083018462000226565b92915050565b61192080620002646000396000f3fe60806040526004361061009c5760003560e01c80638da5cb5b116100645780638da5cb5b14610170578063a8ccb2911461019b578063b4d2388f146101d8578063df43d7c214610217578063f2fde38b14610233578063f653b81e1461025c5761009c565b806304fb138e146100a15780631dff3364146100ca5780634ffe5bfc146100f3578063715018a6146101305780637f93a96114610147575b600080fd5b3480156100ad57600080fd5b506100c860048036038101906100c39190610d5b565b61029b565b005b3480156100d657600080fd5b506100f160048036038101906100ec9190610df0565b610415565b005b3480156100ff57600080fd5b5061011a60048036038101906101159190610f91565b6105c4565b6040516101279190610ff3565b60405180910390f35b34801561013c57600080fd5b506101456105f2565b005b34801561015357600080fd5b5061016e6004803603810190610169919061103a565b610606565b005b34801561017c57600080fd5b50610185610799565b60405161019291906110bd565b60405180910390f35b3480156101a757600080fd5b506101c260048036038101906101bd91906110d8565b6107c2565b6040516101cf9190611153565b60405180910390f35b3480156101e457600080fd5b506101ff60048036038101906101fa91906111a4565b610815565b60405161020e93929190611250565b60405180910390f35b610231600480360381019061022c919061128e565b6108e7565b005b34801561023f57600080fd5b5061025a600480360381019061025591906112db565b610971565b005b34801561026857600080fd5b50610283600480360381019061027e91906112db565b6109f7565b60405161029293929190611308565b60405180910390f35b6102a3610b31565b604051806060016040528085858080601f016020809104026020016040519081016040528093929190818152602001838380828437600081840152601f19601f82011690508083019250505050505050815260200183838080601f016020809104026020016040519081016040528093929190818152602001838380828437600081840152601f19601f82011690508083019250505050505050815260200142815250600160008773ffffffffffffffffffffffffffffffffffffffff1673ffffffffffffffffffffffffffffffffffffffff168152602001908152602001600020600082015181600001908161039a9190611559565b5060208201518160010190816103b09190611559565b50604082015181600201559050508473ffffffffffffffffffffffffffffffffffffffff167fcbd10c05d170a0368716429b8f44c3674382b4603d29d8e29049c62adb9d284f8383604051610406929190611658565b60405180910390a25050505050565b61041d610b31565b6000600384846040516104319291906116ac565b908152602001604051809103902054905060008111610485576040517f08c379a000000000000000000000000000000000000000000000000000000000815260040161047c90611711565b60405180910390fd5b6000600385856040516104999291906116ac565b90815260200160405180910390208190555060008273ffffffffffffffffffffffffffffffffffffffff16826040516104d190611762565b60006040518083038185875af1925050503d806000811461050e576040519150601f19603f3d011682016040523d82523d6000602084013e610513565b606091505b5050905080610557576040517f08c379a000000000000000000000000000000000000000000000000000000000815260040161054e906117c3565b60405180910390fd5b8273ffffffffffffffffffffffffffffffffffffffff16858560405161057e9291906116ac565b60405180910390207f9654973392262c6649f7df95808b8faa4c98af3655ab9ca93a11dce6b91ee957846040516105b59190610ff3565b60405180910390a35050505050565b6003818051602081018201805184825260208301602085012081835280955050505050506000915090505481565b6105fa610b31565b6106046000610bb8565b565b61060e610b31565b60008484846040516020016106259392919061182b565b6040516020818303038152906040528051906020012090506000824261064b9190611884565b905060405180606001604052808773ffffffffffffffffffffffffffffffffffffffff16815260200186868080601f016020809104026020016040519081016040528093929190818152602001838380828437600081840152601f19601f820116905080830192505050505050508152602001828152506002600084815260200190815260200160002060008201518160000160006101000a81548173ffffffffffffffffffffffffffffffffffffffff021916908373ffffffffffffffffffffffffffffffffffffffff16021790555060208201518160010190816107319190611559565b50604082015181600201559050508573ffffffffffffffffffffffffffffffffffffffff167f3b0b21116afe63a37708e6241426883ad2a446b946bde89994a5293702a60a88868684604051610789939291906118b8565b60405180910390a2505050505050565b60008060009054906101000a900473ffffffffffffffffffffffffffffffffffffffff16905090565b6000808484846040516020016107da9392919061182b565b604051602081830303815290604052805190602001209050426002600083815260200190815260200160002060020154119150509392505050565b60026020528060005260406000206000915090508060000160009054906101000a900473ffffffffffffffffffffffffffffffffffffffff169080600101805461085e9061137c565b80601f016020809104026020016040519081016040528092919081815260200182805461088a9061137c565b80156108d75780601f106108ac576101008083540402835291602001916108d7565b820191906000526020600020905b8154815290600101906020018083116108ba57829003601f168201915b5050505050908060020154905083565b34600383836040516108fa9291906116ac565b908152602001604051809103902060008282546109179190611884565b92505081905550818160405161092e9291906116ac565b60405180910390207f47f6045ad406e8a0c245b3ac0544132603a2e028c6724048b58778523fd76d49346040516109659190610ff3565b60405180910390a25050565b610979610b31565b600073ffffffffffffffffffffffffffffffffffffffff168173ffffffffffffffffffffffffffffffffffffffff16036109eb5760006040517f1e4fbdf70000000000000000000000000000000000000000000000000000000081526004016109e291906110bd565b60405180910390fd5b6109f481610bb8565b50565b6001602052806000526040600020600091509050806000018054610a1a9061137c565b80601f0160208091040260200160405190810160405280929190818152602001828054610a469061137c565b8015610a935780601f10610a6857610100808354040283529160200191610a93565b820191906000526020600020905b815481529060010190602001808311610a7657829003601f168201915b505050505090806001018054610aa89061137c565b80601f0160208091040260200160405190810160405280929190818152602001828054610ad49061137c565b8015610b215780601f10610af657610100808354040283529160200191610b21565b820191906000526020600020905b815481529060010190602001808311610b0457829003601f168201915b5050505050908060020154905083565b610b39610c7c565b73ffffffffffffffffffffffffffffffffffffffff16610b57610799565b73ffffffffffffffffffffffffffffffffffffffff1614610bb657610b7a610c7c565b6040517f118cdaa7000000000000000000000000000000000000000000000000000000008152600401610bad91906110bd565b60405180910390fd5b565b60008060009054906101000a900473ffffffffffffffffffffffffffffffffffffffff169050816000806101000a81548173ffffffffffffffffffffffffffffffffffffffff021916908373ffffffffffffffffffffffffffffffffffffffff1602179055508173ffffffffffffffffffffffffffffffffffffffff168173ffffffffffffffffffffffffffffffffffffffff167f8be0079c531659141344cd1fd0a4f28419497f9722a3daafe3b4186f6b6457e060405160405180910390a35050565b600033905090565b6000604051905090565b600080fd5b600080fd5b600073ffffffffffffffffffffffffffffffffffffffff82169050919050565b6000610cc382610c98565b9050919050565b610cd381610cb8565b8114610cde57600080fd5b50565b600081359050610cf081610cca565b92915050565b600080fd5b600080fd5b600080fd5b60008083601f840112610d1b57610d1a610cf6565b5b8235905067ffffffffffffffff811115610d3857610d37610cfb565b5b602083019150836001820283011115610d5457610d53610d00565b5b9250929050565b600080600080600060608688031215610d7757610d76610c8e565b5b6000610d8588828901610ce1565b955050602086013567ffffffffffffffff811115610da657610da5610c93565b5b610db288828901610d05565b9450945050604086013567ffffffffffffffff811115610dd557610dd4610c93565b5b610de188828901610d05565b92509250509295509295909350565b600080600060408486031215610e0957610e08610c8e565b5b600084013567ffffffffffffffff811115610e2757610e26610c93565b5b610e3386828701610d05565b93509350506020610e4686828701610ce1565b9150509250925092565b600080fd5b6000601f19601f8301169050919050565b7f4e487b7100000000000000000000000000000000000000000000000000000000600052604160045260246000fd5b610e9e82610e55565b810181811067ffffffffffffffff82111715610ebd57610ebc610e66565b5b80604052505050565b6000610ed0610c84565b9050610edc8282610e95565b919050565b600067ffffffffffffffff821115610efc57610efb610e66565b5b610f0582610e55565b9050602081019050919050565b82818337600083830152505050565b6000610f34610f2f84610ee1565b610ec6565b905082815260208101848484011115610f5057610f4f610e50565b5b610f5b848285610f12565b509392505050565b600082601f830112610f7857610f77610cf6565b5b8135610f88848260208601610f21565b91505092915050565b600060208284031215610fa757610fa6610c8e565b5b600082013567ffffffffffffffff811115610fc557610fc4610c93565b5b610fd184828501610f63565b91505092915050565b6000819050919050565b610fed81610fda565b82525050565b60006020820190506110086000830184610fe4565b92915050565b61101781610fda565b811461102257600080fd5b50565b6000813590506110348161100e565b92915050565b6000806000806060858703121561105457611053610c8e565b5b600061106287828801610ce1565b945050602085013567ffffffffffffffff81111561108357611082610c93565b5b61108f87828801610d05565b935093505060406110a287828801611025565b91505092959194509250565b6110b781610cb8565b82525050565b60006020820190506110d260008301846110ae565b92915050565b6000806000604084860312156110f1576110f0610c8e565b5b60006110ff86828701610ce1565b935050602084013567ffffffffffffffff8111156111205761111f610c93565b5b61112c86828701610d05565b92509250509250925092565b60008115159050919050565b61114d81611138565b82525050565b60006020820190506111686000830184611144565b92915050565b6000819050919050565b6111818161116e565b811461118c57600080fd5b50565b60008135905061119e81611178565b92915050565b6000602082840312156111ba576111b9610c8e565b5b60006111c88482850161118f565b91505092915050565b600081519050919050565b600082825260208201905092915050565b60005b8381101561120b5780820151818401526020810190506111f0565b60008484015250505050565b6000611222826111d1565b61122c81856111dc565b935061123c8185602086016111ed565b61124581610e55565b840191505092915050565b600060608201905061126560008301866110ae565b81810360208301526112778185611217565b90506112866040830184610fe4565b949350505050565b600080602083850312156112a5576112a4610c8e565b5b600083013567ffffffffffffffff8111156112c3576112c2610c93565b5b6112cf85828601610d05565b92509250509250929050565b6000602082840312156112f1576112f0610c8e565b5b60006112ff84828501610ce1565b91505092915050565b600060608201905081810360008301526113228186611217565b905081810360208301526113368185611217565b90506113456040830184610fe4565b949350505050565b7f4e487b7100000000000000000000000000000000000000000000000000000000600052602260045260246000fd5b6000600282049050600182168061139457607f821691505b6020821081036113a7576113a661134d565b5b50919050565b60008190508160005260206000209050919050565b60006020601f8301049050919050565b600082821b905092915050565b60006008830261140f7fffffffffffffffffffffffffffffffffffffffffffffffffffffffffffffffff826113d2565b61141986836113d2565b95508019841693508086168417925050509392505050565b6000819050919050565b600061145661145161144c84610fda565b611431565b610fda565b9050919050565b6000819050919050565b6114708361143b565b61148461147c8261145d565b8484546113df565b825550505050565b600090565b61149961148c565b6114a4818484611467565b505050565b5b818110156114c8576114bd600082611491565b6001810190506114aa565b5050565b601f82111561150d576114de816113ad565b6114e7846113c2565b810160208510156114f6578190505b61150a611502856113c2565b8301826114a9565b50505b505050565b600082821c905092915050565b600061153060001984600802611512565b1980831691505092915050565b6000611549838361151f565b9150826002028217905092915050565b611562826111d1565b67ffffffffffffffff81111561157b5761157a610e66565b5b611585825461137c565b6115908282856114cc565b600060209050601f8311600181146115c357600084156115b1578287015190505b6115bb858261153d565b865550611623565b601f1984166115d1866113ad565b60005b828110156115f9578489015182556001820191506020850194506020810190506115d4565b868310156116165784890151611612601f89168261151f565b8355505b6001600288020188555050505b505050505050565b600061163783856111dc565b9350611644838584610f12565b61164d83610e55565b840190509392505050565b6000602082019050818103600083015261167381848661162b565b90509392505050565b600081905092915050565b6000611693838561167c565b93506116a0838584610f12565b82840190509392505050565b60006116b9828486611687565b91508190509392505050565b7f4e6f207072697a6520706f6f6c00000000000000000000000000000000000000600082015250565b60006116fb600d836111dc565b9150611706826116c5565b602082019050919050565b6000602082019050818103600083015261172a816116ee565b9050919050565b600081905092915050565b50565b600061174c600083611731565b91506117578261173c565b600082019050919050565b600061176d8261173f565b9150819050919050565b7f5072697a6520646973747269627574696f6e206661696c656400000000000000600082015250565b60006117ad6019836111dc565b91506117b882611777565b602082019050919050565b600060208201905081810360008301526117dc816117a0565b9050919050565b60008160601b9050919050565b60006117fb826117e3565b9050919050565b600061180d826117f0565b9050919050565b61182561182082610cb8565b611802565b82525050565b60006118378286611814565b601482019150611848828486611687565b9150819050949350505050565b7f4e487b7100000000000000000000000000000000000000000000000000000000600052601160045260246000fd5b600061188f82610fda565b915061189a83610fda565b92508282019050808211156118b2576118b1611855565b5b92915050565b600060408201905081810360008301526118d381858761162b565b90506118e26020830184610fe4565b94935050505056fea2646970667358221220d66f70a71e81993f0d0a2ed2dab427b3e52a361285dd6c505de463b7c82f7f5d64736f6c63430008180033",
  "linkReferences": {},
  "deployedLinkReferences": {}
}