{
  "_format": "hh-sol-artifact-1",
  "contractName": "SmartCampusComplaints",
  "sourceName": "contracts/SmartCampusComplaints.sol",
  "abi": [
    {
      "inputs": [
        {
          "internalType": "address",
          "name": "initialOwner",
          "type": "address"
        }
      ],
      "stateMutability": "nonpayable",
      "type": "constructor"
    },
    {
      "inputs": [
        {
          "internalType": "address",
          "name": "owner",
          "type": "address"
        }
      ],
      "name": "OwnableInvalidOwner",
      "type": "error"
    },
    {
      "inputs": [
        {
          "internalType": "address",
          "name": "account",
          "type": "address"
        }
      ],
      "name": "OwnableUnauthorizedAccount",
      "type": "error"
    },
    {
      "anonymous": false,
      "inputs": [
        {
          "indexed": true,
          "internalType": "string",
          "name": "complaintId",
          "type": "string"
        },
        {
          "indexed": false,
          "internalType": "uint256",
          "name": "timestamp",
          "type": "uint256"
        }
      ],
      "name": "ComplaintEscalated",
      "type": "event"
    },
    {
      "anonymous": false,
      "inputs": [
        {
          "indexed": true,
          "internalType": "string",
          "name": "complaintId",
          "type": "string"
        },
        {
          "indexed": false,
          "internalType": "uint256",
          "name": "deadline",
          "type": "uint256"
        },
        {
          "indexed": false,
          "internalType": "uint256",
          "name": "timestamp",
          "type": "uint256"
        }
      ],
      "name": "ComplaintRegistered",
      "type": "event"
    },
    {
      "anonymous": false,
      "inputs": [
        {
          "indexed": true,
          "internalType": "string",
          "name": "complaintId",
          "type": "string"
        },
        {
          "indexed": false,
          "internalType": "uint256",
          "name": "timestamp",
          "type": "uint256"
        }
      ],
      "name": "ComplaintResolved",
      "type": "event"
    },
    {
      "anonymous": false,
      "inputs": [
        {
          "indexed": true,
          "internalType": "address",
          "name": "previousOwner",
          "type": "address"
        },
        {
          "indexed": true,
          "internalType": "address",
          "name": "newOwner",
          "type": "address"
        }
      ],
      "name": "OwnershipTransferred",
      "type": "event"
    },
    {
      "inputs": [
        {
          "internalType": "string",
          "name": "",
          "type": "string"
        }
      ],
      "name": "complaints",
      "outputs": [
        {
          "internalType": "string",
          "name": "complaintId",
          "type": "string"
        },
        {
          "internalType": "uint256",
          "name": "registeredAt",
          "type": "uint256"
        },
        {
          "internalType": "uint256",
          "name": "deadline",
          "type": "uint256"
        },
        {
          "internalType": "uint256",
          "name": "resolvedAt",
          "type": "uint256"
        },
        {
          "internalType": "bool",
          "name": "isResolved",
          "type": "bool"
        }
      ],
      "stateMutability": "view",
      "type": "function"
    },
    {
      "inputs": [],
      "name": "owner",
      "outputs": [
        {
          "internalType": "address",
          "name": "",
          "type": "address"
        }
      ],
      "stateMutability": "view",
      "type": "function"
    },
    {
      "inputs": [
        {
          "internalType": "string",
          "name": "complaintId",
          "type": "string"
        },
        {
          "internalType": "uint256",
          "name": "deadline",
          "type": "uint256"
        }
      ],
      "name": "registerComplaint",
      "outputs": [],
      "stateMutability": "nonpayable",
      "type": "function"
    },
    {
      "inputs": [],
      "name": "renounceOwnership",
      "outputs": [],
      "stateMutability": "nonpayable",
      "type": "function"
    },
    {
      "inputs": [
        {
          "internalType": "string",
          "name": "complaintId",
          "type": "string"
        }
      ],
      "name": "resolveComplaint",
      "outputs": [],
      "stateMutability": "nonpayable",
      "type": "function"
    },
    {
      "inputs": [
        {
          "internalType": "address",
          "name": "newOwner",
          "type": "address"
        }
      ],
      "name": "transferOwnership",
      "outputs": [],
      "stateMutability": "nonpayable",
      "type": "function"
    }
  ],
  "bytecode": "0x60806040523480156200001157600080fd5b5060405162001378380380620013788339818101604052810190620000379190620001f4565b80600073ffffffffffffffffffffffffffffffffffffffff168173ffffffffffffffffffffffffffffffffffffffff1603620000ad5760006040517f1e4fbdf7000000000000000000000000000000000000000000000000000000008152600401620000a4919062000237565b60405180910390fd5b620000be81620000c660201b60201c565b505062000254565b60008060009054906101000a900473ffffffffffffffffffffffffffffffffffffffff169050816000806101000a81548173ffffffffffffffffffffffffffffffffffffffff021916908373ffffffffffffffffffffffffffffffffffffffff1602179055508173ffffffffffffffffffffffffffffffffffffffff168173ffffffffffffffffffffffffffffffffffffffff167f8be0079c531659141344cd1fd0a4f28419497f9722a3daafe3b4186f6b6457e060405160405180910390a35050565b600080fd5b600073ffffffffffffffffffffffffffffffffffffffff82169050919050565b6000620001bc826200018f565b9050919050565b620001ce81620001af565b8114620001da57600080fd5b50565b600081519050620001ee81620001c3565b92915050565b6000602082840312156200020d576200020c6200018a565b5b60006200021d84828501620001dd565b91505092915050565b6200023181620001af565b82525050565b60006020820190506200024e600083018462000226565b92915050565b61111480620002646000396000f3fe608060405234801561001057600080fd5b50600436106100625760003560e01c80630c95f24a146100675780637131bebe14610083578063715018a61461009f5780638da5cb5b146100a9578063f2fde38b146100c7578063f423c096146100e3575b600080fd5b610081600480360381019061007c919061080a565b610117565b005b61009d6004803603810190610098919061088d565b6102f0565b005b6100a761049a565b005b6100b16104ae565b6040516100be919061092e565b60405180910390f35b6100e160048036038101906100dc9190610975565b6104d7565b005b6100fd60048036038101906100f89190610ae3565b61055d565b60405161010e959493929190610bd5565b60405180910390f35b61011f61063e565b600060018383604051610133929190610c5f565b90815260200160405180910390206001015411610185576040517f08c379a000000000000000000000000000000000000000000000000000000000815260040161017c90610cc4565b60405180910390fd5b60018282604051610197929190610c5f565b908152602001604051809103902060040160009054906101000a900460ff16156101f6576040517f08c379a00000000000000000000000000000000000000000000000000000000081526004016101ed90610d30565b60405180910390fd5b60006001838360405161020a929190610c5f565b9081526020016040518091039020905042816003018190555060018160040160006101000a81548160ff021916908315150217905550806002015442111561029c57828260405161025c929190610c5f565b60405180910390207f23510b3d5f880cdf019fd97aa2500442766951a55a01f6db0d7bdf6bcafbe83d426040516102939190610d50565b60405180910390a25b82826040516102ac929190610c5f565b60405180910390207fac5b3ddd973715489d6f293b8141ae796bb175ae4f3d245c4f307030ae6f3bf1426040516102e39190610d50565b60405180910390a2505050565b6102f861063e565b60006001848460405161030c929190610c5f565b9081526020016040518091039020600101541461035e576040517f08c379a000000000000000000000000000000000000000000000000000000000815260040161035590610db7565b60405180910390fd5b6040518060a0016040528084848080601f016020809104026020016040519081016040528093929190818152602001838380828437600081840152601f19601f8201169050808301925050505050505081526020014281526020018281526020016000815260200160001515815250600184846040516103df929190610c5f565b908152602001604051809103902060008201518160000190816104029190610fe3565b5060208201518160010155604082015181600201556060820151816003015560808201518160040160006101000a81548160ff0219169083151502179055509050508282604051610454929190610c5f565b60405180910390207fe6e0b8233c554cb9e60c4a71916a99c29657e2195e5794c1d022685d41ba60c5824260405161048d9291906110b5565b60405180910390a2505050565b6104a261063e565b6104ac60006106c5565b565b60008060009054906101000a900473ffffffffffffffffffffffffffffffffffffffff16905090565b6104df61063e565b600073ffffffffffffffffffffffffffffffffffffffff168173ffffffffffffffffffffffffffffffffffffffff16036105515760006040517f1e4fbdf7000000000000000000000000000000000000000000000000000000008152600401610548919061092e565b60405180910390fd5b61055a816106c5565b50565b60018180516020810182018051848252602083016020850120818352809550505050505060009150905080600001805461059690610e06565b80601f01602080910402602001604051908101604052809291908181526020018280546105c290610e06565b801561060f5780601f106105e45761010080835404028352916020019161060f565b820191906000526020600020905b8154815290600101906020018083116105f257829003601f168201915b5050505050908060010154908060020154908060030154908060040160009054906101000a900460ff16905085565b610646610789565b73ffffffffffffffffffffffffffffffffffffffff166106646104ae565b73ffffffffffffffffffffffffffffffffffffffff16146106c357610687610789565b6040517f118cdaa70000000000000000000000000000000000000000000000000000000081526004016106ba919061092e565b60405180910390fd5b565b60008060009054906101000a900473ffffffffffffffffffffffffffffffffffffffff169050816000806101000a81548173ffffffffffffffffffffffffffffffffffffffff021916908373ffffffffffffffffffffffffffffffffffffffff1602179055508173ffffffffffffffffffffffffffffffffffffffff168173ffffffffffffffffffffffffffffffffffffffff167f8be0079c531659141344cd1fd0a4f28419497f9722a3daafe3b4186f6b6457e060405160405180910390a35050565b600033905090565b6000604051905090565b600080fd5b600080fd5b600080fd5b600080fd5b600080fd5b60008083601f8401126107ca576107c96107a5565b5b8235905067ffffffffffffffff8111156107e7576107e66107aa565b5b602083019150836001820283011115610803576108026107af565b5b9250929050565b600080602083850312156108215761082061079b565b5b600083013567ffffffffffffffff81111561083f5761083e6107a0565b5b61084b858286016107b4565b92509250509250929050565b6000819050919050565b61086a81610857565b811461087557600080fd5b50565b60008135905061088781610861565b92915050565b6000806000604084860312156108a6576108a561079b565b5b600084013567ffffffffffffffff8111156108c4576108c36107a0565b5b6108d0868287016107b4565b935093505060206108e386828701610878565b9150509250925092565b600073ffffffffffffffffffffffffffffffffffffffff82169050919050565b6000610918826108ed565b9050919050565b6109288161090d565b82525050565b6000602082019050610943600083018461091f565b92915050565b6109528161090d565b811461095d57600080fd5b50565b60008135905061096f81610949565b92915050565b60006020828403121561098b5761098a61079b565b5b600061099984828501610960565b91505092915050565b600080fd5b6000601f19601f8301169050919050565b7f4e487b7100000000000000000000000000000000000000000000000000000000600052604160045260246000fd5b6109f0826109a7565b810181811067ffffffffffffffff82111715610a0f57610a0e6109b8565b5b80604052505050565b6000610a22610791565b9050610a2e82826109e7565b919050565b600067ffffffffffffffff821115610a4e57610a4d6109b8565b5b610a57826109a7565b9050602081019050919050565b82818337600083830152505050565b6000610a86610a8184610a33565b610a18565b905082815260208101848484011115610aa257610aa16109a2565b5b610aad848285610a64565b509392505050565b600082601f830112610aca57610ac96107a5565b5b8135610ada848260208601610a73565b91505092915050565b600060208284031215610af957610af861079b565b5b600082013567ffffffffffffffff811115610b1757610b166107a0565b5b610b2384828501610ab5565b91505092915050565b600081519050919050565b600082825260208201905092915050565b60005b83811015610b66578082015181840152602081019050610b4b565b60008484015250505050565b6000610b7d82610b2c565b610b878185610b37565b9350610b97818560208601610b48565b610ba0816109a7565b840191505092915050565b610bb481610857565b82525050565b60008115159050919050565b610bcf81610bba565b82525050565b600060a0820190508181036000830152610bef8188610b72565b9050610bfe6020830187610bab565b610c0b6040830186610bab565b610c186060830185610bab565b610c256080830184610bc6565b9695505050505050565b600081905092915050565b6000610c468385610c2f565b9350610c53838584610a64565b82840190509392505050565b6000610c6c828486610c3a565b91508190509392505050565b7f436f6d706c61696e7420646f6573206e6f742065786973740000000000000000600082015250565b6000610cae601883610b37565b9150610cb982610c78565b602082019050919050565b60006020820190508181036000830152610cdd81610ca1565b9050919050565b7f436f6d706c61696e7420616c7265616479207265736f6c766564000000000000600082015250565b6000610d1a601a83610b37565b9150610d2582610ce4565b602082019050919050565b60006020820190508181036000830152610d4981610d0d565b9050919050565b6000602082019050610d656000830184610bab565b92915050565b7f436f6d706c61696e7420616c7265616479206578697374730000000000000000600082015250565b6000610da1601883610b37565b9150610dac82610d6b565b602082019050919050565b60006020820190508181036000830152610dd081610d94565b9050919050565b7f4e487b7100000000000000000000000000000000000000000000000000000000600052602260045260246000fd5b60006002820490506001821680610e1e57607f821691505b602082108103610e3157610e30610dd7565b5b50919050565b60008190508160005260206000209050919050565b60006020601f8301049050919050565b600082821b905092915050565b600060088302610e997fffffffffffffffffffffffffffffffffffffffffffffffffffffffffffffffff82610e5c565b610ea38683610e5c565b95508019841693508086168417925050509392505050565b6000819050919050565b6000610ee0610edb610ed684610857565b610ebb565b610857565b9050919050565b6000819050919050565b610efa83610ec5565b610f0e610f0682610ee7565b848454610e69565b825550505050565b600090565b610f23610f16565b610f2e818484610ef1565b505050565b5b81811015610f5257610f47600082610f1b565b600181019050610f34565b5050565b601f821115610f9757610f6881610e37565b610f7184610e4c565b81016020851015610f80578190505b610f94610f8c85610e4c565b830182610f33565b50505b505050565b600082821c905092915050565b6000610fba60001984600802610f9c565b1980831691505092915050565b6000610fd38383610fa9565b9150826002028217905092915050565b610fec82610b2c565b67ffffffffffffffff811115611005576110046109b8565b5b61100f8254610e06565b61101a828285610f56565b600060209050601f83116001811461104d576000841561103b578287015190505b6110458582610fc7565b8655506110ad565b601f19841661105b86610e37565b60005b828110156110835784890151825560018201915060208501945060208101905061105e565b868310156110a0578489015161109c601f891682610fa9565b8355505b6001600288020188555050505b505050505050565b60006040820190506110ca6000830185610bab565b6110d76020830184610bab565b939250505056fea264697066735822122096ee33295dbd0d22d76ca2f519ec452d278695cfc8cfe1ab71ed9fbb232f34bc64736f6c63430008180033",
  "linkReferences": {},
  "deployedLinkReferences": {}
}