{
  "_format": "hh-sol-artifact-1",
  "contractName": "SmartCampusEquity",
  "sourceName": "contracts/SmartCampusEquity.sol",
  "abi": [
    {
      "inputs": [
        {
          "internalType": "address",
          "name": "initialOwner",
          "type": "address"
        }
      ],
      "stateMutability": "nonpayable",
      "type": "constructor"
    },
    {
      "inputs": [
        {
          "internalType": "address",
          "name": "owner",
          "type": "address"
        }
      ],
      "name": "OwnableInvalidOwner",
      "type": "error"
    },
    {
      "inputs": [
        {
          "internalType": "address",
          "name": "account",
          "type": "address"
        }
      ],
      "name": "OwnableUnauthorizedAccount",
      "type": "error"
    },
    {
      "anonymous": false,
      "inputs": [
        {
          "indexed": true,
          "internalType": "string",
          "name": "startupId",
          "type": "string"
        },
        {
          "indexed": false,
          "internalType": "string",
          "name": "milestoneId",
          "type": "string"
        },
        {
          "indexed": false,
          "internalType": "uint256",
          "name": "amountReleased",
          "type": "uint256"
        }
      ],
      "name": "MilestoneAchieved",
      "type": "event"
    },
    {
      "anonymous": false,
      "inputs": [
        {
          "indexed": true,
          "internalType": "address",
          "name": "previousOwner",
          "type": "address"
        },
        {
          "indexed": true,
          "internalType": "address",
          "name": "newOwner",
          "type": "address"
        }
      ],
      "name": "OwnershipTransferred",
      "type": "event"
    },
    {
      "anonymous": false,
      "inputs": [
        {
          "indexed": true,
          "internalType": "string",
          "name": "startupId",
          "type": "string"
        },
        {
          "indexed": false,
          "internalType": "address",
          "name": "founder",
          "type": "address"
        },
        {
          "indexed": false,
          "internalType": "uint256",
          "name": "totalEquity",
          "type": "uint256"
        }
      ],
      "name": "StartupRegistered",
      "type": "event"
    },
    {
      "inputs": [
        {
          "internalType": "string",
          "name": "startupId",
          "type": "string"
        },
        {
          "internalType": "uint256",
          "name": "milestoneIndex",
          "type": "uint256"
        }
      ],
      "name": "achieveMilestone",
      "outputs": [],
      "stateMutability": "nonpayable",
      "type": "function"
    },
    {
      "inputs": [
        {
          "internalType": "string",
          "name": "startupId",
          "type": "string"
        },
        {
          "internalType": "string",
          "name": "milestoneId",
          "type": "string"
        },
        {
          "internalType": "string",
          "name": "description",
          "type": "string"
        },
        {
          "internalType": "uint256",
          "name": "percentage",
          "type": "uint256"
        }
      ],
      "name": "addMilestone",
      "outputs": [],
      "stateMutability": "nonpayable",
      "type": "function"
    },
    {
      "inputs": [],
      "name": "owner",
      "outputs": [
        {
          "internalType": "address",
          "name": "",
          "type": "address"
        }
      ],
      "stateMutability": "view",
      "type": "function"
    },
    {
      "inputs": [
        {
          "internalType": "string",
          "name": "startupId",
          "type": "string"
        },
        {
          "internalType": "address",
          "name": "founder",
          "type": "address"
        }
      ],
      "name": "registerStartup",
      "outputs": [],
      "stateMutability": "payable",
      "type": "function"
    },
    {
      "inputs": [],
      "name": "renounceOwnership",
      "outputs": [],
      "stateMutability": "nonpayable",
      "type": "function"
    },
    {
      "inputs": [
        {
          "internalType": "address",
          "name": "newOwner",
          "type": "address"
        }
      ],
      "name": "transferOwnership",
      "outputs": [],
      "stateMutability": "nonpayable",
      "type": "function"
    }
  ],
  "bytecode": "0x60806040523480156200001157600080fd5b50604051620014fe380380620014fe8339818101604052810190620000379190620001f4565b80600073ffffffffffffffffffffffffffffffffffffffff168173ffffffffffffffffffffffffffffffffffffffff1603620000ad5760006040517f1e4fbdf7000000000000000000000000000000000000000000000000000000008152600401620000a4919062000237565b60405180910390fd5b620000be81620000c660201b60201c565b505062000254565b60008060009054906101000a900473ffffffffffffffffffffffffffffffffffffffff169050816000806101000a81548173ffffffffffffffffffffffffffffffffffffffff021916908373ffffffffffffffffffffffffffffffffffffffff1602179055508173ffffffffffffffffffffffffffffffffffffffff168173ffffffffffffffffffffffffffffffffffffffff167f8be0079c531659141344cd1fd0a4f28419497f9722a3daafe3b4186f6b6457e060405160405180910390a35050565b600080fd5b600073ffffffffffffffffffffffffffffffffffffffff82169050919050565b6000620001bc826200018f565b9050919050565b620001ce81620001af565b8114620001da57600080fd5b50565b600081519050620001ee81620001c3565b92915050565b6000602082840312156200020d576200020c6200018a565b5b60006200021d84828501620001dd565b91505092915050565b6200023181620001af565b82525050565b60006020820190506200024e600083018462000226565b92915050565b61129a80620002646000396000f3fe6080604052600436106100555760003560e01c80635d04acde1461005a578063604a6ba914610083578063715018a61461009f5780638da5cb5b146100b6578063af61ba38146100e1578063f2fde38b1461010a575b600080fd5b34801561006657600080fd5b50610081600480360381019061007c9190610873565b610133565b005b61009d6004803603810190610098919061099a565b6102a1565b005b3480156100ab57600080fd5b506100b4610398565b005b3480156100c257600080fd5b506100cb6103ac565b6040516100d89190610a09565b60405180910390f35b3480156100ed57600080fd5b5061010860048036038101906101039190610a24565b6103d5565b005b34801561011657600080fd5b50610131600480360381019061012c9190610a84565b6105f5565b005b61013b61067b565b60006001888860405161014f929190610af0565b90815260200160405180910390209050604051806080016040528087878080601f016020809104026020016040519081016040528093929190818152602001838380828437600081840152601f19601f82011690508083019250505050505050815260200185858080601f016020809104026020016040519081016040528093929190818152602001838380828437600081840152601f19601f820116905080830192505050505050508152602001838152602001600015158152508160040160008360050154815260200190815260200160002060008201518160000190816102399190610d4f565b50602082015181600101908161024f9190610d4f565b506040820151816002015560608201518160030160006101000a81548160ff02191690831515021790555090505080600501600081548092919061029290610e50565b91905055505050505050505050565b6102a961067b565b6000600184846040516102bd929190610af0565b9081526020016040518091039020905083838260000191826102e0929190610ea3565b50818160010160006101000a81548173ffffffffffffffffffffffffffffffffffffffff021916908373ffffffffffffffffffffffffffffffffffffffff16021790555034816002018190555060008160030181905550600081600501819055508383604051610351929190610af0565b60405180910390207f6ceb91086eb26f61f24bbbec1c2e154227bb2eb6c0be5d686feb65d9a257ac6f833460405161038a929190610f82565b60405180910390a250505050565b6103a061067b565b6103aa6000610702565b565b60008060009054906101000a900473ffffffffffffffffffffffffffffffffffffffff16905090565b6103dd61067b565b6000600184846040516103f1929190610af0565b90815260200160405180910390209050600081600401600084815260200190815260200160002090508060030160009054906101000a900460ff161561046c576040517f08c379a000000000000000000000000000000000000000000000000000000000815260040161046390611008565b60405180910390fd5b60018160030160006101000a81548160ff02191690831515021790555060006064826002015484600201546104a19190611028565b6104ab9190611099565b9050808360030160008282546104c191906110ca565b9250508190555060008360010160009054906101000a900473ffffffffffffffffffffffffffffffffffffffff1673ffffffffffffffffffffffffffffffffffffffff16826040516105129061112f565b60006040518083038185875af1925050503d806000811461054f576040519150601f19603f3d011682016040523d82523d6000602084013e610554565b606091505b5050905080610598576040517f08c379a000000000000000000000000000000000000000000000000000000000815260040161058f90611190565b60405180910390fd5b86866040516105a8929190610af0565b60405180910390207fdf32f6a4dcc746a824bb8e47947c5f37b66bf53336ae1ed83f4f4e852438d99c84600001846040516105e4929190611234565b60405180910390a250505050505050565b6105fd61067b565b600073ffffffffffffffffffffffffffffffffffffffff168173ffffffffffffffffffffffffffffffffffffffff160361066f5760006040517f1e4fbdf70000000000000000000000000000000000000000000000000000000081526004016106669190610a09565b60405180910390fd5b61067881610702565b50565b6106836107c6565b73ffffffffffffffffffffffffffffffffffffffff166106a16103ac565b73ffffffffffffffffffffffffffffffffffffffff1614610700576106c46107c6565b6040517f118cdaa70000000000000000000000000000000000000000000000000000000081526004016106f79190610a09565b60405180910390fd5b565b60008060009054906101000a900473ffffffffffffffffffffffffffffffffffffffff169050816000806101000a81548173ffffffffffffffffffffffffffffffffffffffff021916908373ffffffffffffffffffffffffffffffffffffffff1602179055508173ffffffffffffffffffffffffffffffffffffffff168173ffffffffffffffffffffffffffffffffffffffff167f8be0079c531659141344cd1fd0a4f28419497f9722a3daafe3b4186f6b6457e060405160405180910390a35050565b600033905090565b600080fd5b600080fd5b600080fd5b600080fd5b600080fd5b60008083601f8401126107fd576107fc6107d8565b5b8235905067ffffffffffffffff81111561081a576108196107dd565b5b602083019150836001820283011115610836576108356107e2565b5b9250929050565b6000819050919050565b6108508161083d565b811461085b57600080fd5b50565b60008135905061086d81610847565b92915050565b60008060008060008060006080888a031215610892576108916107ce565b5b600088013567ffffffffffffffff8111156108b0576108af6107d3565b5b6108bc8a828b016107e7565b9750975050602088013567ffffffffffffffff8111156108df576108de6107d3565b5b6108eb8a828b016107e7565b9550955050604088013567ffffffffffffffff81111561090e5761090d6107d3565b5b61091a8a828b016107e7565b9350935050606061092d8a828b0161085e565b91505092959891949750929550565b600073ffffffffffffffffffffffffffffffffffffffff82169050919050565b60006109678261093c565b9050919050565b6109778161095c565b811461098257600080fd5b50565b6000813590506109948161096e565b92915050565b6000806000604084860312156109b3576109b26107ce565b5b600084013567ffffffffffffffff8111156109d1576109d06107d3565b5b6109dd868287016107e7565b935093505060206109f086828701610985565b9150509250925092565b610a038161095c565b82525050565b6000602082019050610a1e60008301846109fa565b92915050565b600080600060408486031215610a3d57610a3c6107ce565b5b600084013567ffffffffffffffff811115610a5b57610a5a6107d3565b5b610a67868287016107e7565b93509350506020610a7a8682870161085e565b9150509250925092565b600060208284031215610a9a57610a996107ce565b5b6000610aa884828501610985565b91505092915050565b600081905092915050565b82818337600083830152505050565b6000610ad78385610ab1565b9350610ae4838584610abc565b82840190509392505050565b6000610afd828486610acb565b91508190509392505050565b600081519050919050565b7f4e487b7100000000000000000000000000000000000000000000000000000000600052604160045260246000fd5b7f4e487b7100000000000000000000000000000000000000000000000000000000600052602260045260246000fd5b60006002820490506001821680610b8a57607f821691505b602082108103610b9d57610b9c610b43565b5b50919050565b60008190508160005260206000209050919050565b60006020601f8301049050919050565b600082821b905092915050565b600060088302610c057fffffffffffffffffffffffffffffffffffffffffffffffffffffffffffffffff82610bc8565b610c0f8683610bc8565b95508019841693508086168417925050509392505050565b6000819050919050565b6000610c4c610c47610c428461083d565b610c27565b61083d565b9050919050565b6000819050919050565b610c6683610c31565b610c7a610c7282610c53565b848454610bd5565b825550505050565b600090565b610c8f610c82565b610c9a818484610c5d565b505050565b5b81811015610cbe57610cb3600082610c87565b600181019050610ca0565b5050565b601f821115610d0357610cd481610ba3565b610cdd84610bb8565b81016020851015610cec578190505b610d00610cf885610bb8565b830182610c9f565b50505b505050565b600082821c905092915050565b6000610d2660001984600802610d08565b1980831691505092915050565b6000610d3f8383610d15565b9150826002028217905092915050565b610d5882610b09565b67ffffffffffffffff811115610d7157610d70610b14565b5b610d7b8254610b72565b610d86828285610cc2565b600060209050601f831160018114610db95760008415610da7578287015190505b610db18582610d33565b865550610e19565b601f198416610dc786610ba3565b60005b82811015610def57848901518255600182019150602085019450602081019050610dca565b86831015610e0c5784890151610e08601f891682610d15565b8355505b6001600288020188555050505b505050505050565b7f4e487b7100000000000000000000000000000000000000000000000000000000600052601160045260246000fd5b6000610e5b8261083d565b91507fffffffffffffffffffffffffffffffffffffffffffffffffffffffffffffffff8203610e8d57610e8c610e21565b5b600182019050919050565b600082905092915050565b610ead8383610e98565b67ffffffffffffffff811115610ec657610ec5610b14565b5b610ed08254610b72565b610edb828285610cc2565b6000601f831160018114610f0a5760008415610ef8578287013590505b610f028582610d33565b865550610f6a565b601f198416610f1886610ba3565b60005b82811015610f4057848901358255600182019150602085019450602081019050610f1b565b86831015610f5d5784890135610f59601f891682610d15565b8355505b6001600288020188555050505b50505050505050565b610f7c8161083d565b82525050565b6000604082019050610f9760008301856109fa565b610fa46020830184610f73565b9392505050565b600082825260208201905092915050565b7f416c726561647920616368696576656400000000000000000000000000000000600082015250565b6000610ff2601083610fab565b9150610ffd82610fbc565b602082019050919050565b6000602082019050818103600083015261102181610fe5565b9050919050565b60006110338261083d565b915061103e8361083d565b925082820261104c8161083d565b9150828204841483151761106357611062610e21565b5b5092915050565b7f4e487b7100000000000000000000000000000000000000000000000000000000600052601260045260246000fd5b60006110a48261083d565b91506110af8361083d565b9250826110bf576110be61106a565b5b828204905092915050565b60006110d58261083d565b91506110e08361083d565b92508282019050808211156110f8576110f7610e21565b5b92915050565b600081905092915050565b50565b60006111196000836110fe565b915061112482611109565b600082019050919050565b600061113a8261110c565b9150819050919050565b7f4571756974792072656c65617365206661696c65640000000000000000000000600082015250565b600061117a601583610fab565b915061118582611144565b602082019050919050565b600060208201905081810360008301526111a98161116d565b9050919050565b600081546111bd81610b72565b6111c78186610fab565b945060018216600081146111e257600181146111f85761122b565b60ff19831686528115156020028601935061122b565b61120185610ba3565b60005b8381101561122357815481890152600182019150602081019050611204565b808801955050505b50505092915050565b6000604082019050818103600083015261124e81856111b0565b905061125d6020830184610f73565b939250505056fea2646970667358221220e5f234d370c97dfcd64a9e11b648df72ae4b4093d5eb047e65ce792d784f3b9964736f6c63430008180033",
  "linkReferences": {},
  "deployedLinkReferences": {}
}