{
  "_format": "hh-sol-artifact-1",
  "contractName": "SmartCampusHiring",
  "sourceName": "contracts/SmartCampusHiring.sol",
  "abi": [
    {
      "inputs": [
        {
          "internalType": "address",
          "name": "initialOwner",
          "type": "address"
        }
      ],
      "stateMutability": "nonpayable",
      "type": "constructor"
    },
    {
      "inputs": [
        {
          "internalType": "address",
          "name": "owner",
          "type": "address"
        }
      ],
      "name": "OwnableInvalidOwner",
      "type": "error"
    },
    {
      "inputs": [
        {
          "internalType": "address",
          "name": "account",
          "type": "address"
        }
      ],
      "name": "OwnableUnauthorizedAccount",
      "type": "error"
    },
    {
      "anonymous": false,
      "inputs": [
        {
          "indexed": true,
          "internalType": "uint256",
          "name": "jobId",
          "type": "uint256"
        },
        {
          "indexed": false,
          "internalType": "string",
          "name": "institutionalId",
          "type": "string"
        },
        {
          "indexed": false,
          "internalType": "string",
          "name": "jobTitle",
          "type": "string"
        },
        {
          "indexed": false,
          "internalType": "string",
          "name": "companyName",
          "type": "string"
        }
      ],
      "name": "JobPosted",
      "type": "event"
    },
    {
      "anonymous": false,
      "inputs": [
        {
          "indexed": true,
          "internalType": "uint256",
          "name": "jobId",
          "type": "uint256"
        },
        {
          "indexed": false,
          "internalType": "bool",
          "name": "isActive",
          "type": "bool"
        }
      ],
      "name": "JobStatusChanged",
      "type": "event"
    },
    {
      "anonymous": false,
      "inputs": [
        {
          "indexed": true,
          "internalType": "string",
          "name": "studentEnrollment",
          "type": "string"
        },
        {
          "indexed": false,
          "internalType": "string",
          "name": "jobListingId",
          "type": "string"
        }
      ],
      "name": "OfferAccepted",
      "type": "event"
    },
    {
      "anonymous": false,
      "inputs": [
        {
          "indexed": true,
          "internalType": "address",
          "name": "previousOwner",
          "type": "address"
        },
        {
          "indexed": true,
          "internalType": "address",
          "name": "newOwner",
          "type": "address"
        }
      ],
      "name": "OwnershipTransferred",
      "type": "event"
    },
    {
      "anonymous": false,
      "inputs": [
        {
          "indexed": true,
          "internalType": "string",
          "name": "studentEnrollment",
          "type": "string"
        },
        {
          "indexed": false,
          "internalType": "string",
          "name": "jobListingId",
          "type": "string"
        },
        {
          "indexed": false,
          "internalType": "string",
          "name": "offerHash",
          "type": "string"
        }
      ],
      "name": "PlacementRecorded",
      "type": "event"
    },
    {
      "inputs": [
        {
          "internalType": "string",
          "name": "_studentEnrollment",
          "type": "string"
        },
        {
          "internalType": "string",
          "name": "_jobListingId",
          "type": "string"
        }
      ],
      "name": "acceptOffer",
      "outputs": [],
      "stateMutability": "nonpayable",
      "type": "function"
    },
    {
      "inputs": [
        {
          "internalType": "string",
          "name": "_studentEnrollment",
          "type": "string"
        },
        {
          "internalType": "string",
          "name": "_jobListingId",
          "type": "string"
        }
      ],
      "name": "getPlacement",
      "outputs": [
        {
          "internalType": "string",
          "name": "",
          "type": "string"
        },
        {
          "internalType": "string",
          "name": "",
          "type": "string"
        },
        {
          "internalType": "uint256",
          "name": "",
          "type": "uint256"
        },
        {
          "internalType": "bool",
          "name": "",
          "type": "bool"
        }
      ],
      "stateMutability": "view",
      "type": "function"
    },
    {
      "inputs": [
        {
          "internalType": "uint256",
          "name": "",
          "type": "uint256"
        }
      ],
      "name": "jobListings",
      "outputs": [
        {
          "internalType": "uint256",
          "name": "id",
          "type": "uint256"
        },
        {
          "internalType": "string",
          "name": "institutionalId",
          "type": "string"
        },
        {
          "internalType": "string",
          "name": "jobTitle",
          "type": "string"
        },
        {
          "internalType": "string",
          "name": "companyName",
          "type": "string"
        },
        {
          "internalType": "bool",
          "name": "isActive",
          "type": "bool"
        }
      ],
      "stateMutability": "view",
      "type": "function"
    },
    {
      "inputs": [],
      "name": "nextJobId",
      "outputs": [
        {
          "internalType": "uint256",
          "name": "",
          "type": "uint256"
        }
      ],
      "stateMutability": "view",
      "type": "function"
    },
    {
      "inputs": [],
      "name": "owner",
      "outputs": [
        {
          "internalType": "address",
          "name": "",
          "type": "address"
        }
      ],
      "stateMutability": "view",
      "type": "function"
    },
    {
      "inputs": [
        {
          "internalType": "string",
          "name": "",
          "type": "string"
        },
        {
          "internalType": "string",
          "name": "",
          "type": "string"
        }
      ],
      "name": "placementOffers",
      "outputs": [
        {
          "internalType": "string",
          "name": "studentEnrollment",
          "type": "string"
        },
        {
          "internalType": "string",
          "name": "jobListingId",
          "type": "string"
        },
        {
          "internalType": "string",
          "name": "offerHash",
          "type": "string"
        },
        {
          "internalType": "uint256",
          "name": "timestamp",
          "type": "uint256"
        },
        {
          "internalType": "bool",
          "name": "isAccepted",
          "type": "bool"
        }
      ],
      "stateMutability": "view",
      "type": "function"
    },
    {
      "inputs": [
        {
          "internalType": "string",
          "name": "_institutionalId",
          "type": "string"
        },
        {
          "internalType": "string",
          "name": "_jobTitle",
          "type": "string"
        },
        {
          "internalType": "string",
          "name": "_companyName",
          "type": "string"
        }
      ],
      "name": "postJob",
      "outputs": [],
      "stateMutability": "nonpayable",
      "type": "function"
    },
    {
      "inputs": [
        {
          "internalType": "string",
          "name": "_studentEnrollment",
          "type": "string"
        },
        {
          "internalType": "string",
          "name": "_jobListingId",
          "type": "string"
        },
        {
          "internalType": "string",
          "name": "_offerHash",
          "type": "string"
        }
      ],
      "name": "recordPlacement",
      "outputs": [],
      "stateMutability": "nonpayable",
      "type": "function"
    },
    {
      "inputs": [],
      "name": "renounceOwnership",
      "outputs": [],
      "stateMutability": "nonpayable",
      "type": "function"
    },
    {
      "inputs": [
        {
          "internalType": "uint256",
          "name": "_jobId",
          "type": "uint256"
        }
      ],
      "name": "toggleJobStatus",
      "outputs": [],
      "stateMutability": "nonpayable",
      "type": "function"
    },
    {
      "inputs": [
        {
          "internalType": "address",
          "name": "newOwner",
          "type": "address"
        }
      ],
      "name": "transferOwnership",
      "outputs": [],
      "stateMutability": "nonpayable",
      "type": "function"
    }
  ],
  "bytecode": "0x60806040523480156200001157600080fd5b5060405162001a9138038062001a918339818101604052810190620000379190620001f4565b80600073ffffffffffffffffffffffffffffffffffffffff168173ffffffffffffffffffffffffffffffffffffffff1603620000ad5760006040517f1e4fbdf7000000000000000000000000000000000000000000000000000000008152600401620000a4919062000237565b60405180910390fd5b620000be81620000c660201b60201c565b505062000254565b60008060009054906101000a900473ffffffffffffffffffffffffffffffffffffffff169050816000806101000a81548173ffffffffffffffffffffffffffffffffffffffff021916908373ffffffffffffffffffffffffffffffffffffffff1602179055508173ffffffffffffffffffffffffffffffffffffffff168173ffffffffffffffffffffffffffffffffffffffff167f8be0079c531659141344cd1fd0a4f28419497f9722a3daafe3b4186f6b6457e060405160405180910390a35050565b600080fd5b600073ffffffffffffffffffffffffffffffffffffffff82169050919050565b6000620001bc826200018f565b9050919050565b620001ce81620001af565b8114620001da57600080fd5b50565b600081519050620001ee81620001c3565b92915050565b6000602082840312156200020d576200020c6200018a565b5b60006200021d84828501620001dd565b91505092915050565b6200023181620001af565b82525050565b60006020820190506200024e600083018462000226565b92915050565b61182d80620002646000396000f3fe608060405234801561001057600080fd5b50600436106100a95760003560e01c806399d7eed71161007157806399d7eed714610159578063b0c2aa5e14610175578063e4608aeb14610193578063f2fde38b146101c7578063f54789d7146101e3578063f63ae5fc146101ff576100a9565b806301407244146100ae578063501e609a146100e15780636ee79cf2146100fd578063715018a6146101315780638da5cb5b1461013b575b600080fd5b6100c860048036038101906100c39190610f71565b61021b565b6040516100d8949392919061109c565b60405180910390f35b6100fb60048036038101906100f691906110ef565b61046b565b005b610117600480360381019061011291906111c2565b61059a565b6040516101289594939291906111ef565b60405180910390f35b610139610775565b005b610143610789565b6040516101509190611298565b60405180910390f35b610173600480360381019061016e91906110ef565b6107b2565b005b61017d6108c5565b60405161018a91906112b3565b60405180910390f35b6101ad60048036038101906101a89190610f71565b6108cb565b6040516101be9594939291906112ce565b60405180910390f35b6101e160048036038101906101dc9190611362565b610adf565b005b6101fd60048036038101906101f89190610f71565b610b65565b005b610219600480360381019061021491906111c2565b610c0c565b005b606080600080600060038760405161023391906113cb565b90815260200160405180910390208660405161024f91906113cb565b90815260200160405180910390206040518060a001604052908160008201805461027890611411565b80601f01602080910402602001604051908101604052809291908181526020018280546102a490611411565b80156102f15780601f106102c6576101008083540402835291602001916102f1565b820191906000526020600020905b8154815290600101906020018083116102d457829003601f168201915b5050505050815260200160018201805461030a90611411565b80601f016020809104026020016040519081016040528092919081815260200182805461033690611411565b80156103835780601f1061035857610100808354040283529160200191610383565b820191906000526020600020905b81548152906001019060200180831161036657829003601f168201915b5050505050815260200160028201805461039c90611411565b80601f01602080910402602001604051908101604052809291908181526020018280546103c890611411565b80156104155780601f106103ea57610100808354040283529160200191610415565b820191906000526020600020905b8154815290600101906020018083116103f857829003601f168201915b50505050508152602001600382015481526020016004820160009054906101000a900460ff1615151515815250509050806020015181604001518260600151836080015194509450945094505092959194509250565b610473610cc4565b6040518060a00160405280848152602001838152602001828152602001428152602001600015158152506003846040516104ad91906113cb565b9081526020016040518091039020836040516104c991906113cb565b908152602001604051809103902060008201518160000190816104ec91906115ee565b50602082015181600101908161050291906115ee565b50604082015181600201908161051891906115ee565b506060820151816003015560808201518160040160006101000a81548160ff0219169083151502179055509050508260405161055491906113cb565b60405180910390207fbcc12974eefb49f84498b4b44fcb3478547260d511eaba8bb797489d91726c04838360405161058d9291906116c0565b60405180910390a2505050565b60016020528060005260406000206000915090508060000154908060010180546105c390611411565b80601f01602080910402602001604051908101604052809291908181526020018280546105ef90611411565b801561063c5780601f106106115761010080835404028352916020019161063c565b820191906000526020600020905b81548152906001019060200180831161061f57829003601f168201915b50505050509080600201805461065190611411565b80601f016020809104026020016040519081016040528092919081815260200182805461067d90611411565b80156106ca5780601f1061069f576101008083540402835291602001916106ca565b820191906000526020600020905b8154815290600101906020018083116106ad57829003601f168201915b5050505050908060030180546106df90611411565b80601f016020809104026020016040519081016040528092919081815260200182805461070b90611411565b80156107585780601f1061072d57610100808354040283529160200191610758565b820191906000526020600020905b81548152906001019060200180831161073b57829003601f168201915b5050505050908060040160009054906101000a900460ff16905085565b61077d610cc4565b6107876000610d4b565b565b60008060009054906101000a900473ffffffffffffffffffffffffffffffffffffffff16905090565b6107ba610cc4565b6040518060a0016040528060025481526020018481526020018381526020018281526020016001151581525060016000600254815260200190815260200160002060008201518160000155602082015181600101908161081a91906115ee565b50604082015181600201908161083091906115ee565b50606082015181600301908161084691906115ee565b5060808201518160040160006101000a81548160ff0219169083151502179055509050506002547f533be0de50226d5b38fda63fb4521e724cbf63cf91c165246d22f6397d0cf9548484846040516108a0939291906116f7565b60405180910390a2600260008154809291906108bb90611772565b9190505550505050565b60025481565b600382805160208101820180518482526020830160208501208183528095505050505050818051602081018201805184825260208301602085012081835280955050505050506000915091505080600001805461092790611411565b80601f016020809104026020016040519081016040528092919081815260200182805461095390611411565b80156109a05780601f10610975576101008083540402835291602001916109a0565b820191906000526020600020905b81548152906001019060200180831161098357829003601f168201915b5050505050908060010180546109b590611411565b80601f01602080910402602001604051908101604052809291908181526020018280546109e190611411565b8015610a2e5780601f10610a0357610100808354040283529160200191610a2e565b820191906000526020600020905b815481529060010190602001808311610a1157829003601f168201915b505050505090806002018054610a4390611411565b80601f0160208091040260200160405190810160405280929190818152602001828054610a6f90611411565b8015610abc5780601f10610a9157610100808354040283529160200191610abc565b820191906000526020600020905b815481529060010190602001808311610a9f57829003601f168201915b5050505050908060030154908060040160009054906101000a900460ff16905085565b610ae7610cc4565b600073ffffffffffffffffffffffffffffffffffffffff168173ffffffffffffffffffffffffffffffffffffffff1603610b595760006040517f1e4fbdf7000000000000000000000000000000000000000000000000000000008152600401610b509190611298565b60405180910390fd5b610b6281610d4b565b50565b6001600383604051610b7791906113cb565b908152602001604051809103902082604051610b9391906113cb565b908152602001604051809103902060040160006101000a81548160ff02191690831515021790555081604051610bc991906113cb565b60405180910390207f28bff2a879f51509c229609f136f8ac268c9c1d9928cc49684b951369ffe601282604051610c0091906117ba565b60405180910390a25050565b610c14610cc4565b6001600082815260200190815260200160002060040160009054906101000a900460ff16156001600083815260200190815260200160002060040160006101000a81548160ff021916908315150217905550807f3a7560255c7fadf79e1c93d34b38d76296f8b660314bf7e1e26f63c8b0291cf46001600084815260200190815260200160002060040160009054906101000a900460ff16604051610cb991906117dc565b60405180910390a250565b610ccc610e0f565b73ffffffffffffffffffffffffffffffffffffffff16610cea610789565b73ffffffffffffffffffffffffffffffffffffffff1614610d4957610d0d610e0f565b6040517f118cdaa7000000000000000000000000000000000000000000000000000000008152600401610d409190611298565b60405180910390fd5b565b60008060009054906101000a900473ffffffffffffffffffffffffffffffffffffffff169050816000806101000a81548173ffffffffffffffffffffffffffffffffffffffff021916908373ffffffffffffffffffffffffffffffffffffffff1602179055508173ffffffffffffffffffffffffffffffffffffffff168173ffffffffffffffffffffffffffffffffffffffff167f8be0079c531659141344cd1fd0a4f28419497f9722a3daafe3b4186f6b6457e060405160405180910390a35050565b600033905090565b6000604051905090565b600080fd5b600080fd5b600080fd5b600080fd5b6000601f19601f8301169050919050565b7f4e487b7100000000000000000000000000000000000000000000000000000000600052604160045260246000fd5b610e7e82610e35565b810181811067ffffffffffffffff82111715610e9d57610e9c610e46565b5b80604052505050565b6000610eb0610e17565b9050610ebc8282610e75565b919050565b600067ffffffffffffffff821115610edc57610edb610e46565b5b610ee582610e35565b9050602081019050919050565b82818337600083830152505050565b6000610f14610f0f84610ec1565b610ea6565b905082815260208101848484011115610f3057610f2f610e30565b5b610f3b848285610ef2565b509392505050565b600082601f830112610f5857610f57610e2b565b5b8135610f68848260208601610f01565b91505092915050565b60008060408385031215610f8857610f87610e21565b5b600083013567ffffffffffffffff811115610fa657610fa5610e26565b5b610fb285828601610f43565b925050602083013567ffffffffffffffff811115610fd357610fd2610e26565b5b610fdf85828601610f43565b9150509250929050565b600081519050919050565b600082825260208201905092915050565b60005b83811015611023578082015181840152602081019050611008565b60008484015250505050565b600061103a82610fe9565b6110448185610ff4565b9350611054818560208601611005565b61105d81610e35565b840191505092915050565b6000819050919050565b61107b81611068565b82525050565b60008115159050919050565b61109681611081565b82525050565b600060808201905081810360008301526110b6818761102f565b905081810360208301526110ca818661102f565b90506110d96040830185611072565b6110e6606083018461108d565b95945050505050565b60008060006060848603121561110857611107610e21565b5b600084013567ffffffffffffffff81111561112657611125610e26565b5b61113286828701610f43565b935050602084013567ffffffffffffffff81111561115357611152610e26565b5b61115f86828701610f43565b925050604084013567ffffffffffffffff8111156111805761117f610e26565b5b61118c86828701610f43565b9150509250925092565b61119f81611068565b81146111aa57600080fd5b50565b6000813590506111bc81611196565b92915050565b6000602082840312156111d8576111d7610e21565b5b60006111e6848285016111ad565b91505092915050565b600060a0820190506112046000830188611072565b8181036020830152611216818761102f565b9050818103604083015261122a818661102f565b9050818103606083015261123e818561102f565b905061124d608083018461108d565b9695505050505050565b600073ffffffffffffffffffffffffffffffffffffffff82169050919050565b600061128282611257565b9050919050565b61129281611277565b82525050565b60006020820190506112ad6000830184611289565b92915050565b60006020820190506112c86000830184611072565b92915050565b600060a08201905081810360008301526112e8818861102f565b905081810360208301526112fc818761102f565b90508181036040830152611310818661102f565b905061131f6060830185611072565b61132c608083018461108d565b9695505050505050565b61133f81611277565b811461134a57600080fd5b50565b60008135905061135c81611336565b92915050565b60006020828403121561137857611377610e21565b5b60006113868482850161134d565b91505092915050565b600081905092915050565b60006113a582610fe9565b6113af818561138f565b93506113bf818560208601611005565b80840191505092915050565b60006113d7828461139a565b915081905092915050565b7f4e487b7100000000000000000000000000000000000000000000000000000000600052602260045260246000fd5b6000600282049050600182168061142957607f821691505b60208210810361143c5761143b6113e2565b5b50919050565b60008190508160005260206000209050919050565b60006020601f8301049050919050565b600082821b905092915050565b6000600883026114a47fffffffffffffffffffffffffffffffffffffffffffffffffffffffffffffffff82611467565b6114ae8683611467565b95508019841693508086168417925050509392505050565b6000819050919050565b60006114eb6114e66114e184611068565b6114c6565b611068565b9050919050565b6000819050919050565b611505836114d0565b611519611511826114f2565b848454611474565b825550505050565b600090565b61152e611521565b6115398184846114fc565b505050565b5b8181101561155d57611552600082611526565b60018101905061153f565b5050565b601f8211156115a25761157381611442565b61157c84611457565b8101602085101561158b578190505b61159f61159785611457565b83018261153e565b50505b505050565b600082821c905092915050565b60006115c5600019846008026115a7565b1980831691505092915050565b60006115de83836115b4565b9150826002028217905092915050565b6115f782610fe9565b67ffffffffffffffff8111156116105761160f610e46565b5b61161a8254611411565b611625828285611561565b600060209050601f8311600181146116585760008415611646578287015190505b61165085826115d2565b8655506116b8565b601f19841661166686611442565b60005b8281101561168e57848901518255600182019150602085019450602081019050611669565b868310156116ab57848901516116a7601f8916826115b4565b8355505b6001600288020188555050505b505050505050565b600060408201905081810360008301526116da818561102f565b905081810360208301526116ee818461102f565b90509392505050565b60006060820190508181036000830152611711818661102f565b90508181036020830152611725818561102f565b90508181036040830152611739818461102f565b9050949350505050565b7f4e487b7100000000000000000000000000000000000000000000000000000000600052601160045260246000fd5b600061177d82611068565b91507fffffffffffffffffffffffffffffffffffffffffffffffffffffffffffffffff82036117af576117ae611743565b5b600182019050919050565b600060208201905081810360008301526117d4818461102f565b905092915050565b60006020820190506117f1600083018461108d565b9291505056fea264697066735822122074ac89a35f986491e59d947c64087ed65314ee4db55aecc440743084e28ac7a664736f6c63430008180033",
  "linkReferences": {},
  "deployedLinkReferences": {}
}