{
  "_format": "hh-sol-artifact-1",
  "contractName": "SmartCampusAdmission",
  "sourceName": "contracts/SmartCampusAdmission.sol",
  "abi": [
    {
      "inputs": [
        {
          "internalType": "address",
          "name": "initialOwner",
          "type": "address"
        }
      ],
      "stateMutability": "nonpayable",
      "type": "constructor"
    },
    {
      "inputs": [
        {
          "internalType": "address",
          "name": "owner",
          "type": "address"
        }
      ],
      "name": "OwnableInvalidOwner",
      "type": "error"
    },
    {
      "inputs": [
        {
          "internalType": "address",
          "name": "account",
          "type": "address"
        }
      ],
      "name": "OwnableUnauthorizedAccount",
      "type": "error"
    },
    {
      "anonymous": false,
      "inputs": [
        {
          "indexed": true,
          "internalType": "string",
          "name": "applicationId",
          "type": "string"
        },
        {
          "indexed": false,
          "internalType": "enum SmartCampusAdmission.AdmissionStatus",
          "name": "status",
          "type": "uint8"
        },
        {
          "indexed": false,
          "internalType": "string",
          "name": "documentHash",
          "type": "string"
        }
      ],
      "name": "AdmissionStatusUpdated",
      "type": "event"
    },
    {
      "anonymous": false,
      "inputs": [
        {
          "indexed": true,
          "internalType": "address",
          "name": "previousOwner",
          "type": "address"
        },
        {
          "indexed": true,
          "internalType": "address",
          "name": "newOwner",
          "type": "address"
        }
      ],
      "name": "OwnershipTransferred",
      "type": "event"
    },
    {
      "inputs": [
        {
          "internalType": "string",
          "name": "",
          "type": "string"
        }
      ],
      "name": "admissions",
      "outputs": [
        {
          "internalType": "string",
          "name": "studentEnrollment",
          "type": "string"
        },
        {
          "internalType": "string",
          "name": "programId",
          "type": "string"
        },
        {
          "internalType": "enum SmartCampusAdmission.AdmissionStatus",
          "name": "status",
          "type": "uint8"
        },
        {
          "internalType": "string",
          "name": "documentHash",
          "type": "string"
        },
        {
          "internalType": "uint256",
          "name": "lastUpdated",
          "type": "uint256"
        }
      ],
      "stateMutability": "view",
      "type": "function"
    },
    {
      "inputs": [
        {
          "internalType": "string",
          "name": "_applicationId",
          "type": "string"
        }
      ],
      "name": "getAdmissionRecord",
      "outputs": [
        {
          "internalType": "string",
          "name": "",
          "type": "string"
        },
        {
          "internalType": "string",
          "name": "",
          "type": "string"
        },
        {
          "internalType": "enum SmartCampusAdmission.AdmissionStatus",
          "name": "",
          "type": "uint8"
        },
        {
          "internalType": "string",
          "name": "",
          "type": "string"
        },
        {
          "internalType": "uint256",
          "name": "",
          "type": "uint256"
        }
      ],
      "stateMutability": "view",
      "type": "function"
    },
    {
      "inputs": [],
      "name": "owner",
      "outputs": [
        {
          "internalType": "address",
          "name": "",
          "type": "address"
        }
      ],
      "stateMutability": "view",
      "type": "function"
    },
    {
      "inputs": [],
      "name": "renounceOwnership",
      "outputs": [],
      "stateMutability": "nonpayable",
      "type": "function"
    },
    {
      "inputs": [
        {
          "internalType": "address",
          "name": "newOwner",
          "type": "address"
        }
      ],
      "name": "transferOwnership",
      "outputs": [],
      "stateMutability": "nonpayable",
      "type": "function"
    },
    {
      "inputs": [
        {
          "internalType": "string",
          "name": "_applicationId",
          "type": "string"
        },
        {
          "internalType": "string",
          "name": "_studentEnrollment",
          "type": "string"
        },
        {
          "internalType": "string",
          "name": "_programId",
          "type": "string"
        },
        {
          "internalType": "enum SmartCampusAdmission.AdmissionStatus",
          "name": "_status",
          "type": "uint8"
        },
        {
          "internalType": "string",
          "name": "_documentHash",
          "type": "string"
        }
      ],
      "name": "updateAdmissionStatus",
      "outputs": [],
      "stateMutability": "nonpayable",
      "type": "function"
    }
  ],
  "bytecode": "0x60806040523480156200001157600080fd5b50604051620013a1380380620013a18339818101604052810190620000379190620001f4565b80600073ffffffffffffffffffffffffffffffffffffffff168173ffffffffffffffffffffffffffffffffffffffff1603620000ad5760006040517f1e4fbdf7000000000000000000000000000000000000000000000000000000008152600401620000a4919062000237565b60405180910390fd5b620000be81620000c660201b60201c565b505062000254565b60008060009054906101000a900473ffffffffffffffffffffffffffffffffffffffff169050816000806101000a81548173ffffffffffffffffffffffffffffffffffffffff021916908373ffffffffffffffffffffffffffffffffffffffff1602179055508173ffffffffffffffffffffffffffffffffffffffff168173ffffffffffffffffffffffffffffffffffffffff167f8be0079c531659141344cd1fd0a4f28419497f9722a3daafe3b4186f6b6457e060405160405180910390a35050565b600080fd5b600073ffffffffffffffffffffffffffffffffffffffff82169050919050565b6000620001bc826200018f565b9050919050565b620001ce81620001af565b8114620001da57600080fd5b50565b600081519050620001ee81620001c3565b92915050565b6000602082840312156200020d576200020c6200018a565b5b60006200021d84828501620001dd565b91505092915050565b6200023181620001af565b82525050565b60006020820190506200024e600083018462000226565b92915050565b61113d80620002646000396000f3fe608060405234801561001057600080fd5b50600436106100625760003560e01c80630b6b780214610067578063269cb4b914610083578063715018a6146100b75780638da5cb5b146100c157806392f6e111146100df578063f2fde38b14610113575b600080fd5b610081600480360381019061007c9190610a46565b61012f565b005b61009d60048036038101906100989190610b31565b610263565b6040516100ae959493929190610c89565b60405180910390f35b6100bf6104c0565b005b6100c96104d4565b6040516100d69190610d32565b60405180910390f35b6100f960048036038101906100f49190610b31565b6104fd565b60405161010a959493929190610c89565b60405180910390f35b61012d60048036038101906101289190610d79565b6106ee565b005b610137610774565b6040518060a0016040528085815260200184815260200183600481111561016157610160610bf9565b5b8152602001828152602001428152506001866040516101809190610de2565b908152602001604051809103902060008201518160000190816101a39190611005565b5060208201518160010190816101b99190611005565b5060408201518160020160006101000a81548160ff021916908360048111156101e5576101e4610bf9565b5b021790555060608201518160030190816101ff9190611005565b50608082015181600401559050508460405161021b9190610de2565b60405180910390207f0df30944896f7eaf292822c68b54a532e57f043810dadbaee10cc52385fbac2b83836040516102549291906110d7565b60405180910390a25050505050565b6060806000606060008060018760405161027d9190610de2565b90815260200160405180910390206040518060a00160405290816000820180546102a690610e28565b80601f01602080910402602001604051908101604052809291908181526020018280546102d290610e28565b801561031f5780601f106102f45761010080835404028352916020019161031f565b820191906000526020600020905b81548152906001019060200180831161030257829003601f168201915b5050505050815260200160018201805461033890610e28565b80601f016020809104026020016040519081016040528092919081815260200182805461036490610e28565b80156103b15780601f10610386576101008083540402835291602001916103b1565b820191906000526020600020905b81548152906001019060200180831161039457829003601f168201915b505050505081526020016002820160009054906101000a900460ff1660048111156103df576103de610bf9565b5b60048111156103f1576103f0610bf9565b5b815260200160038201805461040590610e28565b80601f016020809104026020016040519081016040528092919081815260200182805461043190610e28565b801561047e5780601f106104535761010080835404028352916020019161047e565b820191906000526020600020905b81548152906001019060200180831161046157829003601f168201915b50505050508152602001600482015481525050905080600001518160200151826040015183606001518460800151955095509550955095505091939590929450565b6104c8610774565b6104d260006107fb565b565b60008060009054906101000a900473ffffffffffffffffffffffffffffffffffffffff16905090565b60018180516020810182018051848252602083016020850120818352809550505050505060009150905080600001805461053690610e28565b80601f016020809104026020016040519081016040528092919081815260200182805461056290610e28565b80156105af5780601f10610584576101008083540402835291602001916105af565b820191906000526020600020905b81548152906001019060200180831161059257829003601f168201915b5050505050908060010180546105c490610e28565b80601f01602080910402602001604051908101604052809291908181526020018280546105f090610e28565b801561063d5780601f106106125761010080835404028352916020019161063d565b820191906000526020600020905b81548152906001019060200180831161062057829003601f168201915b5050505050908060020160009054906101000a900460ff169080600301805461066590610e28565b80601f016020809104026020016040519081016040528092919081815260200182805461069190610e28565b80156106de5780601f106106b3576101008083540402835291602001916106de565b820191906000526020600020905b8154815290600101906020018083116106c157829003601f168201915b5050505050908060040154905085565b6106f6610774565b600073ffffffffffffffffffffffffffffffffffffffff168173ffffffffffffffffffffffffffffffffffffffff16036107685760006040517f1e4fbdf700000000000000000000000000000000000000000000000000000000815260040161075f9190610d32565b60405180910390fd5b610771816107fb565b50565b61077c6108bf565b73ffffffffffffffffffffffffffffffffffffffff1661079a6104d4565b73ffffffffffffffffffffffffffffffffffffffff16146107f9576107bd6108bf565b6040517f118cdaa70000000000000000000000000000000000000000000000000000000081526004016107f09190610d32565b60405180910390fd5b565b60008060009054906101000a900473ffffffffffffffffffffffffffffffffffffffff169050816000806101000a81548173ffffffffffffffffffffffffffffffffffffffff021916908373ffffffffffffffffffffffffffffffffffffffff1602179055508173ffffffffffffffffffffffffffffffffffffffff168173ffffffffffffffffffffffffffffffffffffffff167f8be0079c531659141344cd1fd0a4f28419497f9722a3daafe3b4186f6b6457e060405160405180910390a35050565b600033905090565b6000604051905090565b600080fd5b600080fd5b600080fd5b600080fd5b6000601f19601f8301169050919050565b7f4e487b7100000000000000000000000000000000000000000000000000000000600052604160045260246000fd5b61092e826108e5565b810181811067ffffffffffffffff8211171561094d5761094c6108f6565b5b80604052505050565b60006109606108c7565b905061096c8282610925565b919050565b600067ffffffffffffffff82111561098c5761098b6108f6565b5b610995826108e5565b9050602081019050919050565b82818337600083830152505050565b60006109c46109bf84610971565b610956565b9050828152602081018484840111156109e0576109df6108e0565b5b6109eb8482856109a2565b509392505050565b600082601f830112610a0857610a076108db565b5b8135610a188482602086016109b1565b91505092915050565b60058110610a2e57600080fd5b50565b600081359050610a4081610a21565b92915050565b600080600080600060a08688031215610a6257610a616108d1565b5b600086013567ffffffffffffffff811115610a8057610a7f6108d6565b5b610a8c888289016109f3565b955050602086013567ffffffffffffffff811115610aad57610aac6108d6565b5b610ab9888289016109f3565b945050604086013567ffffffffffffffff811115610ada57610ad96108d6565b5b610ae6888289016109f3565b9350506060610af788828901610a31565b925050608086013567ffffffffffffffff811115610b1857610b176108d6565b5b610b24888289016109f3565b9150509295509295909350565b600060208284031215610b4757610b466108d1565b5b600082013567ffffffffffffffff811115610b6557610b646108d6565b5b610b71848285016109f3565b91505092915050565b600081519050919050565b600082825260208201905092915050565b60005b83811015610bb4578082015181840152602081019050610b99565b60008484015250505050565b6000610bcb82610b7a565b610bd58185610b85565b9350610be5818560208601610b96565b610bee816108e5565b840191505092915050565b7f4e487b7100000000000000000000000000000000000000000000000000000000600052602160045260246000fd5b60058110610c3957610c38610bf9565b5b50565b6000819050610c4a82610c28565b919050565b6000610c5a82610c3c565b9050919050565b610c6a81610c4f565b82525050565b6000819050919050565b610c8381610c70565b82525050565b600060a0820190508181036000830152610ca38188610bc0565b90508181036020830152610cb78187610bc0565b9050610cc66040830186610c61565b8181036060830152610cd88185610bc0565b9050610ce76080830184610c7a565b9695505050505050565b600073ffffffffffffffffffffffffffffffffffffffff82169050919050565b6000610d1c82610cf1565b9050919050565b610d2c81610d11565b82525050565b6000602082019050610d476000830184610d23565b92915050565b610d5681610d11565b8114610d6157600080fd5b50565b600081359050610d7381610d4d565b92915050565b600060208284031215610d8f57610d8e6108d1565b5b6000610d9d84828501610d64565b91505092915050565b600081905092915050565b6000610dbc82610b7a565b610dc68185610da6565b9350610dd6818560208601610b96565b80840191505092915050565b6000610dee8284610db1565b915081905092915050565b7f4e487b7100000000000000000000000000000000000000000000000000000000600052602260045260246000fd5b60006002820490506001821680610e4057607f821691505b602082108103610e5357610e52610df9565b5b50919050565b60008190508160005260206000209050919050565b60006020601f8301049050919050565b600082821b905092915050565b600060088302610ebb7fffffffffffffffffffffffffffffffffffffffffffffffffffffffffffffffff82610e7e565b610ec58683610e7e565b95508019841693508086168417925050509392505050565b6000819050919050565b6000610f02610efd610ef884610c70565b610edd565b610c70565b9050919050565b6000819050919050565b610f1c83610ee7565b610f30610f2882610f09565b848454610e8b565b825550505050565b600090565b610f45610f38565b610f50818484610f13565b505050565b5b81811015610f7457610f69600082610f3d565b600181019050610f56565b5050565b601f821115610fb957610f8a81610e59565b610f9384610e6e565b81016020851015610fa2578190505b610fb6610fae85610e6e565b830182610f55565b50505b505050565b600082821c905092915050565b6000610fdc60001984600802610fbe565b1980831691505092915050565b6000610ff58383610fcb565b9150826002028217905092915050565b61100e82610b7a565b67ffffffffffffffff811115611027576110266108f6565b5b6110318254610e28565b61103c828285610f78565b600060209050601f83116001811461106f576000841561105d578287015190505b6110678582610fe9565b8655506110cf565b601f19841661107d86610e59565b60005b828110156110a557848901518255600182019150602085019450602081019050611080565b868310156110c257848901516110be601f891682610fcb565b8355505b6001600288020188555050505b505050505050565b60006040820190506110ec6000830185610c61565b81810360208301526110fe8184610bc0565b9050939250505056fea2646970667358221220a12ffb0c09cb0b1ddf93af14e12f04ba563f6e3f3b64234d247287d3425ee35764736f6c63430008180033",
  "linkReferences": {},
  "deployedLinkReferences": {}
}