{
  "_format": "hh-sol-artifact-1",
  "contractName": "SmartCampusReevaluation",
  "sourceName": "contracts/SmartCampusReevaluation.sol",
  "abi": [
    {
      "inputs": [
        {
          "internalType": "address",
          "name": "initialOwner",
          "type": "address"
        }
      ],
      "stateMutability": "nonpayable",
      "type": "constructor"
    },
    {
      "inputs": [
        {
          "internalType": "address",
          "name": "owner",
          "type": "address"
        }
      ],
      "name": "OwnableInvalidOwner",
      "type": "error"
    },
    {
      "inputs": [
        {
          "internalType": "address",
          "name": "account",
          "type": "address"
        }
      ],
      "name": "OwnableUnauthorizedAccount",
      "type": "error"
    },
    {
      "anonymous": false,
      "inputs": [
        {
          "indexed": true,
          "internalType": "address",
          "name": "previousOwner",
          "type": "address"
        },
        {
          "indexed": true,
          "internalType": "address",
          "name": "newOwner",
          "type": "address"
        }
      ],
      "name": "OwnershipTransferred",
      "type": "event"
    },
    {
      "anonymous": false,
      "inputs": [
        {
          "indexed": true,
          "internalType": "string",
          "name": "requestId",
          "type": "string"
        },
        {
          "indexed": true,
          "internalType": "address",
          "name": "student",
          "type": "address"
        },
        {
          "indexed": false,
          "internalType": "uint256",
          "name": "fee",
          "type": "uint256"
        }
      ],
      "name": "ReevaluationApplied",
      "type": "event"
    },
    {
      "anonymous": false,
      "inputs": [
        {
          "indexed": true,
          "internalType": "string",
          "name": "requestId",
          "type": "string"
        },
        {
          "indexed": false,
          "internalType": "bool",
          "name": "refunded",
          "type": "bool"
        },
        {
          "indexed": false,
          "internalType": "uint256",
          "name": "amount",
          "type": "uint256"
        }
      ],
      "name": "ReevaluationResolved",
      "type": "event"
    },
    {
      "inputs": [
        {
          "internalType": "string",
          "name": "requestId",
          "type": "string"
        }
      ],
      "name": "applyForReevaluation",
      "outputs": [],
      "stateMutability": "payable",
      "type": "function"
    },
    {
      "inputs": [],
      "name": "owner",
      "outputs": [
        {
          "internalType": "address",
          "name": "",
          "type": "address"
        }
      ],
      "stateMutability": "view",
      "type": "function"
    },
    {
      "inputs": [],
      "name": "renounceOwnership",
      "outputs": [],
      "stateMutability": "nonpayable",
      "type": "function"
    },
    {
      "inputs": [
        {
          "internalType": "string",
          "name": "",
          "type": "string"
        }
      ],
      "name": "requests",
      "outputs": [
        {
          "internalType": "string",
          "name": "requestId",
          "type": "string"
        },
        {
          "internalType": "address",
          "name": "student",
          "type": "address"
        },
        {
          "internalType": "uint256",
          "name": "fee",
          "type": "uint256"
        },
        {
          "internalType": "bool",
          "name": "resolved",
          "type": "bool"
        },
        {
          "internalType": "bool",
          "name": "refunded",
          "type": "bool"
        },
        {
          "internalType": "uint256",
          "name": "timestamp",
          "type": "uint256"
        }
      ],
      "stateMutability": "view",
      "type": "function"
    },
    {
      "inputs": [
        {
          "internalType": "string",
          "name": "requestId",
          "type": "string"
        },
        {
          "internalType": "bool",
          "name": "shouldRefund",
          "type": "bool"
        }
      ],
      "name": "resolveReevaluation",
      "outputs": [],
      "stateMutability": "nonpayable",
      "type": "function"
    },
    {
      "inputs": [
        {
          "internalType": "address",
          "name": "newOwner",
          "type": "address"
        }
      ],
      "name": "transferOwnership",
      "outputs": [],
      "stateMutability": "nonpayable",
      "type": "function"
    },
    {
      "inputs": [],
      "name": "withdraw",
      "outputs": [],
      "stateMutability": "nonpayable",
      "type": "function"
    }
  ],
  "bytecode": "0x60806040523480156200001157600080fd5b5060405162001900380380620019008339818101604052810190620000379190620001f4565b80600073ffffffffffffffffffffffffffffffffffffffff168173ffffffffffffffffffffffffffffffffffffffff1603620000ad5760006040517f1e4fbdf7000000000000000000000000000000000000000000000000000000008152600401620000a4919062000237565b60405180910390fd5b620000be81620000c660201b60201c565b505062000254565b60008060009054906101000a900473ffffffffffffffffffffffffffffffffffffffff169050816000806101000a81548173ffffffffffffffffffffffffffffffffffffffff021916908373ffffffffffffffffffffffffffffffffffffffff1602179055508173ffffffffffffffffffffffffffffffffffffffff168173ffffffffffffffffffffffffffffffffffffffff167f8be0079c531659141344cd1fd0a4f28419497f9722a3daafe3b4186f6b6457e060405160405180910390a35050565b600080fd5b600073ffffffffffffffffffffffffffffffffffffffff82169050919050565b6000620001bc826200018f565b9050919050565b620001ce81620001af565b8114620001da57600080fd5b50565b600081519050620001ee81620001c3565b92915050565b6000602082840312156200020d576200020c6200018a565b5b60006200021d84828501620001dd565b91505092915050565b6200023181620001af565b82525050565b60006020820190506200024e600083018462000226565b92915050565b61169c80620002646000396000f3fe6080604052600436106100705760003560e01c80636d6e0f611161004e5780636d6e0f61146100ea578063715018a6146101135780638da5cb5b1461012a578063f2fde38b1461015557610070565b80633ccfd60b14610075578063692d51d21461008c5780636c7fd274146100ce575b600080fd5b34801561008157600080fd5b5061008a61017e565b005b34801561009857600080fd5b506100b360048036038101906100ae9190610c0b565b610285565b6040516100c596959493929190610d48565b60405180910390f35b6100e860048036038101906100e39190610e10565b610399565b005b3480156100f657600080fd5b50610111600480360381019061010c9190610e89565b61060d565b005b34801561011f57600080fd5b5061012861089b565b005b34801561013657600080fd5b5061013f6108af565b60405161014c9190610ee9565b60405180910390f35b34801561016157600080fd5b5061017c60048036038101906101779190610f30565b6108d8565b005b61018661095e565b6000479050600081116101ce576040517f08c379a00000000000000000000000000000000000000000000000000000000081526004016101c590610fa9565b60405180910390fd5b60006101d86108af565b73ffffffffffffffffffffffffffffffffffffffff16826040516101fb90610ffa565b60006040518083038185875af1925050503d8060008114610238576040519150601f19603f3d011682016040523d82523d6000602084013e61023d565b606091505b5050905080610281576040517f08c379a00000000000000000000000000000000000000000000000000000000081526004016102789061105b565b60405180910390fd5b5050565b6001818051602081018201805184825260208301602085012081835280955050505050506000915090508060000180546102be906110aa565b80601f01602080910402602001604051908101604052809291908181526020018280546102ea906110aa565b80156103375780601f1061030c57610100808354040283529160200191610337565b820191906000526020600020905b81548152906001019060200180831161031a57829003601f168201915b5050505050908060010160009054906101000a900473ffffffffffffffffffffffffffffffffffffffff16908060020154908060030160009054906101000a900460ff16908060030160019054906101000a900460ff16908060040154905086565b600034116103dc576040517f08c379a00000000000000000000000000000000000000000000000000000000081526004016103d390611127565b60405180910390fd5b6000600183836040516103f0929190611177565b90815260200160405180910390206002015414610442576040517f08c379a0000000000000000000000000000000000000000000000000000000008152600401610439906111dc565b60405180910390fd5b6040518060c0016040528083838080601f016020809104026020016040519081016040528093929190818152602001838380828437600081840152601f19601f8201169050808301925050505050505081526020013373ffffffffffffffffffffffffffffffffffffffff16815260200134815260200160001515815260200160001515815260200142815250600183836040516104e1929190611177565b9081526020016040518091039020600082015181600001908161050491906113a8565b5060208201518160010160006101000a81548173ffffffffffffffffffffffffffffffffffffffff021916908373ffffffffffffffffffffffffffffffffffffffff1602179055506040820151816002015560608201518160030160006101000a81548160ff02191690831515021790555060808201518160030160016101000a81548160ff02191690831515021790555060a082015181600401559050503373ffffffffffffffffffffffffffffffffffffffff1682826040516105ca929190611177565b60405180910390207f174f29db46a6bb7ab217121ee7ee0111be0bb65ed0831c0d88f76667f387d91734604051610601919061147a565b60405180910390a35050565b61061561095e565b600060018484604051610629929190611177565b908152602001604051809103902090506000816002015411610680576040517f08c379a0000000000000000000000000000000000000000000000000000000008152600401610677906114e1565b60405180910390fd5b8060030160009054906101000a900460ff16156106d2576040517f08c379a00000000000000000000000000000000000000000000000000000000081526004016106c99061154d565b60405180910390fd5b60018160030160006101000a81548160ff02191690831515021790555081156108425760018160030160016101000a81548160ff02191690831515021790555060008160010160009054906101000a900473ffffffffffffffffffffffffffffffffffffffff1673ffffffffffffffffffffffffffffffffffffffff16826002015460405161076090610ffa565b60006040518083038185875af1925050503d806000811461079d576040519150601f19603f3d011682016040523d82523d6000602084013e6107a2565b606091505b50509050806107e6576040517f08c379a00000000000000000000000000000000000000000000000000000000081526004016107dd906115b9565b60405180910390fd5b84846040516107f6929190611177565b60405180910390207f3d9ef3563a4771f834db6f9a8d069e1e8b499f8b03a67c8971685a4a8e60c235600184600201546040516108349291906115d9565b60405180910390a250610895565b8383604051610852929190611177565b60405180910390207f3d9ef3563a4771f834db6f9a8d069e1e8b499f8b03a67c8971685a4a8e60c23560008060405161088c92919061163d565b60405180910390a25b50505050565b6108a361095e565b6108ad60006109e5565b565b60008060009054906101000a900473ffffffffffffffffffffffffffffffffffffffff16905090565b6108e061095e565b600073ffffffffffffffffffffffffffffffffffffffff168173ffffffffffffffffffffffffffffffffffffffff16036109525760006040517f1e4fbdf70000000000000000000000000000000000000000000000000000000081526004016109499190610ee9565b60405180910390fd5b61095b816109e5565b50565b610966610aa9565b73ffffffffffffffffffffffffffffffffffffffff166109846108af565b73ffffffffffffffffffffffffffffffffffffffff16146109e3576109a7610aa9565b6040517f118cdaa70000000000000000000000000000000000000000000000000000000081526004016109da9190610ee9565b60405180910390fd5b565b60008060009054906101000a900473ffffffffffffffffffffffffffffffffffffffff169050816000806101000a81548173ffffffffffffffffffffffffffffffffffffffff021916908373ffffffffffffffffffffffffffffffffffffffff1602179055508173ffffffffffffffffffffffffffffffffffffffff168173ffffffffffffffffffffffffffffffffffffffff167f8be0079c531659141344cd1fd0a4f28419497f9722a3daafe3b4186f6b6457e060405160405180910390a35050565b600033905090565b6000604051905090565b600080fd5b600080fd5b600080fd5b600080fd5b6000601f19601f8301169050919050565b7f4e487b7100000000000000000000000000000000000000000000000000000000600052604160045260246000fd5b610b1882610acf565b810181811067ffffffffffffffff82111715610b3757610b36610ae0565b5b80604052505050565b6000610b4a610ab1565b9050610b568282610b0f565b919050565b600067ffffffffffffffff821115610b7657610b75610ae0565b5b610b7f82610acf565b9050602081019050919050565b82818337600083830152505050565b6000610bae610ba984610b5b565b610b40565b905082815260208101848484011115610bca57610bc9610aca565b5b610bd5848285610b8c565b509392505050565b600082601f830112610bf257610bf1610ac5565b5b8135610c02848260208601610b9b565b91505092915050565b600060208284031215610c2157610c20610abb565b5b600082013567ffffffffffffffff811115610c3f57610c3e610ac0565b5b610c4b84828501610bdd565b91505092915050565b600081519050919050565b600082825260208201905092915050565b60005b83811015610c8e578082015181840152602081019050610c73565b60008484015250505050565b6000610ca582610c54565b610caf8185610c5f565b9350610cbf818560208601610c70565b610cc881610acf565b840191505092915050565b600073ffffffffffffffffffffffffffffffffffffffff82169050919050565b6000610cfe82610cd3565b9050919050565b610d0e81610cf3565b82525050565b6000819050919050565b610d2781610d14565b82525050565b60008115159050919050565b610d4281610d2d565b82525050565b600060c0820190508181036000830152610d628189610c9a565b9050610d716020830188610d05565b610d7e6040830187610d1e565b610d8b6060830186610d39565b610d986080830185610d39565b610da560a0830184610d1e565b979650505050505050565b600080fd5b600080fd5b60008083601f840112610dd057610dcf610ac5565b5b8235905067ffffffffffffffff811115610ded57610dec610db0565b5b602083019150836001820283011115610e0957610e08610db5565b5b9250929050565b60008060208385031215610e2757610e26610abb565b5b600083013567ffffffffffffffff811115610e4557610e44610ac0565b5b610e5185828601610dba565b92509250509250929050565b610e6681610d2d565b8114610e7157600080fd5b50565b600081359050610e8381610e5d565b92915050565b600080600060408486031215610ea257610ea1610abb565b5b600084013567ffffffffffffffff811115610ec057610ebf610ac0565b5b610ecc86828701610dba565b93509350506020610edf86828701610e74565b9150509250925092565b6000602082019050610efe6000830184610d05565b92915050565b610f0d81610cf3565b8114610f1857600080fd5b50565b600081359050610f2a81610f04565b92915050565b600060208284031215610f4657610f45610abb565b5b6000610f5484828501610f1b565b91505092915050565b7f4e6f2066756e647320746f207769746864726177000000000000000000000000600082015250565b6000610f93601483610c5f565b9150610f9e82610f5d565b602082019050919050565b60006020820190508181036000830152610fc281610f86565b9050919050565b600081905092915050565b50565b6000610fe4600083610fc9565b9150610fef82610fd4565b600082019050919050565b600061100582610fd7565b9150819050919050565b7f5769746864726177616c206661696c6564000000000000000000000000000000600082015250565b6000611045601183610c5f565b91506110508261100f565b602082019050919050565b6000602082019050818103600083015261107481611038565b9050919050565b7f4e487b7100000000000000000000000000000000000000000000000000000000600052602260045260246000fd5b600060028204905060018216806110c257607f821691505b6020821081036110d5576110d461107b565b5b50919050565b7f466565206d7573742062652067726561746572207468616e2030000000000000600082015250565b6000611111601a83610c5f565b915061111c826110db565b602082019050919050565b6000602082019050818103600083015261114081611104565b9050919050565b600081905092915050565b600061115e8385611147565b935061116b838584610b8c565b82840190509392505050565b6000611184828486611152565b91508190509392505050565b7f5265717565737420616c72656164792065786973747300000000000000000000600082015250565b60006111c6601683610c5f565b91506111d182611190565b602082019050919050565b600060208201905081810360008301526111f5816111b9565b9050919050565b60008190508160005260206000209050919050565b60006020601f8301049050919050565b600082821b905092915050565b60006008830261125e7fffffffffffffffffffffffffffffffffffffffffffffffffffffffffffffffff82611221565b6112688683611221565b95508019841693508086168417925050509392505050565b6000819050919050565b60006112a56112a061129b84610d14565b611280565b610d14565b9050919050565b6000819050919050565b6112bf8361128a565b6112d36112cb826112ac565b84845461122e565b825550505050565b600090565b6112e86112db565b6112f38184846112b6565b505050565b5b818110156113175761130c6000826112e0565b6001810190506112f9565b5050565b601f82111561135c5761132d816111fc565b61133684611211565b81016020851015611345578190505b61135961135185611211565b8301826112f8565b50505b505050565b600082821c905092915050565b600061137f60001984600802611361565b1980831691505092915050565b6000611398838361136e565b9150826002028217905092915050565b6113b182610c54565b67ffffffffffffffff8111156113ca576113c9610ae0565b5b6113d482546110aa565b6113df82828561131b565b600060209050601f8311600181146114125760008415611400578287015190505b61140a858261138c565b865550611472565b601f198416611420866111fc565b60005b8281101561144857848901518255600182019150602085019450602081019050611423565b868310156114655784890151611461601f89168261136e565b8355505b6001600288020188555050505b505050505050565b600060208201905061148f6000830184610d1e565b92915050565b7f5265717565737420646f6573206e6f7420657869737400000000000000000000600082015250565b60006114cb601683610c5f565b91506114d682611495565b602082019050919050565b600060208201905081810360008301526114fa816114be565b9050919050565b7f5265717565737420616c7265616479207265736f6c7665640000000000000000600082015250565b6000611537601883610c5f565b915061154282611501565b602082019050919050565b600060208201905081810360008301526115668161152a565b9050919050565b7f526566756e64206661696c656400000000000000000000000000000000000000600082015250565b60006115a3600d83610c5f565b91506115ae8261156d565b602082019050919050565b600060208201905081810360008301526115d281611596565b9050919050565b60006040820190506115ee6000830185610d39565b6115fb6020830184610d1e565b9392505050565b6000819050919050565b600061162761162261161d84611602565b611280565b610d14565b9050919050565b6116378161160c565b82525050565b60006040820190506116526000830185610d39565b61165f602083018461162e565b939250505056fea2646970667358221220ece21b021e9dfab9df1f4fbf8f2efbcb2e8a94f7470ca7fb704d39568def439264736f6c63430008180033",
  "linkReferences": {},
  "deployedLinkReferences": {}
}